:020000040001F9
:10F000007847002015F401001DF401001FF40100F1
:10F0100021F4010023F4010025F4010000000000A8
:10F0200000000000000000000000000027F40100C4
:10F0300029F40100000000002BF401002DF4010070
:10F04000A9F601002FF40100E9F901002FF40100F5
:10F050002FF401002FF40100A5F401002FF40100AA
:10F060002FF401002FF401002FF401002FF4010010
:10F070002FF401002FF401002FF401002FF4010000
:10F080002FF4010001F701002FF401002FF401001B
:10F0900025F701002FF4010029F701002FF40100EA
:10F0A0002FF401002FF401002FF401002FF40100D0
:10F0B0002FF401002FF40100000000000000000008
:10F0C0002FF401002FF401002FF401002FF40100B0
:10F0D0002FF401002FF401002FF4010000000000C4
:10F0E0000000000000000000000000000000000020
:10F0F0000000000000000000000000000000000010
:10F1000000000000000000000000000000000000FF
:10F1100000000000000000000000000000000000EF
:10F40000DFF80CD000F03CF8004800475D12020025
:10F41000784700200648804706480047FEE7FEE799
:10F42000FEE7FEE7FEE7FEE7FEE7FEE7FEE7FEE7B4
:10F430004DF7010001F4010040EA01039B0703D0EE
:10F4400009E008C9121F08C0042AFAD203E011F823
:10F45000013B00F8013B521EF9D27047D2B201E0E5
:10F4600000F8012B491EFBD270470022F6E710B5C9
:10F4700013460A4604461946FFF7F0FF204610BD22
:10F48000064C074D06E0E06840F0010394E80700F1
:10F4900098471034AC42F6D3FFF7B6FF9C2A02001F
:10F4A000BC2A02002DE9F04700268CB0DFF86091FD
:10F4B000B0464FF48075012437460696284602F080
:10F4C00051FC38B1D9F80403204203D0284602F099
:10F4D0003FFC26432D1D64007F1CADB2082FEDD3E9
:10F4E0004FF4BE74204602F03DFC48B1204602F0C5
:10F4F0002FFC46F0004606AA0121002002F014FC71
:10F50000444D16F0FF0F15D00127002437420DD0CF
:10F5100009EB8401D1F81005D1F81015C0F30420CF
:10F5200055F82420C1F3014102B190477F00641CCB
:10F53000082CEBD3002E67DA4FF0FF30CDE90880BE
:10F5400000263446281910F8507F90F9000027F063
:10F55000C008401C44D009A9404601F0D7FF58B369
:10F560004FEA9719404601F0B3FB55F820701FB1E0
:10F57000B9F1030F03D00FE0B9F1030F30D108A8A0
:10F580004FEAD80208F00703815C4FF0010C0CFA37
:10F5900003FC41EA0C0181544FF0A04101EB8800CB
:10F5A000D0F8000706A9C0F3014A404601F0AEFFBB
:10F5B00018B1BAF1020F03D012E0BAF1030F0FD164
:10F5C000B9F1030F08D1BAF1020F1BD00221404656
:10F5D00002F08EFB761CF6B217B149464046B8479A
:10F5E000641C042CAED3002E0ED06A4601210020EC
:10F5F00002F09AFB06990098884205D00690089878
:10F6000009909DE70321E2E70CB0BDE8F087000018
:10F61000006000404826002000F01F0201219140B8
:10F620004009800000F1E020C0F88012704700F02F
:10F630001F02012191404009800000F1E020C0F844
:10F640008011704700F01F020121914040098000A5
:10F6500000F1E020C0F80011704700F01F02012106
:10F6600091404009800000F1E020C0F8001170478F
:10F6700000F01F02012191404009800000F1E020CC
:10F68000C0F8001270474907090E002806DA00F09A
:10F690000F0000F1E02080F8141D704700F1E02019
:10F6A00080F80014704700002DE9F0414FF4807796
:10F6B000384601F033FF0124104EA50748B1384603
:10F6C00001F033FF0120C5F808037470002001F039
:10F6D00007FB4FF48277384601F020FF00280BD05B
:10F6E000384601F022FF0220C5F80803B470BDE8D7
:10F6F000F041012001F0F4BABDE8F0813426002089
:10F7000007480021C0F84011C0F84411C0F8481162
:10F71000C0F84C11C0F80011C0F8041102F08CBE02
:10F720000010014002F000BE074810B5406830B13B
:10F730008047002807D0BDE8104000F005BBBDE8B9
:10F74000104001F04BBC10BDC8210020F0B5984816
:10F750000023021D01780125101D4FF08056062957
:10F7600007D11478240704D10478C4F30314032CBC
:10F7700002D0062904D00FE08F4F8E4C7C670EE03C
:10F780001478240708D10478C4F30314032C06D09A
:10F79000042C04D0052C02D0062907D00EE0D6F8A0
:10F7A0004442864FC4F342343C6002E0147824079C
:10F7B00004D10478C4F30314032C02D0062906D024
:10F7C00011E07F4C276827F0807727600EE01478DF
:10F7D000240708D10478C4F30314032C06D0042CA6
:10F7E00004D0052C02D006290AD011E04FF0804445
:10F7F000C4F80C31C4F81031704C241F236002E0AF
:10F800001478240704D10478C4F30314032C02D021
:10F81000062905D00CE0694F032464373C600AE0F8
:10F820001478240704D10478C4F30314032C02D001
:10F8300006290DD014E0634F05243C60614C7834F8
:10F840002560604C083423603F243F1D3C6002E08B
:10F850001478240704D10478C4F30314052C02D0CF
:10F86000062957D068E058490968584A1160564936
:10F87000091D0968121D1160534908310968121DDC
:10F88000116051490C310968121D11604E49103147
:10F890000968121D11604C4914310968121D11606C
:10F8A000494918310968494A2032116046491C31DA
:10F8B0000968121D1160444920310968121D116048
:10F8C000414924310968121D11603F4928310968F6
:10F8D000121D11603C492C310968121D11603A4912
:10F8E00030310968394A403211603749343109688A
:10F8F000121D1160344938310968121D11603249F6
:10F900003C310968121D11602F4940310968121DF0
:10F91000116002E0117809070ED10078C0F30310DE
:10F92000032803D0042801D0052805D1D6F85802B1
:10F93000274900F04F00086021487438016841F4FD
:10F9400070010160BFF34F8FBFF36F8F4FF0102135
:10F95000D1F80002002803DBD1F80402002822DAE3
:10F960001C4A15601C480468002CFCD01524C1F802
:10F9700000420568002DFCD0C1F80442016800294E
:10F98000FCD0136001680029FCD0BFF34F8F0C48F6
:10F99000F0380168114A01F4E06111430160BFF3DE
:10F9A0004F8F00BFFDE70F490D480860F0BD000014
:10F9B000E00F00F00DF0ADBA00C007403C0500407C
:10F9C000FCED00E0105600400404001020C500408B
:10F9D000E40E004004E5014000E401400400FA05A3
:10F9E0000090D003DC2100200448017F0448002956
:10F9F000024901D002F0DDBE02F04CBEA02600207C
:10FA000000200040014A024900F026B8630F0200BE
:10FA1000C421002002E008C8121F08C1002AFAD140
:10FA200070477047002001E001C1121F002AFBD17E
:10FA3000704700000121202803DA81400548014079
:10FA400003E0402802DA2038814009B101207047E4
:10FA500000207047FC06FFBC2DE9F04116460F461A
:10FA60000446002503E03946B047641C6D1C20782D
:10FA70000028F8D12846BDE8F0812DE9FC47002593
:10FA800017880646158090F82D001446894630B137
:10FA90003A462146484600F055FD050009D1B078A8
:10FAA0004FF00C0A18B32088C846001DB84202D98E
:10FAB0005046BDE8FC87684679DF0028F9D12088E8
:10FAC000032108F8001020881921401C80B22080F2
:10FAD00008F800102088401C80B2208000EB08014C
:10FAE000BDF8000002F0DDFE218808442080F07897
:10FAF0000222C8B1218896F9033001F1030C48466F
:10FB0000BC45D5D8425421884FF0010C491C89B21C
:10FB1000218000F801C02188491C89B2218009F8A0
:10FB200001302088401C20807068B8B1218890F98D
:10FB3000003001F1030C4846BC45B9D84254218835
:10FB40000A22491C89B2218042542188491C89B269
:10FB5000218009F801302088401C2080308950B174
:10FB6000CDE900474B460622022106F1080002F0CB
:10FB7000E5FE05009DD1308A50B1CDE900474B46E6
:10FB80000722032106F1100002F0D8FE050090D1F3
:10FB9000308B50B1CDE900474B461522142106F1B8
:10FBA000180002F0CBFE050083D1306A30B13B462D
:10FBB0002246494601F0FEF80500DBD1706A30B1FB
:10FBC0003B462246494601F021FC0500D2D196F879
:10FBD0002C0038B13B4622464946304602F0A4FA92
:10FBE0000500C7D1307838B13B46224649463046F9
:10FBF00001F03EFC0500BDD128465AE7134A00211A
:10FC0000535C0BB1012203E0491C0629F8D3002202
:10FC10000F49012806D0022809D003280CD0042857
:10FC200012D10DE0487810B10AB1012070478878F0
:10FC300010B10AB102207047C87808B1032070479C
:10FC4000087908B104207047002070476521002022
:10FC50004425002010B501220221002000F0C6FE3C
:10FC600008B1072810D107220221012000F0BEFEB2
:10FC700008B1072808D100210A22084600F0B6FE84
:10FC800008B1072800D1002010BD022000F070BD8F
:10FC900070B50024064D06E06868012110F83400B4
:10FCA00001F0F2FC641C28788442F5D3002070BD7A
:10FCB00080210020F8B515460C460646052A01D2DB
:10FCC0000720F8BD01F0C6FD18B901F095FD002828
:10FCD000F7D1104900204E600C70C1E902500E4D62
:10FCE00008610DE006EBC4006968009181788DF829
:10FCF00001100078094A694601F018FD0028E0D19A
:10FD0000641EE4B2EED2BDE8F840054A0021024884
:10FD100000F04EB880210020742A0200850F0200F6
:10FD20009D0E0200BFF34F8F05480168054A01F49C
:10FD3000E06111430160BFF34F8F00BFFDE700009A
:10FD40000CED00E00400FA050EB500210091CDE9AC
:10FD500001106A4644F20100FFF7E4FF0EBD10B542
:10FD60008268C368934203D001F0E8F8002010BD18
:10FD7000052010BD29B112B1531E134203D0092032
:10FD800070470E2070470160838000218160C16050
:10FD90000846704710B58268C3689A1A83889A42E9
:10FDA00003D801F0D5F8002010BD042010BD0000DC
:10FDB000074B5B6823B12AB120B10068037C1BB1FB
:10FDC0000820704707207047417442610020704747
:10FDD000A42100202DE9F04707469846144689469D
:10FDE00090074FF0000526D12CB302F0A3F8134E74
:10FDF00006F11000C6F80C800570457080F802907E
:10FE000044607560357075701420FFF705FC07219C
:10FE10001420FFF738FC1420FFF714FC0848076093
:10FE200007211120FFF72FFC0548001F0068B06074
:10FE30000020BDE8F0870720FBE7000094210020A8
:10FE4000081501402DE9FC47DFF87890D9F8043017
:10FE500073B368B3052902D20720BDE8FC87436964
:10FE600033B3437C012B25D0002704460025884668
:10FE700016468DF80050684600F0CAF801A802F056
:10FE800045FDC8B1012101700F4944600968C0E90E
:10FE90000218C0E904769DF8040089F801009DF875
:10FEA000000000F0D9F81420FFF7E2FB2846D4E761
:10FEB0000820D2E70F46D8E704259DF8000000F09F
:10FEC000CBF8F3E7A4210020041501400649496856
:10FED00039B130B1416921B100210174022102F030
:10FEE00087BA082070470000A421002070B50A4E90
:10FEF00001460A48B578FFF732FF04464DB10020AD
:10FF0000B070711C0122C81D01F0EAFC08B1FFF7B6
:10FF10001BFF204670BD0000B4210020E026002019
:10FF2000F0B5284E89B01F460D00044672603BD0E4
:10FF3000A888296882B22448FFF71CFF002834D122
:10FF4000A889A96882B220481030FFF713FF002863
:10FF50002BD120221D496846FFF76EFA6069069092
:10FF6000207C00B101208DF814008DF81C70607C9D
:10FF700000B10E208DF81500E0680290A068039093
:10FF800020680190606800900E48114A6946083068
:10FF900001F072FC002808D1B0702068401C04D029
:10FFA0009DF81D0018B106E0072009B0F0BD054816
:10FFB000083001F0EDFC03490122491CC81D01F085
:10FFC0008FFCF2E7B4210020E02600207C2A02000A
:10FFD000F525020010B501460B48FFF7DBFE0400D3
:10FFE00010D10A4801F01EFE60B9084906480839D8
:10FFF000FFF7B5FE30B9054901220839034801F081
:020000040002F8
:100000008BFD0446204610BDF0260020BC210020B8
:1000100030B5EFF3108172B60D4A9468012324B114
:100020000370002900D162B630BD93604FF0E02329
:10003000D3F88051074C25401560C3F88041D3F8B0
:10004000844154605A17C3F8842100220270E8E703
:1000500000270020FC06FFBC0B498A68002A11D04B
:1000600000280FD1EFF3108072B60B684FF0E0223A
:10007000C2F800314B68C2F8043100228A600028BF
:1000800000D162B670470000002700202DE9F04142
:10009000064608680C46411C4FF0A0474FF001058A
:1000A00006D005FA00F1C7F80815206801F005FE32
:1000B0006068411C02D0002101F0F6FD3079204932
:1000C00001EB4010A169007F00283068C0F82415BA
:1000D00025D0607D227D31681043C1F86C05D4E9DC
:1000E00000123068C0F80C15C0F8142524E0A06890
:1000F000411C02D0002101F0D7FDE068411C05D071
:100100008540C7F80855E06801F0D7FDD4E9021230
:100110003068C0F80825C0F81015BDE8F081607D92
:10012000217D32680843C2F86C05D4E900123068BA
:10013000C0F81425C0F80C15207D0128D7D0ECE7B5
:10014000A0260020F0B50C4693B01F210726ADF87D
:100150000010ADF80410002750B1C17849070DD543
:100160006A4602A9FFF789FC002808D102AD02E027
:100170000025ADF800706CB1E07810B1304613B0D6
:10018000F0BD01AA0AA92046FFF777FC0028F6D1A6
:100190000AAA02E00022ADF80470BDF80400C3B260
:1001A000BDF80000C1B2284672DFE8E72DE9F0474C
:1001B0001F46DDF8208013468946040042D0EBB389
:1001C000404D012000262870EE70202219463E483E
:1001D000FFF732F9C5E904784FF6FF702881AE6168
:1001E0003948AE83AE773C212030FFF73EF93648E0
:1001F000217820300170A1788170E178C170617838
:1002000041703149D4E90423C1E90C23D4E9022324
:10021000C1E90A23D4E90623C1E90E23616AE1B1E9
:1002200000F13C0100F1480241628A60636A1B8868
:100230000B80616A436A8988998000E002E00021AE
:10024000436A07E00E20BDE8F087656AAD686D5C23
:100250005554491C9D888D42F7D8A16AD9B11A4AD4
:100260009432A2F10C018A608162A36A9B888B8020
:10027000A16A836A098819800021836A04E0A56A5B
:10028000AD686D5C5554491C9D888D42F7D894F833
:100290002C1080F82C10216A49B10A490A310162F8
:1002A000226A52884A80216A026A0988118061683C
:1002B00001B141604946BDE8F04703482030FFF7EF
:1002C00041BF00004C2100204425002010B50188CA
:1002D000144C102918D011291CD01B2919D1007ACF
:1002E000002816D1E0780521401CB0FBF1F201FB9B
:1002F000120000BF00F036F800280AD0616900291A
:1003000007D0BDE810400847C17B012901D1808892
:10031000208110BD00216171808821898842F8D137
:100320000120E7E74C21002010B574DF0B4C0120C1
:100330000B4960710020E0710620C8700021084858
:10034000FFF700FF002807D1E07800F00BF810B1AC
:10035000616901B18847002010BD00004C210020D8
:10036000642500202DE9F0413D4C804686B0207880
:1003700048B184F8038004A800F0FAFD049801262F
:1003800028B1667067E0082006B0BDE8F08100255E
:10039000A561344FA583A577787810B1E07801285E
:1003A00006D0B87858B1E078012801D0022806D1EB
:1003B000216919B126710820884700E0257140465F
:1003C000FFF71CFCE070216939B1032801D0042833
:1003D00003D1387808B1607990B1A5710095029584
:1003E000019503958DF800508DF808501C48E17870
:1003F0001830052925D2DFE801F03008111D210051
:10040000E571A67107208847E8E7A67001908DF88E
:100410000060ADF80C50ADF80A5014E00221A17054
:1004200001908DF80060B889ADF80C003889ADF8FE
:100430000A0008E0684601F0BBFE02E0684601F0F1
:10044000DBFEE07818B1684673DF00289CD1216993
:1004500009B1A0788847002096E7A570F7E700006B
:100460004C2100204425002070B5054601461C2281
:100470000F48FEF7E1FF0F4C00262670286830B1C8
:10048000016861604068A060201D7ADF02E00948D1
:10049000001D7BDF00280AD14FF6FF706080667078
:1004A000BDE87040044A00210448FFF781BC70BDDC
:1004B000182600206C210020AD2802005C2A0200D2
:1004C00070B51E4C068800231B49E289102E15D0FA
:1004D0001B4D112E1CD0122E29D0502E17D130F8C2
:1004E000061F914213D14189022910D10C3000F02E
:1004F000F6F888B1BDE8704000F0A2BC84884C805A
:100500000469CC60406908614B70002AF2D070BD6C
:100510004FF6FF7048804B702868FFF7D7FC002823
:10052000F5D0A1690029F2D0BDE870400847826883
:10053000CA60C0680861DDE76C2100201826002031
:100540005C2A02007CB5054608880C4609309042BA
:1005500001D90C207CBD68466DDF0028FAD12188C6
:100560000820685420881B21401C80B22080295418
:100570002088401C80B220802844DDF801100160F2
:10058000BDF8051081802088801D80B220809DF8F4
:100590000010490800D0012129542088401C2080E7
:1005A00000207CBD10B50446FFF78AFF21460748AE
:1005B00000F040F8204601F023FC2046FFF786FEBD
:1005C0002046BDE8104000F05BB90000BC240020CC
:1005D00030B5174B0D4604000FCB85B08DE80F00EA
:1005E00023D015B34FF6FF70A0822868A0610020C9
:1005F000A0752146684663DF002814D120788DF865
:1006000012000120ADF81000A21C04A9A0DF0028F0
:1006100009D12946204601F0C4FC002803D129460F
:10062000204601F05BFF05B030BD0E20FBE7000067
:10063000602A020010B5002822D0002920D00A88A4
:10064000102A18D0112A18D0502A19D104468A1D10
:10065000C888238A1231984202D15389022B10D0C4
:10066000A38898420CD1A369002B09D05289204657
:10067000BDE810401847898801E04FF6FF7181827C
:1006800010BD084600F02BF800B10120A07510BD88
:1006900007B584B068B1828AA2F57F43FF3B0AD0D8
:1006A000827D42B1BDF81820142A06D9072007B070
:1006B00000BD0E20FBE70820F9E70022009201921E
:1006C000029203928289039106A90291ADF800205B
:1006D00001218DF80210808A6946A6DFE7E70078DD
:1006E00000F001007047000000B5134889B00023F6
:1006F000006807905022114907A801F0DDFD08B1FC
:10070000FFF722FB6A460121002001F0BFFD08B17E
:10071000FFF71AFB1720ADF81000684601F0ACFD9A
:1007200008B1FFF711FB064801F09CFD002801D03D
:10073000FFF70AFB09B000BD0C2A0200E0210020EF
:10074000A50502000149085C704700002C2A020040
:100750000649095C4FF0A040D0F81005C84010F0E1
:10076000010000D0012080F0010070472C2A020017
:1007700007490B5C4FF0A041D1F8042501209840B7
:1007800020EA0203C1F808351040C1F80C05704793
:10079000282A02000249085C012101F0BABA0000CF
:1007A000282A02000249085C002101F0B2BA0000C8
:1007B000282A02000649095C4FF0A040D0F8040541
:1007C000C84010F0010000D0012080F00100704707
:1007D000282A02007CB50024084E25460122305DFF
:1007E000009500231146019501F028FA641C042CA1
:1007F000F4D3BDE87C4000F003B80000282A0200D2
:1008000010B500242046FFF7C5FF641C042CF9D363
:1008100010BD10B500242046FFF7C4FF641C042C53
:10082000F9D310BD10B50246064B4FF0FF30002142
:100830005C5C944201D1084610BD491C0429F7D3E1
:1008400010BD00002C2A020070B50C4E0C004FF0B9
:10085000000530600BD0012000F0A4F808B10220A0
:1008600004E0002000F09EF800B10B2020707068BA
:1008700010B9FFF7EFF90546284670BD4421002066
:1008800010B51A4C0188606810290ED011292BD19F
:10089000401E606028D1FFF7DDF9002824D02168D0
:1008A000002921D0BDE810400847D0B9002101221D
:1008B000084600F09BF808B107280FD10722022153
:1008C000012000F093F808B1072807D10422022183
:1008D000002000F08BF820B1072802D0216801B178
:1008E00088476068401C606010BD00004421002003
:1008F00010B5002000F0AEF908B1062806D101209D
:1009000000F0A8F908B1062800D1002010BD0000B1
:100910002DE9F0470D468146FFF784FF0446042881
:1009200038D2DFF878801C481D4EA8F1100735B387
:10093000012D0ED0022D2DD104EB4400304445781A
:10094000002D27D0F968002924D02846BDE8F047BB
:10095000084704EB4401755C0E44717859B179681D
:100960000E4A01EB810149000E3A8068FFF76AFAEE
:1009700008B987F80290B17808F80410E0E78068B9
:10098000FFF7A4FA04EB4401314418F804008D7811
:10099000A842D5D0BDE8F087302A020040210020CF
:1009A00018250020FFF7D4BE01460F4810B5408837
:1009B000042907D007290ED00A2914D1BDE8104018
:1009C00001F03CBC132176DF0BE000280BD0BDE822
:1009D0001040FFF7B9B9A0F57F41FF3903D1FFF708
:1009E000A3FC0828F1D110BD2821002070B50023F8
:1009F000042810D20D4D00EB4004012A02D1012938
:100A00000CD00022094E00EB4000304461B10129B6
:100A100006D0022906D00723184670BD0E30C2B298
:100A20002A55F9E74270F7E78270F5E718250020AC
:100A3000044A01460020127AD20702D0084600F08C
:100A40004FB87047302100202DE9F04106461F487D
:100A500000240F464160C0E90262B0071FD500259F
:100A6000012211462846FFF7C1FF6D1C0446042DE4
:100A700002D2002CF4D012E08CB97A080421144878
:100A8000FFF718F904000AD1FFF702F9040006D1B4
:100A90000F48104A0021001FFFF78AF90446F007AB
:100AA00001D0FFF797FE74B909480B4A00210C38B2
:100AB000FFF77EF9040006D10548084A01210838ED
:100AC000FFF776F904462046BDE8F081302100208A
:100AD0003C2A0200650C0200E91002008BFC0100B8
:100AE0002DE9F047594C05460026607818B10020E2
:100AF0006070FFF785FE0120554F4FF47A694FF47F
:100B0000C87A4FF06408182D2CD2DFE805F0890C64
:100B10000C2C3A4751565A615A619B696969696957
:100B2000898C8F929B9B0020FFF744FE00284FF09A
:100B3000000008D0FFF72EFE022D02D14FF4E16035
:100B400006E0484604E0FFF72DFE022D2ED0504669
:100B5000B0FBF8F125706068414300223868FFF768
:100B600071F9064659E00020FFF724FE28B1002065
:100B7000FFF710FE4FF44870EAE70020FFF712FE7F
:100B800014E00020FFF716FE00284FF0000002D00E
:100B9000FFF700FED5E7FFF705FED8E70020FFF7D7
:100BA00009FE0028E9D00020FFF7F4FDC820CFE7B8
:100BB0000020FFF7DDFD257007E000203FE02570F5
:100BC0002BE060700120FFF7D3FD00226168C5E7CC
:100BD00060700120FFF7CCFD606800EB8001BCE78E
:100BE0007868FFF773F90646D5F1110000D01EB101
:100BF0000220FFF7CFFD10E001280BD9C82110FB20
:100C000001F1B1FBF8F16068002241437868FFF719
:100C100019F906460220FFF7C5FD3046BDE8F0870A
:100C2000FFF7EEFDCBE7FFF7EBFDC6E7FFF7E8FDCB
:100C300004E0FFF7E5FD0020FFF7B4FD0120FFF71A
:100C4000B1FDBCE7FFF7E5FDB9E70000302100206A
:100C5000302A020010B5FFF775FD032101F037F8C7
:100C6000002010BD00780221FFF752BE05494FF069
:100C7000FF32082841F8202002D3084480F8482099
:100C80007047000048260020F0B54FF0FF3512B144
:100C90000023082601E008230C260C4C05E000BFC9
:100CA00054F823707F1C04D05B1CB342F8D3284651
:100CB000F0BD26185DB286F8305044F82310002AA3
:100CC000F5D1E11881F84800F1E70000482600203E
:100CD0000249084490F9300070470000482600207F
:100CE00070B5084C050009D010342168002907D0E0
:100CF00008682060496828468847F6E70834F4E722
:100D000070BD0000342600202DE9F05F26484168C0
:100D1000F1B3DFF898B00E688146DBF800408768D1
:100D20008078E11B21F07F45ED1CB0B9DFF88080B1
:100D30004FF48030C8F84403C8F804031120FEF7CC
:100D40006BFC1120FEF77EFC4FF0010AC8F800A0F2
:100D50002F2000F0F3FB89F802A0B54200D23546FF
:100D6000124BE8193C3320F07F401860DBF800108C
:100D70005A46091B21F07F41001B20F07F40C91C0F
:100D800081420FD9106818602F2000F0D7FB00E0D7
:100D900004E0BDE8F05F1120FEF76ABCBDE8F05F3B
:100DA00001F0C8B8BDE8F09F94210020041501406F
:100DB000001001402DE9F04117880646B81D144681
:100DC0000D46984202D90C20BDE8F08131880722F7
:100DD00006290AD34FF4486C4FF6FF73614501D9D9
:100DE000994202D17088062801D21046ECE760458E
:100DF00001D99842F9D1994203D0984201D0814259
:100E0000F3D80520E85520881221401C80B22080AC
:100E100029542088401C80B220804119308801F07C
:100E200040FD2188084480B220804119708801F07B
:100E300038FD2188084420800020C5E7FEF784BFE4
:100E4000F8B5134800F042F9114D0026114C0C3D45
:100E500030B16169B9B101208DF80000684611E038
:100E6000287820B1616971B18DF80060F6E7687883
:100E700058B1A168084800220068FEF7E3FF10B1EE
:100E8000A16901B188472E70F8BD6168F2E70000E2
:100E900078210020182600205C2A02002DE9F0416C
:100EA00000260125144C22E06068226900EBC60789
:100EB000387805FA00F1114217D08A43226100F018
:100EC00091FC02463878E36805FA00F1194002FA0D
:100ED00000F3994209D17978012901D0012100E07C
:100EE000002151407A6802B19047761CF6B2207812
:100EF0008642D9D3BDE8F081802100200E4910B58B
:100F00000A784C780023A24212D0521CD2B20A7046
:100F1000022A00D10B70084A0B78183252F82320AD
:100F200002608868104420F07F408860012010BD76
:100F30000360002010BD0000942100208268838897
:100F40001A4003689A5C0A708168491C8160704786
:100F5000C26883881A4003689954C168491CC160FB
:100F6000704710B50446C0B2FFF734F8204610BDF4
:100F700020B10349496E016000207047032070478B
:100F80000C2700202DE9F041124E07460125BD40F7
:100F90003068FEF79BFF00280DD10F4C20692842D6
:100FA00007D1384600F01EFC0028E06805D0284331
:100FB00004E0A8432061BDE8F081A843E060206917
:100FC00028432061A1683068BDE8F0410022FEF7A7
:100FD00039BF0000742A020080210020F8B51C4CA3
:100FE0002078002832D0E068002658B100256078CB
:100FF00000282BD1684648DF052805D030B1FEF720
:10100000A3FE0AE00125F2E7012606E0009800F0C1
:1010100017FB216909B1009888479DB960780028BD
:1010200014D16088ADF800006946A06861DF05282A
:1010300003D020B1FEF788FE04E0012502E0D4E9E8
:1010400002018847002ED2D0002DE6D0F8BD000066
:10105000C821002070B50E460446007918494FF4A7
:10106000A27501EB4010017F2068A1B14FF4887197
:1010700000F096FE4FF49071206800F091FE4FF45E
:101080009271206800F08CFE2946206800F088FEEE
:101090000C49206809E04FF48E7100F070FE29467B
:1010A000206800F06CFE08492068C0F8041320682E
:1010B00000F0E7FA3146BDE8704000F0C6BA000023
:1010C000A02600201003020080000200054940888D
:1010D0000A88904204D34988884201D80120704789
:1010E00000207047702100200348017AC90702D010
:1010F0000078FFF7F5BC7047302100202DE9F04360
:10110000264CA4F110092278D9F8048099F80350EC
:10111000404694F801C0D9F8086031E002EB420380
:101120006168521C01EBC301A378D2B2934200D193
:1011300000220B78022B02D0032B21D11DE00346A5
:101140004F68194603E0B94203D00B46C969B9B1EB
:10115000F9E7A9B18B4205D1C06918B9104E012534
:10116000B56000260F68C969D96149B10B683B4475
:101170000B6005E00174C06900E000210028F9D18E
:101180009445CBD1C9E9010689F80350404502D006
:101190000120BDE8F0830020FBE70000A42100202F
:1011A000001001402DE9F0412A4F0446002607F1C6
:1011B0001005D7F804803EE002D02046E4691DE027
:1011C0002878696800EB4002401CC0B201EBC20104
:1011D0002870AA78904200D12E700A784868012AB7
:1011E0002BD1027C4ABB8A684260CA6882600A6965
:1011F000C26049698161F97801B146604368BA68A3
:10120000DFF854C0991A21F07F41614502D282680B
:10121000114406E0D11A826821F07F418A4202D946
:10122000511A016000E00660466001218660017489
:10123000C66101F0BFF8002CBED1287869788842D9
:10124000BED17968414502D00120BDE8F08100207F
:10125000FBE7000094210020FFFF7F000023A8B0DF
:10126000584A05211846FEF7B5FD08B1FEF76CFD9A
:10127000182255496846FEF7DFF85448069054494D
:101280004FF48070CDE9070109900723514A06A960
:101290006846FEF745FE08B1FEF756FD4E4A40F699
:1012A000CD410320FFF7D0FB08B1FEF74DFD6946A5
:1012B0000020FFF7C9FA08B1FEF746FDFFF714FA60
:1012C0009DF8080045A120F00F00401C20F0F00020
:1012D00010308DF808000B2202A87CDF08B1FEF761
:1012E00033FD002400941020ADF800003C20019450
:1012F000ADF80200ADF804404FF4C870ADF8060038
:1013000068467ADF08B1FEF71FFD374800902D4888
:1013100069467830FFF75CF908B1FEF715FD3C210E
:1013200001A8FEF7A2F802208DF804008DF806400F
:1013300005208DF807003C2110A8FEF796F82B48F1
:1013400001251590ADF8505020211FA8FEF78DF80B
:10135000402023908DF87F50B4202490244B1FAA66
:1013600010A9009401A8FEF721FF08B1FEF7ECFCDC
:101370001C216846FEF779F84FF42030CDE9004093
:101380004FF47020029003208DF80C00194805904E
:1013900019480690ADF80E408DF810406846FFF7EA
:1013A00063F808B1FEF7D0FC14A0FEF72BFB032076
:1013B000FEF7D8FF00E03EDF0028FCD0FEF7C4FCBB
:1013C000F9E7000044240020102A020044220020F3
:1013D0004423002099250200A90902004E6F72647F
:1013E00069635F5541525400AD1D02002C2100205D
:1013F000DD1D0200E91E02003D0E02000D0A5541EE
:101400005254205374617274210D0A0070B5144651
:1014100082880E4605462088111D0144921C99427F
:1014200001D8FE2A01D90C2070BD521C32542088EC
:10143000FF21401C80B2208031542088401C80B2A3
:1014400020808119288801F02CFA2188084480B274
:101450002080AA8842B1A96841B13044FDF7ECFF71
:101460002088A98808442080002070BD072070BD16
:10147000F8B50E46017814460546012901D1687871
:1014800030B12088821C9A422DD8012902D006E072
:101490000720F8BD69780144891C994223D8181A9D
:1014A000801E87B2ADF800702188B01C08446946E0
:1014B0007DDF0028EDD12878022805D1BDF8001085
:1014C000B94201D809210AE00821012805D168782C
:1014D000B84202D8ADF8000001E0ADF80070BDF8E8
:1014E0000000FE2801D90C20F8BD2288401CB05411
:1014F0002088401C80B2208031542088401C2080ED
:10150000BDF80010084420800020F8BDC20800F09B
:1015100007030120895C98400840704700F1804033
:101520000068002800D00120704708B500F1804015
:10153000002101600068009008BD000000283ED036
:101540001F49204A096800BF00BF00BF00BF00BF9D
:1015500000BF00BF00BF91422FD000BF00BF00BF3F
:1015600000BF00BF00BF00BF00BF00BF00BF00BF83
:1015700000BF00BF00BF00BF00BF00BF00BF00BF73
:1015800000BF00BF00BF00BF00BF00BF00BF00BF63
:1015900000BF00BF00BF00BF00BF00BF00BF00BF53
:1015A00000BF00BF00BF00BF00BF00BF00BF00BF43
:1015B00000BF00BF00BF00BF00BF401EC3D17047C7
:1015C000DC2100200024F40070B50F4C00252078A9
:1015D00008B1852516E00021A16061602161E1600C
:1015E0004FF0E020D0F80001012610F0010F03D1E8
:1015F0000721002000F029F800F090FE08B9034808
:1016000006602670284670BD34260020180500406C
:1016100038B500208DF800006846FEF7F9FC074C4D
:10162000207808B9FFF7D0FFE068401CE060012097
:10163000A0709DF80000FEF70FFD38BD3426002095
:10164000002801D1FFF74CBB70474907090E00285D
:1016500006DA00F00F0202F1E02282F8141D03E026
:1016600000F1E02282F8001400F01F0201219140F5
:101670004009800000F1E020C0F88012C0F800119D
:101680007047000B40B270472DE9F041884605468F
:1016900000F038FC234E002828461AD0FFF718FB2C
:1016A000304490F848008009032802D001280ED069
:1016B00007E04FF0A040D0F81005E84010F0010F0F
:1016C00005D003212846BDE8F04100F011BB0221FE
:1016D000F8E700F023FC002822D02846FFF7F8FAAC
:1016E00004464FF4807000EB84000F4F81B207EB8B
:1016F0008400D0F8102542F00102C0F810250846F9
:1017000000F026FBB8F1000F0AD02846FFF7E0FAF8
:1017100056F82000002803D00120A040C7F8040399
:10172000BDE8F08148260020006000402DE9FC4122
:10173000DFF8A480044608EB0400002790F930008D
:101740001346C0170E46401C01D0082741E0F2782E
:1017500019462046FFF798FA0546401C38D0B07865
:1017600050B14FF0A04000EB8400D0F8001721F0FA
:101770000201C0F8001707E00021737820460091AD
:101780000A46019100F06CFAF078C0B11348317844
:1017900000EB8500D0F81025114B1A40C0F8102539
:1017A0004FF4F8524FF4403302EA042203EA0141B5
:1017B0000A43D0F810150A43C0F8102509E008EBD9
:1017C0000500327810F8481F41EA8211017000E0EC
:1017D00004273846BDE8FC81482600200060004010
:1017E000FFE0FCFF4FF0A041D1F81015C14011F00F
:1017F000010000D00120704770B5144D95F85400D9
:1018000008B1082070BD0020411E2A18401CC0B23B
:1018100082F830102028F8D300242046FFF726FA5B
:10182000641CE4B20C2CF8D307210620FFF70DFF4F
:101830004FF4BE7000F08CFA05494FF00040C1F83B
:101840000403012085F85400002070BD48260020C4
:1018500000600040034890F85400002800D00120A8
:1018600070470000482600200121B1EB507F01D1D4
:1018700001207047002070472DE9F04105460079AE
:10188000164F904607EB40140E46E07E10B108203C
:10189000BDE8F081707F20772846FEF7F7FB5FEA0E
:1018A000080060603169216003D0317F2846FFF76E
:1018B000D1FB287907EB4010007F0028286801D071
:1018C000082100E00421C0F800150020E075207612
:1018D000A0750121E176A076DAE70000A0260020BD
:1018E0002DE9F04105460079284E904606EB40145C
:1018F0000F46207F18B10846FFF7B6FF80B1626837
:1019000000234FF404704FF4017172B12A7906EB91
:101910004212127F002A2A6805D0C2F8080304E0A8
:101920001020BDE8F081C2F80813E27DB2B1227E3A
:101930007AB162685AB12A7906EB4212127F1AB163
:101940002968C1F8040302E02868C0F804131120D4
:10195000E7E72761012384F8188005E084F8178001
:101960000020E760607620762879424606EB40103A
:101970003946007F0028284603D0BDE8F04100F03A
:1019800073B8BDE8F04100F01BB80000A0260020AD
:1019900070B504460079094D05EB4010017F002920
:1019A0000AD1807E002807D1204600F074FB2179FF
:1019B000012005EB4111887670BD0000A0260020B3
:1019C0002DE9F05F04460079264901EB4015A87E19
:1019D000184302D1204600F05EFB686800282068AA
:1019E00006D04FF40171C0F804130020BDE8F09F49
:1019F0004FF4A276314600F0C2F9B1464FF4927A24
:101A00004FF4847B5146206800F0B4F906465946ED
:101A1000206800F0AFF980464946206800F0AAF936
:101A2000074648EA07003043ECD056EA070007D1E2
:101A30002946206800F09CFAE87D697E8842E1D85A
:101A40000020E8750EB10320D0E70FB10F20CDE7DD
:101A5000A97E01200029216801D00860C5E74860FF
:101A6000C3E70000A02600202DE9F05F8946044668
:101A70004FF488759A46904600260068294600F083
:101A80008FF94FF4A2773946206800F089F9206871
:101A9000C0F83495C0F838852068BAF1000F14D02A
:101AA000D0F8001241F02001C0F800122179DFF8CF
:101AB000648008EB4110406850B120684FF4047115
:101AC000C0F804133046BDE8F09F01210160EDE746
:101AD000AA46B9464FF4927B5146206800F05BF964
:101AE00007464946206800F056F9054659462068E1
:101AF00000F051F9014647EA05000843ECD023798C
:101B0000002208EB4310C27501B10326002DD9D085
:101B10000F26D7E7A02600202DE9F04705460079DB
:101B20003F4E904606EB40140F46207F18B1084602
:101B3000FFF79AFE30B1284600F074F820B111206A
:101B4000BDE8F0871020FBE784F81680A760002727
:101B5000A78228794FF0010806EB40143E46207F0B
:101B60000028286825D04FF49079494600F018F9EC
:101B70004FF4AC7A5146286800F012F92868A17D2C
:101B8000A268C0F84425C0F848152868C0F8088045
:101B90006068F0B94946286800F0FDF88046514673
:101BA000286800F0F8F858EA0001F3D058BBA77590
:101BB0000FE04FF48E7A514600F0E1F82868C0F843
:101BC00008802146286800F079FC61684FF4807035
:101BD00089B13046B4E75146286800F0CBF810B917
:101BE000A08A4845F7D1A08A484505D021462868F3
:101BF00000F064FC00E08146A08AA17D8842EAD31F
:101C0000A08A484501D10F26D1E75146286800F047
:101C1000B1F80028F9D02868C0F80C80C7E70000A8
:101C2000A02600200079044901EB4010807D0028A7
:101C300000D0012070470000A026002070B541EAC6
:101C40004201DDE904564FF0A04441EA830141EA34
:101C5000052104EB800041EA0641C0F8001770BD81
:101C600070B541EA4201DDE904564FF0A04441EA73
:101C7000830141EA052104EB800041EA0641C0F8F6
:101C8000001770BD70B541EA4201DDE904564FF01E
:101C9000A04441EA830141EA052104EB800041EAC6
:101CA0000641C0F8001770BD1CB500220B4600921B
:101CB00011460192FFF7E6FF1CBD1CB50021009103
:101CC0000B46012201911146FFF7DCFF1CBD4FF0CE
:101CD000A04202EB8000D0F8002722F44032C0F886
:101CE0000027D0F8002742EA0141C0F800177047EA
:101CF0004FF0A04202EB8000D0F8002722F44032DF
:101D0000C0F80027D0F8002742EA0141C0F80017C8
:101D1000704701224FF0A043824011B1C3F808255B
:101D20007047C3F80C25704718B5084B6C46014442
:101D30001B68009306E000BF54F82030D3F810353C
:101D4000401C08C28142F7D818BD0000702A02006A
:101D5000034908B50844002101600068009008BDEF
:101D60000060004002494058012800D00020704720
:101D7000006000404058002800D00120704708B59E
:101D8000002242504058009008BDD0F8040308409B
:101D900000D0012070474058002800D00120704733
:101DA00008B5002242504058009008BD70B5164654
:101DB0000D46002405E0285DFEF70CF90028FAD155
:101DC000641CB442F7D30D20FEF704F90028FAD1C1
:101DD0000A20FEF7FFF80028FAD170BD10B550B107
:101DE00003280CD10220FEF723FE002807D0BDE80F
:101DF0001040FDF7A9BFBDE8104000F01FBA10BDAC
:101E000070B5384D044600886E8888B03B2839D0BC
:101E10000DDC02283AD0102815D011281BD0132829
:101E200022D100231A46852130467FDF23E0512846
:101E300030D052281AD0552850D0562814D1A08816
:101E4000132176DF17E00720FEF7F2FD08B1FDF75A
:101E50007BFFA08807E00020FEF7EAFD08B1FDF750
:101E600073FF4FF6FF70688008B070BD00231A46FC
:101E700019463046A9DF0028F6D008B0BDE870400A
:101E8000FDF762BFA088132176DFF4E7A088002168
:101E900067DFF0E71022A11D04A8FDF7CDFA9DF839
:101EA00010100029E0D09DF81800042803D006285F
:101EB00001D00528D8D102290ED001208DF80000CC
:101EC0004FF4C170ADF80400A0886946A8DF00286F
:101ED000CAD0FDF739FFC7E70220EFE7A088172136
:101EE000ADDFC8E7282100200078002807D104488A
:101EF0003B21408876DF002801D0FDF725BF7047E1
:101F0000282100200449084490F93000082801DB0A
:101F100001207047002070474826002004490844EB
:101F200090F93000082801D2012070470020704746
:101F30004826002070B5012670044FF0E0210025EE
:101F4000C1F88001084C4010C4F84803C4F80803E5
:101F500066602F20FFF7F2FAA660044C2F20A560E0
:101F6000FFF7ECFAA57070BD00100140942100202D
:101F700070B50546C87D0C4600284FF4847128468C
:101F80000AD0FFF7FCFED5F81805627EE168885498
:101F9000607E401C607670BDFFF7F1FED5F8180535
:101FA00070BD30B58FB00024054607949DF81C0025
:101FB0001C2120F00F00401C20F0F00010308DF8A4
:101FC0001C009DF81D0020F00F00401C20F0F000C8
:101FD00010308DF81D009DF81E0020F00600801CBA
:101FE0008DF81E006846FDF740FA9DF80000019448
:101FF00040F010008DF8000007A8CDE904400394DC
:10200000069428788DF83A000320ADF838000D9436
:102010009DF83400142120F00F00401C20F0F00047
:1020200010308DF834009DF8350020F00F00401C72
:1020300020F0F00010308DF835009DF8360020F0CB
:102040000600801C20F0180040F001008DF83600DA
:1020500008A8FDF70AFA0EA808900DA8099001201B
:10206000ADF828001420ADF82A40ADF82C0068889F
:1020700005F10C0308AA6946A2DF0FB030BD1FB5F9
:1020800001238DF800308DF808100192D0E900127C
:10209000684690471FBD10B5044600684FF4927122
:1020A000FFF76DFE4FF484712068FFF768FE20682B
:1020B0000121016010BD000010B50446FDF7BAFC17
:1020C00040B1002C09DA04F00F0000F1E02090F894
:1020D000140D06E042F2010010BD04F1E02090F87A
:1020E00000044109082914D299B1012911D0042909
:1020F0000FD005290DD00B480122816861B161091B
:1021000050F8213004F01F04A240134340F821305E
:1021100005E042F2020010BD2046FDF79EFA0020C5
:1021200010BD0000002700202DE9F0410746806A1D
:1021300014468846C8B3002531E000BFB96A05EBF4
:10214000450001EB8006B088801CFE2802D90C20D7
:10215000BDE8F0812288401C08F802002088162281
:10216000401C80B2208008F800202088401C80B2EB
:10217000208000EB0801308800F093FB21880844A0
:1021800080B22080B28842B1B16871B14044FDF79D
:1021900053F92088B188084420806D1CEDB297F86F
:1021A0002C00A842CAD80020D2E7FFE70720CFE7DB
:1021B00010B50F490F4C0A8A42818A8A82810978B8
:1021C00091B1617981B9E17971B102210172084956
:1021D00004202031C870064800212030FDF7B2FFEE
:1021E000002804D1052000E00320A070002010BDCD
:1021F000442500204C21002010B50E490E4C0A8BBE
:1022000042818A8B82810A78042182B1627972B913
:10221000E27962B10222027206482030C1700021C8
:10222000FDF790FF002804D10620A07000E0A17007
:10223000002010BD442500204C21002010B50020B6
:10224000FEF7F6FB08B1FDF77FFDFEF751FB08B185
:10225000FDF77AFD32DF002803D0BDE81040FDF71E
:1022600073BD10BD18B10349C860002070470E202F
:1022700070470000C82100201CB50349019100915E
:10228000694660DF1CBD00002821002070B50E46A5
:10229000054614461C211046FDF7E7F80120208072
:1022A0000021A16121752672657205B1A07200201E
:1022B00070BDFDF737BD00002DE9F041074619B1AB
:1022C00088074FF0000402D00720BDE8F081114DCF
:1022D0004FF0E0200126A9606A806B60D0F8000111
:1022E00010F0010F03D034460020FDF7A0F90A4991
:1022F000384610DF070005D014B10020FDF7ADF916
:102300003846E2E72E70FFF783F9BDE8F04116206A
:10231000FFF7D2BEC8210020B32202000148007896
:1023200070470000C82100202DE9F84F204C0025FF
:102330006846D4E901B6FEF7E1FD8046FEF7DEFE11
:102340000746A946B8F1000F25D00023009ACC46D5
:10235000606819E007680146974202D9BA1A02601C
:1023600014E0C1F800C0D1F80C80D21BC8693B440E
:102370008A46B8F1000F07D0F71827F07F47C1E968
:102380000178CAF81C500D460028E3D16060284649
:10239000FEF708FF04E02846FEF704FF00B917B176
:1023A0005846FEF7B1FC84F80390BDE8F88F0000B2
:1023B000942100200D4B10B5596831B102680C68AA
:1023C000A24204D8A21A0A60C161586010BD0B462F
:1023D00003E00B46C969121B21B10C689442F8D383
:1023E000A41A0C600260C161D86110BD9421002064
:1023F0007CB5064600240D468DF800406846FDF782
:1024000007FE01A800F082FA70B105700949466024
:102410009DF8040048709DF80000FDF71DFE142093
:10242000FDF726F920467CBD04249DF80000FDF749
:1024300013FEF7E7A42100202DE9F0411D4D6C6843
:10244000002C35D01C4800270068A968B846401AFF
:1024500020F07F462068B04215D82246361A07443D
:10246000E469107C68B182F81080EB6833B1D2E97E
:102470000501984728B1FDF767FC02E0D2E9051095
:102480008847002CE6D129786878814206D1401C23
:10249000C0B26870022801D185F8018005486978CA
:1024A000183040F82170BDE8F0411420FDF7E0B885
:1024B000BDE8F081942100200415014070B50C4660
:1024C00005464FF48E71FFF75AFCA18AA068415C63
:1024D000A08A401CA082C5F81C1570BD30B58FB015
:1024E00005461C216846FCF7C0FF00249DF800004B
:1024F000019440F00C008DF80000039404940594BE
:10250000069428788DF836000220ADF834000C943B
:102510009DF83000142120F00F00401C20F0F00046
:1025200010308DF830009DF8310020F00F00401C75
:1025300020F0F00010308DF831009DF8320020F0CE
:102540000600801C20F0180040F001008DF83200D9
:1025500007A8FCF78AFF0DA807900CA80890012097
:10256000ADF824001420ADF82640ADF828006888A6
:102570002B1D07AA6946A2DF0FB030BD1FB5002290
:102580008DF800208DF80810816801918275D0E9DE
:102590000012684690471FBD70B5017841B101290E
:1025A00001D0022921D14068BDE87040FDF7CCBBC5
:1025B0000F4C0E4D20782844FDF798FC2078401CE5
:1025C000C2B2A818227010F8010C0A2801D0142AEF
:1025D0000BD3064901F52370FEF75AF8082802D0FC
:1025E00008B1FDF7B1FB0020207070BD3022002043
:1025F000282100207CB50178244D81B301290BD01E
:1026000002292BD18DF80010C068691C01900122AD
:10261000C81DFFF765F92EE0406801781C48FDF7FA
:10262000B9FB1B4C012618B18DF80060019006E043
:10263000A068E168814205D000208DF8000069683B
:1026400068468847A068E168081AA188884207D8C8
:102650000E490122491CC81DFFF742F97CBD01E06B
:10266000AE70FBE70A4809491030FDF778FB30B13E
:1026700003208DF80000696868468847EEE7034943
:10268000012201F10800FFF747FAE7E7B421002033
:10269000E02600202DE9FF470C4605464FF4007167
:1026A000FFF773FB01274FF40178002618B34FF4AE
:1026B000927949462846FFF75DFBE0B14946284636
:1026C000FFF75DFBC5F80883A07E00B96F600220AC
:1026D0008DF80000D5F88004C5F880040390E07DF3
:1026E0008DF80800E0680190E6752676D4E90012BE
:1026F0006846904727E004212846FFF746FB10B3C1
:102700004FF484712846FFF735FBE0B12146284697
:10271000FFF72EFCE07D617E884214D1207E38B127
:10272000617EE268E0752069E0602676667607E003
:10273000A07E00B96F60C5F80883E675617EE26827
:102740002046FFF79CFC4FF48E7841462846FFF761
:1027500011FB88B1A08AA17D884204D22146284677
:10276000FFF7ACFE08E041462846FFF708FBA17DD5
:1027700011B12046FFF702FF4FF4A27841462846E8
:10278000FFF7F8FA002812D041462846FFF7F7FA7B
:10279000A07E00B12F60E07D002808D0E675617E44
:1027A000E26804B02046BDE8F047FFF768BCBDE82A
:1027B000FF872DE9FF410C464FF4927705463946D5
:1027C000FFF7E9FA0026C0B139462846FFF7E8FAD4
:1027D00002208DF80000D5F88004C5F8800403902D
:1027E000D5F83C058DF80800E0680190E67526767E
:1027F000D4E900126846904724E04FF488773946C0
:102800002846FFF7C8FAE8B139462846FFF7C8FA64
:10281000D5F83C05C1B2E07D884213D1207E60B17D
:10282000E268D5F8000220F02000C5F80002207E02
:10283000E0752069E060267601E0E675E2682046F2
:10284000FFF71DFC4FF4A27739462846FFF7A3FA9D
:1028500068B139462846FFF7A3FAE07D38B1E6753E
:10286000D5F83C05E268C1B22046FFF708FC4FF4FA
:10287000907631462846FFF78EFA00280FD0314671
:102880002846FFF78DFAA07D002808D0D5F84C0522
:1028900004B0C1B22046BDE8F041FFF76FBEBDE80D
:1028A000FF810870000A48700220704738B515494A
:1028B0004888A0F57F42FF3A23D04A78124C521C38
:1028C000D2B24A70237B93420AD3091D75DF0028D8
:1028D00017D0A169002914D001B0BDE830400847E5
:1028E00000254D70217C29B13B2176DF10B1A16913
:1028F00001B188476169002903D08DF8005068460E
:10290000884738BD6C210020182600200A4A10B5DF
:1029100053789478591CC9B28C4200D100211478A4
:102920008C4201D1002010BD0170506803EB4301BF
:1029300000EBC10010BD0000A42100202DE9FC41E6
:102940001646DDE90854CDE900541F4680460222B0
:1029500000F00CF8002807D1CDE900543B461022C6
:102960003146404600F002F8BDE8FC812DE9FC5FED
:102970000026DDE90C4B994692468E468046278814
:10298000354630E0D8F80400002200EB85006946A7
:102990000068019001A865DF002830D19DF8000093
:1029A00050451FD10EB1002100E0022122880844C9
:1029B0001118594522D846B9521C90B2208009F806
:1029C00000E02088401C20800126218801A801EB1E
:1029D0000902694665DF002811D120889DF80010A2
:1029E000084420806D1CB8F80000A842CADC56B12B
:1029F0002088C01B401E80B2FF2802D90C20BDE8F1
:102A0000FC9F09F807000020F9E70000010000071B
:102A1000080000000600000005000000070000009C
:102A20000000000000E0D701111213140D0E0F106A
:102A3000D8240020F8240020242500200D000300C5
:102A4000110902000E000300110902000F0003002B
:102A5000110902001000030011090200F8250020EE
:102A60009ECADC240EE5A9E093F3A3B50000406EF6
:102A700000000050C026002003000000FFFFFFFF01
:102A8000FFFFFFFFFFFFFFFFFFFFFFFF0000000052
:102A9000000000000000D60107010000BC2A02006F
:102AA00028210020B800000014FA0100742B020055
:102AB000E02100209825000024FA01000000FFFF1B
:102AC0000100020000000000000000000000000003
:102AD00000000000000000000000000000000000F6
:102AE00000000000000000000000000000000000E6
:102AF00000000000000000000000000000000000D6
:102B000000000000000000000000000000000000C5
:102B100000000000000000000000000000000000B5
:102B200000000000000000000000000000000000A5
:102B30000000000000000000000000000000000095
:102B40000000000000000000000000000000000085
:102B50000020004000000000000000000000000015
:102B60000000000000000000000000000000000065
:042B70000090D003FE
:040000050001F40101
:00000001FF
