:020000040001F9
:10F00000305C002015F401001DF401001FF4010024
:10F0100021F4010023F4010025F4010000000000A8
:10F0200000000000000000000000000027F40100C4
:10F0300029F40100000000002BF401002DF4010070
:10F04000B5F701002FF40100F5FA01002FF40100DB
:10F050002FF401002FF40100B1F501002FF401009D
:10F060002FF401002FF401002FF401002FF4010010
:10F070002FF401002FF401002FF401002FF4010000
:10F080002FF401000DF801002FF401002FF401000E
:10F0900031F801002FF4010035F801002FF40100D0
:10F0A0002FF401002FF401002FF401002FF40100D0
:10F0B0002FF401002FF40100000000000000000008
:10F0C0002FF401002FF401002FF401002FF40100B0
:10F0D0002FF401002FF401002FF4010000000000C4
:10F0E0000000000000000000000000000000000020
:10F0F0000000000000000000000000000000000010
:10F1000000000000000000000000000000000000FF
:10F1100000000000000000000000000000000000EF
:10F40000DFF80CD000F086F800480047B133020066
:10F41000305C00200648804706480047FEE7FEE7CC
:10F42000FEE7FEE7FEE7FEE7FEE7FEE7FEE7FEE7B4
:10F4300059F8010001F4010000487047FC7C02000B
:10F4400040EA01039B0703D009E008C9121F08C066
:10F45000042AFAD203E011F8013B00F8013B521EE6
:10F46000F9D27047D2B201E000F8012B491EFBD25D
:10F4700070470022F6E710B513460A4604461946BF
:10F48000FFF7F0FF204610BD421C10F8011B0029B9
:10F49000FBD1801A704730B504460020034600E0D7
:10F4A0005B1C934203D2E05CCD5C401BF8D030BDC6
:10F4B0002DE9F05F0546002092469B4688460646A9
:10F4C000814640241BE0284641464746224600F03C
:10F4D00042F853465A46C01A914110D31146184675
:10F4E000224600F029F82D1A67EB01084F46224604
:10F4F0000120002100F020F817EB00094E41201EEA
:10F50000A4F10104DFDC484631462A464346BDE803
:10F51000F09F0000064C074D06E0E06840F0010354
:10F5200094E8070098471034AC42F6D3FFF76CFF1D
:10F530003C8002005C800200202A04DB203A00FAB2
:10F5400002F1002070479140C2F1200320FA03F33A
:10F55000194390407047202A04DB203A21FA02F038
:10F560000021704721FA02F3D040C2F120029140FD
:10F5700008431946704730B58C1810F8012B12F06B
:10F580000F0301D110F8013B120906D110F8012B2D
:10F5900003E010F8015B01F8015B5B1EF9D101E0AB
:10F5A00001F8013B521EFBD1A142E6D3002030BD41
:10F5B0002DE9F04700268CB0DFF86091B0464FF49B
:10F5C0008075012437460696284604F0FDFB38B1C5
:10F5D000D9F80403204203D0284604F0EBFB26436D
:10F5E0002D1D64007F1CADB2082FEDD34FF4BE7407
:10F5F000204604F0E9FB48B1204604F0DBFB46F06E
:10F60000004606AA0121002004F0C0FB444D16F07C
:10F61000FF0F15D00127002437420DD009EB8401DC
:10F62000D1F81005D1F81015C0F3042055F82420A6
:10F63000C1F3014102B190477F00641C082CEBD359
:10F64000002E67DA4FF0FF30CDE9088000263446FF
:10F65000281910F8507F90F9000027F0C008401CCE
:10F6600044D009A9404603F097FF58B34FEA9719D1
:10F67000404601F091FE55F820701FB1B9F1030F1B
:10F6800003D00FE0B9F1030F30D108A84FEAD80238
:10F6900008F00703815C4FF0010C0CFA03FC41EA0F
:10F6A0000C0181544FF0A04101EB8800D0F8000715
:10F6B00006A9C0F3014A404603F06EFF18B1BAF143
:10F6C000020F03D012E0BAF1030F0FD1B9F1030F0B
:10F6D00008D1BAF1020F1BD00221404604F02BFBE7
:10F6E000761CF6B217B149464046B847641C042C54
:10F6F000AED3002E0ED06A460121002004F046FB56
:10F7000006990098884205D00690089809909DE7D0
:10F710000321E2E70CB0BDE8F08700000060004084
:10F72000EC34002000F01F020121914040098000CC
:10F7300000F1E020C0F88012704700F01F020121A4
:10F7400091404009800000F1E020C0F8801170472E
:10F7500000F01F02012191404009800000F1E020EB
:10F76000C0F80011704700F01F02012191404009CC
:10F77000800000F1E020C0F80011704700F01F0287
:10F78000012191404009800000F1E020C0F8001202
:10F7900070474907090E002806DA00F00F0000F153
:10F7A000E02080F8141D704700F1E02080F800147C
:10F7B000704700002DE9F0414FF48077384603F0A0
:10F7C00043FF0124104EA50748B1384603F043FF1C
:10F7D0000120C5F808037470002001F03FFE4FF4CB
:10F7E0008277384603F030FF00280BD0384603F00C
:10F7F00032FF0220C5F80803B470BDE8F0410120D3
:10F8000001F02CBEBDE8F081D8340020074800216B
:10F81000C0F84011C0F84411C0F84811C0F84C11AC
:10F82000C0F80011C0F8041107F07EBD00100140BF
:10F8300007F0F2BC074810B5406830B18047002897
:10F8400007D0BDE8104000F0BDBCBDE8104003F09B
:10F8500033BA10BD54280020F0B598480023021D8B
:10F8600001780125101D4FF08056062907D1147824
:10F87000240704D10478C4F30314032C02D006290E
:10F8800004D00FE08F4F8E4C7C670EE01478240775
:10F8900008D10478C4F30314032C06D0042C04D03C
:10F8A000052C02D0062907D00EE0D6F84442864F38
:10F8B000C4F342343C6002E01478240704D1047895
:10F8C000C4F30314032C02D0062906D011E07F4CA8
:10F8D000276827F0807727600EE01478240708D186
:10F8E0000478C4F30314032C06D0042C04D0052C94
:10F8F00002D006290AD011E04FF08044C4F80C3140
:10F90000C4F81031704C241F236002E014782407DF
:10F9100004D10478C4F30314032C02D0062905D0C3
:10F920000CE0694F032464373C600AE01478240734
:10F9300004D10478C4F30314032C02D006290DD09B
:10F9400014E0634F05243C60614C78342560604CC2
:10F95000083423603F243F1D3C6002E014782407F4
:10F9600004D10478C4F30314052C02D0062957D01F
:10F9700068E058490968584A11605649091D0968E4
:10F98000121D1160534908310968121D1160514957
:10F990000C310968121D11604E4910310968121DA1
:10F9A00011604C4914310968121D11604949183120
:10F9B0000968494A2032116046491C310968121D04
:10F9C0001160444920310968121D116041492431F8
:10F9D0000968121D11603F4928310968121D116024
:10F9E0003C492C310968121D11603A4930310968CF
:10F9F000394A40321160374934310968121D1160AB
:10FA0000344938310968121D116032493C310968A6
:10FA1000121D11602F4940310968121D116002E06A
:10FA2000117809070ED10078C0F30310032803D022
:10FA3000042801D0052805D1D6F85802274900F03E
:10FA40004F00086021487438016841F4700101607A
:10FA5000BFF34F8FBFF36F8F4FF01021D1F800022B
:10FA6000002803DBD1F80402002822DA1C4A1560C2
:10FA70001C480468002CFCD01524C1F8004205681D
:10FA8000002DFCD0C1F8044201680029FCD01360AD
:10FA900001680029FCD0BFF34F8F0C48F038016893
:10FAA000114A01F4E06111430160BFF34F8F00BFC1
:10FAB000FDE70F490D480860F0BD0000E00F00F0C1
:10FAC0000DF0ADBA00C007403C050040FCED00E081
:10FAD000105600400404001020C50040E40E004011
:10FAE00004E5014000E401400400FA050090D00361
:10FAF000682800200448017F04480029024901D0F9
:10FB000007F091BD07F000BD443500200020004003
:10FB10000FB41CB50246002007AC00290BD0491ECB
:10FB2000CDE90021054B6A462146069800F02AF8E7
:10FB3000009A002111701CBC5DF814FBE7FF010066
:10FB400002E008C8121F08C1002AFAD170477047A6
:10FB5000002001E001C1121F002AFBD17047000004
:10FB60000121202803DA81400548014003E04028B4
:10FB700002DA2038814009B1012070470020704727
:10FB8000FC06FFBC2DE9FF4F8DB00F460546002651
:10FB900006E025280BD0DDE90F1290476D1C761C7E
:10FBA00028780028F5D111B03046BDE8F08F002448
:10FBB000A246A1460122EC4900E0044315F8013FAA
:10FBC000203B02FA03F00842F7D128782A2810D007
:10FBD0006FF02F022878A0F13001092914D80AEB20
:10FBE0008A0102EB410144F0020400EB010A6D1CA2
:10FBF000F0E701CF5FEA000A03D544F40054CAF1EC
:10FC0000000A44F002046D1C28782E2817D115F83C
:10FC1000010F44F004042A280ED06FF02F02287838
:10FC2000A0F1300109290AD809EB890102EB410151
:10FC300000EB01096D1CF2E757F8049B6D1C287856
:10FC40006C280FD006DC4C2817D068280DD06A2805
:10FC500014D104E0742810D07A280FD10DE044F4B8
:10FC600000140AE044F4801401E044F4401469787C
:10FC7000814202D104F580146D1C6D1C2A786E2A15
:10FC80001FD00CDC632A31D004DC002A8BD0582A28
:10FC900011D1A3E0642A68D0692A0CD165E0732AE7
:10FCA0002ED004DC6F2A73D0702A04D19BE0752A11
:10FCB0006FD0782A6ED01046DDE90F129047761C7F
:10FCC00050E1C4F30250022806D0032809D00428CA
:10FCD00001CF09D0066045E101CFF117C0E900610D
:10FCE00040E101CF06803DE106703BE117F8040BCF
:10FCF0008DF8000000208DF80100EB46012003E0A4
:10FD000057F804BB4FF0FF3061074FF0000102D4F9
:10FD10000DE008F10101884649450FDA8045F8DB1E
:10FD20001BF808100029F4D108E008F10101884609
:10FD30008142FADB1BF808100029F6D1DDE90F2318
:10FD4000AAEB08008146214600F036F9304400EB6A
:10FD5000080604E0DDE90F121BF8010B9047B8F12B
:10FD60000108F7D221464846F7E00A21C4F30253BE
:10FD70004FF0000B0891022B04D001CFC117032BC9
:10FD800009D00AE0FF1D27F00707F7E8020108E0A5
:10FD900032E01FE020E000B2C117042B01D140B2D5
:10FDA000C117031E71F1000307DA4FF0000CD0EB0E
:10FDB0000C006CEB01012D2302E0230504D52B235D
:10FDC0008DF82430012303E0E30701D02023F7E777
:10FDD000984658E00A2110E010210EE010204FF064
:10FDE000000B08900CE010214FF0000B44F00404CD
:10FDF0004FF00809089103E008214FF0000B08912B
:10FE0000C4F30253022B04D001CF0021032B06D0F0
:10FE100006E0FF1D27F00707F7E8020103E080B2C4
:10FE2000042B00D1C0B24FF0000823072BD5702A55
:10FE300007D0DDF820C08CF0100C5CEA0B0C05D06C
:10FE40000EE040238DF82430012308E050EA01033E
:10FE500006D030238DF824308DF8252002239846D3
:10FE6000DDF820C08CF0080C5CEA0B0C0BD150EADA
:10FE7000010301D1630706D530238DF824304FF0FC
:10FE80000108A9F10109582A04D038A20B9208AA46
:10FE90000A920BE03AA2F9E75B46089AFFF708FBE3
:10FEA0000B9B9B5C0A9A521E0A92137050EA010245
:10FEB000F2D10A98ADEB000000F1200B600702D5EB
:10FEC00024F4803401E04FF00109D94502DDA9EBAB
:10FED0000B0000E0002000EB0B0141440890AAEB6E
:10FEE000010AE00306D4DDE90F232146504600F065
:10FEF00063F806444FF0000908E009A911F8090069
:10FF0000DDE90F12904709F10109761CC145F4DBC8
:10FF1000E0030CD5DDE90F232146504600F04CF8F4
:10FF2000064404E0DDE90F1230209047761C089962
:10FF3000481E08900029F5DC08E00A980A99007824
:10FF4000491C0A91DDE90F129047761CBBF10001B4
:10FF5000ABF1010BF1DC21465046DDE90F2300F047
:10FF600019F806446D1C1BE60928010030313233B4
:10FF700034353637383961626364656600000000E5
:10FF800030313233343536373839414243444546CF
:10FF9000000000002DE9F041044600251E461746EA
:10FFA000880404D405E039462020B0476D1C641E47
:10FFB000F9D52846BDE8F0812DE9F0410446002539
:10FFC0001E469046C80301D5302700E0202788044C
:10FFD00004D505E041463846B0476D1C641EF9D58E
:10FFE0002846BDE8F0814A68002A06D00A68531CFA
:10FFF0000B6010704868401E4860704710B560B1D3
:020000040002F8
:1000000059B102780B785208B2EB530F05D1062292
:10001000401C491CFFF73FFA08B1002010BD012029
:1000200010BD70B500238D880C680DE0E618E15C0A
:100030007678864206D1E018801C491E10609180B7
:10004000002070BD0B445B1C9D42EFD8052070BDA5
:1000500010B501220221002000F0B6FF08B10728E8
:1000600010D107220221012000F0AEFF08B10728BD
:1000700008D100210A22084600F0A6FF08B107288F
:1000800000D1002010BD70B58CB015460E4600237F
:100090006C46C3F10F01415CE1545B1C102BF8D39B
:1000A0000D2104F11000FFF7E4F90020C0F10F0268
:1000B000315C2244401C11740328F7D3684643DFA7
:1000C0000020C0F10F01214491F820102954401C58
:1000D0000328F6D30CB070BD022000F011BE000062
:1000E00070B50024064D06E06868012110F8340060
:1000F00003F06CFB641C28788442F5D3002070BDAB
:10010000F4270020F8B515460C460646052A01D20C
:100110000720F8BD03F040FC18B903F00FFC0028DD
:10012000F7D1104900204E600C70C1E902500E4D0D
:1001300008610DE006EBC4006968009181788DF8D4
:1001400001100078094A694603F092FB0028E0D1CB
:10015000641EE4B2EED2BDE8F840054A0021024830
:1001600000F03CB8F4270020187C0200DD240200D7
:10017000791602000BA1012004F036F803F08EFF7F
:1001800003F090FF0028FBD1BFF34F8F0B480168AD
:100190000B4A01F4E06111430160BFF34F8F00BFD0
:1001A000FDE700004150505F4552524F523A4552D0
:1001B000524F523A466174616C0D0A000CED00E03A
:1001C0000400FA050EB500210091CDE901106A4640
:1001D00044F20100FFF7CEFF0EBD0000074B5B6845
:1001E00023B12AB120B10068037C1BB108207047FD
:1001F0000720704741744261002070471828002092
:100200002DE9F047074698461446894690074FF077
:10021000000526D12CB306F0E7F9134E06F11000C5
:10022000C6F80C800570457080F8029044607560D7
:10023000357075701420FFF775FA07211420FFF749
:10024000A8FA1420FFF784FA084807600721112054
:10025000FFF79FFA0548001F0068B0600020BDE866
:10026000F0870720FBE70000082800200815014060
:100270002DE9FC47DFF87890D9F8043073B368B300
:10028000052902D20720BDE8FC87436933B3437CCC
:10029000012B25D0002704460025884616468DF8F8
:1002A0000050684600F038F801A807F041FAC8B1DC
:1002B000012101700F4944600968C0E90218C0E9D2
:1002C00004769DF8040089F801009DF8000000F014
:1002D00047F81420FFF752FA2846D4E70820D2E75F
:1002E0000F46D8E704259DF8000000F039F8F3E741
:1002F00018280020041501400649496839B130B179
:10030000416921B100210174022106F0E9BF0820F2
:10031000704700001828002030B5EFF3108172B646
:100320000D4A9468012324B10370002900D162B6FC
:1003300030BD93604FF0E023D3F88051074C254047
:100340001560C3F88041D3F8844154605A17C3F84C
:10035000842100220270E8E784350020FC06FFBCFF
:100360000B498A68002A11D000280FD1EFF31080C2
:1003700072B60B684FF0E022C2F800314B68C2F849
:10038000043100228A60002800D162B67047000064
:10039000843500202DE9F041064608680C46411CD2
:1003A0004FF0A0474FF0010506D005FA00F1C7F85D
:1003B0000815206803F0A4FC6068411C02D00021ED
:1003C00003F095FC3079204901EB4010A169007FD2
:1003D00000283068C0F8241525D0607D227D316862
:1003E0001043C1F86C05D4E900123068C0F80C1550
:1003F000C0F8142524E0A068411C02D0002103F0BD
:1004000076FCE068411C05D08540C7F80855E068D7
:1004100003F076FCD4E902123068C0F80825C0F871
:100420001015BDE8F081607D217D32680843C2F877
:100430006C05D4E900123068C0F81425C0F80C151A
:10044000207D0128D7D0ECE7443500202DE9F0438A
:10045000044687B0008800F04BFA8146208802F0FD
:1004600041FB214F8046667A208800223978A568B2
:1004700000F08CFAB9F1000F33D06079400711D544
:100480000721404604F030FFA0B108218DF80C1080
:1004900021880590ADF80E10ADF8108003A801F08A
:1004A00051FA07E02088B97800F05CFA10B14046B4
:1004B00002F004FB03208DF800002088ADF8020054
:1004C0006079C0F380008DF80400A079C0F380004B
:1004D0008DF805008DF806508DF80760684601F02C
:1004E00031FA07B0BDE8F083C827002070B5054693
:1004F00008780C4650B1012828D0022829D10A7961
:1005000014A1BDE87040032003F094BE6188221D51
:10051000284600F099F808B1FFF754FE60880021E2
:1005200005F0FEFA082802D008B1FFF74BFE284676
:1005300000F066F808B1FFF745FE284600F034F8F1
:10054000002806D0BDE87040FFF73CBE0A790BA139
:10055000D7E770BD4150503A494E464F3A42617418
:1005600074657279204C6576656C205265616420F3
:1005700061732025642025252E0D0A004150503A34
:10058000494E464F3A42617474657279204C6576E3
:10059000656C207265636569766564202564202535
:1005A000252E0D0A0000000070B518B30288A2F5D0
:1005B0007F41FF391CD0104C4388104D206800EB60
:1005C0008001401C00F00700206005EB8101022043
:1005D0004B81C881081D086100248C8101200872AC
:1005E00008714C710A80887006F0FAFE204670BDD2
:1005F000082070BD0E2070BDE42700209833002035
:1006000010B5D8B10188A1F57F42FF3A14D00C4B48
:100610000C4C1A6802EB8201521C02F0070204EB38
:1006200081011A6082888A80008808800020887092
:1006300006F0D6FE002010BD082010BD0E2010BD13
:10064000E42700209833002030B1018012B11168F6
:10065000C0F80210002070470E20704708B598B10E
:1006600091B101228DF8022041F60F02ADF8002071
:100670004FF6FF720280002242808280096881600A
:10068000684600F099F908BD0E2008BD1CB5002889
:1006900020D000291ED00A88112A39D0362A1FD02E
:1006A000382A18D0392A15D103888A88934211D163
:1006B0004B898488A3420DD1CB89012B0AD1ADF897
:1006C000022001228DF80020097C8DF80410826838
:1006D000694690471CBD008889888842FAD113E09A
:1006E00003888A889342F5D131F80A3F8488A3426F
:1006F0000AD1ADF8022002228DF8002089798DF808
:100700000410826869469047BDE81C4006F068BE48
:10071000028889888A42DDD14FF6FF71018000216D
:10072000418081801CBD00007CB50A78002A38D148
:100730008A88A2F5C0530F3B33D18A79012A30D180
:1007400000228DF800204A88ADF80220002242F6EF
:1007500019240B7A14E000BF02EBC20501EB45053A
:10076000ED89A5420AD102EBC20201EB42010A8BDC
:10077000ADF80420C98AADF8061003E0521CD2B2CD
:100780009342E9D80188A1F57F42FF3A06D041881B
:1007900021B9818811B90199C0F8021082686946AF
:1007A00090477CBD02490A7D091D06F045B800004E
:1007B000982C002002460248C17D001D06F029B891
:1007C000982C002002460248017E001D06F021B848
:1007D000982C00200249887D497D084006F051B8D8
:1007E000982C00202DE9F047044603883F48012259
:1007F0008CB000F1150A102B09D0112B55D01A2BF3
:1008000071D1217AB2EB111F54D2012353E0027D42
:10081000417D05468A43011D06A806F00DF8142205
:1008200006A901A8FEF70CFEDFF8C09000263746A7
:1008300009F114090DF104080AE000BF08EB4600B5
:100840001D2283884946281D009705F0A7FF761CC6
:100850000198B042F2D8287DA688C043C0B205F006
:10086000BFFFA0F57F41FF3917D005EB4000012302
:10087000868032465146281D06F012F80123324682
:100880004946281D06F00CF8E07B02280BD0002317
:100890001649A2881631281D20E00CB00420BDE8BE
:1008A000F047FFF78FBC0123F2E70023A2885146EF
:1008B000001D13E000230D490546A2881731001DD5
:1008C00005F0EEFF207A0221B1EB101F01D20123C7
:1008D00000E000230549A2881831281D0CB0BDE8AE
:1008E000F04705F0DDBF0CB0BDE8F087982C002084
:1008F00070B50A4E05460024317D2A46301D05F0AC
:1009000088FF40B1B17D2A46301D05F082FF08B155
:10091000022400E00124204670BD0000982C002035
:1009200010B50024204606F0F7FE28B1641CE4B29E
:10093000182CF7D3182010BD03480122A2400168EB
:1009400011430160204610BD982C002010B50446CC
:1009500006F0E2FE002802D001482044407E10BD8F
:10096000982C002070B505460C46084606F0D4FECB
:10097000002808D004482A460119001D497EBDE818
:10098000704005F046BF70BD982C002070B506463B
:1009900015460C46084606F0BFFE002809D005485B
:1009A0002B4601193246BDE87040001D193105F093
:1009B00077BF70BD982C002070B540B10C4D2978E0
:1009C00039B1044605F0ECFD28B1002070BD0E20C1
:1009D00070BD082070BDE868062807D20549226866
:1009E00001EB8001401C0A60E860EEE7042070BD66
:1009F00078270020CC2C002040B10549002201239B
:100A0000CA600B70C1E90102104670470E207047A2
:100A10007827002000281FD000291DD00F4A127807
:100A2000002A19D00A88112A0ED0302A06D0322A7C
:100A300007D0332A10D1091D03F064BF091D04F04B
:100A400099B8091D03F05EBE8988B0F85E22914214
:100A500002D1002180F85B12704700007827002047
:100A600070B50D46040009D01549087840B1C86832
:100A700030B194F85B0228B1112070BD0E2070BD1A
:100A8000082070BDA4F85E520020886084F85C02E3
:100A900084F85A0284F859020A482B460A49006829
:100AA00020602288032003F0F1FB22460121284622
:100AB00094DF0028E5D1012084F85B02002070BD9E
:100AC00078270020CC2C0020F87D020010B50446C9
:100AD000FFF788FE204605F09DF921460C48FFF7F8
:100AE00099FF21460B4800F041F80A48214614308E
:100AF000FFF7CCFD204600F08BF906482146203058
:100B000002F06AFD2046BDE8104003F067BC00001B
:100B10009C290020FC2B002030B1018012B111680B
:100B2000C0F80210002070470E20704720B14188A5
:100B30000088012200F0D0BB0E20704708B598B1A4
:100B400091B101228DF802204AF6CD32ADF8002095
:100B5000096881604FF6FF7101800021418081802A
:100B60006846FFF729FF08BD0E2008BD00281AD0EF
:100B7000002918D00A88112A0BD0382A03D0392A24
:100B800011D103F093BF0088898888420BD106F009
:100B90004BBC028889888A4205D14FF6FF710180DB
:100BA000002141808180704730B50446087891B0BB
:100BB00000283AD18888A0F52B42CD3A35D18879E2
:100BC000012832D18DF800004888ADF802000020DD
:100BD00042F637230A7A12E000EBC00501EB450527
:100BE000ED899D420AD100EBC00001EB4000018B72
:100BF000ADF80410C08AADF8060002E0401C824245
:100C0000EAD80BA1032003F0EFFA2088A0F57F417A
:100C1000FF3906D0608820B9A08810B90198C4F8BF
:100C20000200A26869462046904711B030BD00001E
:100C3000424C455F4852535F433A494E464F3A480B
:100C400065617274205261746520536572766963C0
:100C50006520646973636F766572656420617420D2
:100C6000706565722E0D0A0000B5164889B0002324
:100C700000680790D822144907A806F075FA08B151
:100C8000FFF7A0FA6A460021012006F057FA08B1E2
:100C9000FFF798FA9E20ADF81000684606F0FEF9BE
:100CA00008B1FFF78FFA094806F0EEF908B1FFF72F
:100CB00089FA074806F090FA002801D0FFF782FA77
:100CC00009B000BD2C7B02007C280020CD0A020068
:100CD000ED7102000149085C70470000647B02006E
:100CE0000649095C4FF0A040D0F81005C84010F04C
:100CF000010000D0012080F001007047647B0200F9
:100D000007490B5C4FF0A041D1F804250120984021
:100D100020EA0203C1F808351040C1F80C057047FD
:100D2000607B02000249085C012103F023B8000047
:100D3000607B02000249085C002103F01BB8000040
:100D4000607B02000649095C4FF0A040D0F8040522
:100D5000C84010F0010000D0012080F00100704771
:100D6000607B02007CB50024084E25460122305DE0
:100D7000009500231146019502F07AFF641C042CB3
:100D8000F4D3BDE87C4000F003B80000607B0200B3
:100D900010B500242046FFF7C5FF641C042CF9D3CE
:100DA00010BD10B500242046FFF7C4FF641C042CBE
:100DB000F9D310BD10B50246064B4FF0FF300021AD
:100DC0005C5C944201D1084610BD491C0429F7D34C
:100DD00010BD0000647B020070B50C4E0C004FF09B
:100DE000000530600BD0012000F0A4F808B102200B
:100DF00004E0002000F09EF800B10B202070706825
:100E000010B9FFF725F90546284670BD7027002068
:100E100010B51A4C0188606810290ED011292BD109
:100E2000401E606028D1FFF713F9002824D0216804
:100E3000002921D0BDE810400847D0B90021012287
:100E4000084600F0C1F808B107280FD10722022197
:100E5000012000F0B9F808B1072807D104220221C7
:100E6000002000F0B1F820B1072802D0216801B1BC
:100E700088476068401C606010BD0000702700203B
:100E800010B5002000F0D4F908B1062806D10120E1
:100E900000F0CEF908B1062800D1002010BD0000F6
:100EA0002DE9F0470D468146FFF784FF04460428EC
:100EB00038D2DFF878801C481D4EA8F1100735B3F2
:100EC000012D0ED0022D2DD104EB44003044457885
:100ED000002D27D0F968002924D02846BDE8F04726
:100EE000084704EB4401755C0E44717859B1796888
:100EF0000E4A01EB810149000E3A8068FFF7B8F90C
:100F000008B987F80290B17808F80410E0E7806823
:100F1000FFF7F2F904EB4401314418F804008D782E
:100F2000A842D5D0BDE8F087687B02006C2700207E
:100F30006C2C0020FFF7D4BE10B5174C042810D03D
:100F4000072819D00A2825D1002000F05FF808B141
:100F5000FFF738F9FFF794FF08B1FFF733F932DFF5
:100F600004E01321208976DF082813D0002811D04F
:100F7000BDE81040FFF726B9A07800280AD107A1E4
:100F8000032003F031F90120A0708BDFBDE8104091
:100F900005F06EBB10BD0000482700204150503ABC
:100FA000494E464F3A57686974656C69737420748A
:100FB000656D706F726172696C79206469736162CA
:100FC0006C65642E0D0A000070B50023042810D251
:100FD0000D4D00EB4004012A02D101290CD0002262
:100FE000094E00EB4000304461B1012906D00229CE
:100FF00006D00723184670BD0E30C2B22A55F9E755
:101000004270F7E78270F5E76C2C0020044A014635
:101010000020127AD20702D0084600F04FB870477D
:101020005C2700202DE9F04106461F4800240F46AA
:101030004160C0E90262B0071FD5002501221146B8
:101040002846FFF7C1FF6D1C0446042D02D2002C78
:10105000F4D012E08CB97A0804211448FFF752F852
:1010600004000AD1FFF73CF8040006D10F48104AEB
:101070000021001FFFF7B2F80446F00701D0FFF788
:1010800071FE74B909480B4A00210C38FFF7A6F825
:10109000040006D10548084A01210838FFF79EF8E8
:1010A00004462046BDE8F0815C270020747B0200E6
:1010B000D1120200152E0200D90002002DE9F047DE
:1010C000594C05460026607818B100206070FFF783
:1010D0005FFE0120554F4FF47A694FF4C87A4FF004
:1010E0006408182D2CD2DFE805F0890C0C2C3A4747
:1010F00051565A615A619B6969696969898C8F92F5
:101100009B9B0020FFF71EFE00284FF0000008D038
:10111000FFF708FE022D02D14FF4E16006E04846D9
:1011200004E0FFF707FE022D2ED05046B0FBF8F189
:1011300025706068414300223868FFF799F8064639
:1011400059E00020FFF7FEFD28B10020FFF7EAFD7F
:101150004FF44870EAE70020FFF7ECFD14E00020B0
:10116000FFF7F0FD00284FF0000002D0FFF7DAFD96
:10117000D5E7FFF7DFFDD8E70020FFF7E3FD002804
:10118000E9D00020FFF7CEFDC820CFE70020FFF711
:10119000B7FD257007E000203FE025702BE0607070
:1011A0000120FFF7ADFD00226168C5E760700120F6
:1011B000FFF7A6FD606800EB8001BCE77868FFF7E9
:1011C0009BF80646D5F1110000D01EB10220FFF7B2
:1011D000A9FD10E001280BD9C82110FB01F1B1FBDA
:1011E000F8F16068002241437868FFF741F806464D
:1011F0000220FFF79FFD3046BDE8F087FFF7C8FDEE
:10120000CBE7FFF7C5FDC6E7FFF7C2FD04E0FFF738
:10121000BFFD0020FFF78EFD0120FFF78BFDBCE72F
:10122000FFF7BFFDB9E700005C270020687B0200E4
:1012300010B5FFF74FFD032102F06CFD002010BD3B
:10124000002901DA00207047026811440160012082
:1012500070470000F8B5461C00208DF800000D46D0
:1012600001246846FFF758F8114A10682860D2E94F
:1012700000109568081A2B1A701C5B1C98420FD935
:1012800063B10C480C4B294000681B6802EB8101DC
:1012900063F39F20C8601068401C1060002401E0C8
:1012A000881910609DF80000FFF75AF82046F8BD35
:1012B00014380020547C020050280020034803C842
:1012C000814201D10120704700207047143800206E
:1012D00000780221FFF7E4BD70B514460D460646BE
:1012E00003460A461049032002F0D0FF0F49104B75
:1012F000086800EB8002401C00F00700086003EB68
:10130000820202205581D081101D10610020908141
:10131000012010721471210A51711680907006F02C
:1013200083F8002070BD0000A07F0200EC270020A1
:101330003834002005494FF0FF32082841F82020BA
:1013400002D3084480F8482070470000EC340020A5
:10135000F0B54FF0FF3512B10023082601E0082355
:101360000C260C4C05E000BF54F823707F1C04D001
:101370005B1CB342F8D32846F0BD26185DB286F850
:10138000305044F82310002AF5D1E11881F84800C4
:10139000F1E70000EC3400200249084490F93000E5
:1013A00070470000EC34002008B5024690F85A025D
:1013B0000B4600EBC00101EB001002EB800092F83D
:1013C000592242B1521ED2B202EBC20100EB4102DD
:1013D000518A491C00E0C188ADF800100089ADF8C1
:1013E00002006946184696DF08BD000038B105497D
:1013F000814204D80449814201D90120704700206C
:10140000704700006C2800207C280020044A0168F6
:10141000914201D0083101E001493839016070473B
:101420006C36002070B504464FF6FF750A46284614
:10143000AC4208D14FF480742146104604F09CFC65
:10144000A04209D070BDFF2CFCD82146104604F004
:1014500086FC08B1204670BD284670BD70B5084CAA
:10146000050009D010342168002907D008682060E1
:10147000496828468847F6E70834F4E770BD00005D
:10148000D83400202DE9F05F26484168F1B3DFF839
:1014900098B00E688146DBF8004087688078E11BD1
:1014A00021F07F45ED1CB0B9DFF880804FF480302B
:1014B000C8F84403C8F804031120FEF733F91120DB
:1014C000FEF746F94FF0010AC8F800A02F2002F0FD
:1014D000CBF889F802A0B54200D23546124BE81984
:1014E0003C3320F07F401860DBF800105A46091B9F
:1014F00021F07F41001B20F07F40C91C81420FD9A1
:10150000106818602F2002F0AFF800E004E0BDE89A
:10151000F05F1120FEF732B9BDE8F05F05F064B866
:10152000BDE8F09F0828002004150140001001408C
:1015300010B5044601460548FFF736FB214603482F
:10154000BDE810401430FFF7EFB80000FC2B00207E
:101550002DE9FF410C4618B1012004B0BDE8F0812F
:1015600020790027DFF87C80012638B141F61D552F
:1015700001281ED0022829D00F20EEE702970397FA
:10158000E0680190694601A804F04CFF68B1029838
:101590008188E18000882081029804F0B7FFBDF8BF
:1015A000002008EB02118E7300E00A200221217155
:1015B000D3E70D4B6A460021A01D04F0EFFE38B1C1
:1015C000094908398F60CF600A28C6D12846C4E788
:1015D000019804F09BFF04498A8808EB02118E737E
:1015E000F2E700007C360020302800202DE9F84387
:1015F000054690F85A020F4600EBC00101EB0010BF
:1016000005EB800695F85942914604EBC40006EBC1
:1016100040013279601C0A31904226D16B4600228B
:10162000284601F0C1FB18B310E0401EA04201D1D2
:10163000002004E004EBC40006EB40001C308046B0
:1016400002466B46284601F0AFFB30B100203870EF
:101650006946484697DFBDE8F88395F85902414648
:10166000401C641C85F85902E4B23079A042DCD8F1
:10167000012038700020EEE72DE9F0410026012519
:10168000144C22E06068226900EBC607387805FA3E
:1016900000F1114217D08A43226102F045F9024657
:1016A0003878E36805FA00F1194002FA00F399422C
:1016B00009D17978012901D0012100E000215140B0
:1016C0007A6802B19047761CF6B220788642D9D368
:1016D000BDE8F081F42700202DE9F047894690F815
:1016E0005A12904601EBC10202EB011100EB810797
:1016F000384604F055FF060041D0224CA068062869
:101700003DD200EBC000204D00EB400005EB800017
:101710006422A0F802803946001DFDF791FE0027E3
:10172000B9F1000F07D0A06800EBC00000EB40004B
:1017300005F8207007E0A168022001EBC10101EB70
:10174000410105F82100A06800EBC00101EB410157
:1017500005EB8101401C8E66A060E16888420ED1D5
:10176000002608E006EBC60000EB400005EB800019
:10177000816E8847761CE0688642F3D3A760BDE897
:10178000F087000078270020E42C002030B50D46BB
:1017900090F85A12144601EBC10202EB01119BB002
:1017A00000EB810004F0FCFE030007D0ADF802401E
:1017B00001208DF800006846019598471BB030BDA8
:1017C0000E4910B50A784C780023A24212D0521C60
:1017D000D2B20A70022A00D10B70084A0B78183274
:1017E00052F8232002608868104420F07F4088600F
:1017F000012010BD0360002010BD0000082800205B
:101800003EB5094D38CD8DE83800ADF804100749D4
:101810008DF80620ADF8020000220978FFF7B6F82F
:10182000684600F08FF83EBD047C0200C827002007
:1018300010B503780022072B06D2DFE803F0050479
:10184000060C1C252B000A7010BD01220A700289AB
:101850008A81828814E002220A7002898A81828841
:10186000CA81C2688A60007C062802D00020087401
:1018700010BD0120FBE703220A70C2888A81028919
:10188000CA81C068886010BD04230B70C08888813D
:10189000CA8110BD0520087010BD000070B5064D4E
:1018A0000646002455F8241009B130468847641CC8
:1018B000082CF7D370BD00009C3500200EB5002920
:1018C00011D011290FD0002200920292ADF802002F
:1018D00001910D2908D0862908D009208DF8000033
:1018E000684600F03DF80EBD0B20F7E70A20F5E74B
:1018F00001490968084700009027002070B5054D90
:1019000006460024304655F824108847641C022CF3
:10191000F8D370BDAC7B02002DE9F04107460024EE
:10192000064E074D05E000BF56F82410384688479C
:10193000641CE8788442F7DBBDE8F0814C3300207A
:10194000B827002070B5054D06460024304655F8EE
:1019500024108847641C022CF8D370BDCC7B020095
:101960000149096808470000107C02007FB5044661
:10197000406858B10020039020780026384D062892
:101980005DD2DFE800F05C05052641690120F2E741
:10199000A08900F0B3F918B9E08904F0C9FD80B35B
:1019A000A089A0F54040ADF80200A07B8DF80400AE
:1019B00020780128606806D048B104208DF8000026
:1019C000606803901AE00028F8D00320F6E70120B1
:1019D000F4E7A08900F092F918B9E08904F0A8FDB5
:1019E00078B1A089A0F54040ADF80200A07B8DF849
:1019F0000400606830B105208DF80000A0680290F6
:101A00001AE01CE00220F7E7A08900F077F9B0B1F6
:101A1000E089A0B9A089FF21A0F5404080B2ADF8CF
:101A200002008DF80410616881B107208DF8000074
:101A30006E70AE7003F016FE684603F0EBFC68783B
:101A4000002802D06E7003F00DFE7FBD06218DF8D8
:101A5000001003F095FEEBE708208DF80000EBE79F
:101A6000A427002000B5114987B00978890702D45E
:101A7000022007B000BDA0F57F41FF3911D005213C
:101A80008DF8001001218DF80410ADF80600002239
:101A90001146684603F026F928B104F059FC0020ED
:101AA000E7E70420E5E70820E3E700002828002016
:101AB00000B50E4887B00078800702D4022007B036
:101AC00000BD06208DF8000000221146684603F094
:101AD00009F940B10648017809B10121017304F008
:101AE00037FC0020EBE70820E9E700002828002069
:101AF0009C36002000B58DB014216846FDF7B9FC76
:101B00001E480078810703D56846FFF7C7FE33E01B
:101B1000C00731D1012000F015F900F085F903F07C
:101B20007DF970B106280FD001218DF814100C2812
:101B30001BD2DFE800F01A101A101A181A181A121D
:101B400016120B200DB000BD022000F0FBF80120A2
:101B500000F0DEF8D8E7002000E003208DF8180040
:101B600003E00220FAE78DF818100022114605A8BC
:101B700003F0B8F804F0ECFB0020E3E7282800208D
:101B800038B5040011D0694604F04CFC88B10A480D
:101B9000BDF8001000EB0110818941B1A27A32B189
:101BA000491E81810020A07238BD052038BD062065
:101BB00038BD0A2038BD00007C3600201FB501A9C1
:101BC000684604F0EBFB04B010BD07B513460A46A7
:101BD0006946002004F0E2FB0EBD07B513460A4635
:101BE0000021684604F0DAFB0EBD20B119B100688F
:101BF00008600020704705207047000038B50D468A
:101C0000040015D0A5B1694604F00CFC90B10A4956
:101C1000BDF80020606801EB02129189491C918196
:101C2000286060680C3068600120A072002038BD18
:101C3000052038BD0A2038BD7C36002018B10323AA
:101C4000002205F019BE052070470223002205F08E
:101C500013BE12B1022305F00FBE0520704700002D
:101C6000064A5178082906D0054B43F82100491C43
:101C70005170002070470C20704700002828002079
:101C80009C35002038B504460A480D460078800788
:101C900001D4022038BD54B16946284605F0FCFE47
:101CA0000028F7D1BDF800102180658038BD0520DF
:101CB00038BD00002828002010B504460D480078E3
:101CC000800701D4022010BD84B1218802290FD8D9
:101CD000094800EB011042896088121A032A07D4D0
:101CE00005F0D0FE00202080608010BD052010BDD2
:101CF000042010BD282800207C36002043F6FE7109
:101D0000A0F54040884201D801207047002070476C
:101D100002490A7882430A70704700002828002090
:101D200010B504460078182802D1FEF7F9FD20709E
:101D300010BD10B504460078182802D1FEF7F0FD5A
:101D4000207010BD02490A7802430A7070470000F3
:101D50002828002070B5134600220646154686291D
:101D600005D0112901D019B170BD012500E0012273
:101D70000D4C73B16179FEF709FE2A462179304690
:101D8000FEF704FE002261783046FEF7FFFD0022D8
:101D900003E06178FEF7FAFD2A4621783046BDE877
:101DA0007040FEF7F3BD0000CC270020F8B50646D2
:101DB0001A481F46154600780C46C00708D0304622
:101DC000FFF714FB30B13CB1200507D00620F8BD69
:101DD0000120F8BD0220F8BD0320F8BD3068A04204
:101DE00004D8716804EB0530884201D90520F8BD9C
:101DF0007DB1684604F0FAF968B100980221C0E9A3
:101E000000670172210B8181058204F0B1FA002084
:101E1000F8BD0420F8BD0720F8BD000040280020D0
:101E2000084604F0FFB900002DE9F0472748284C88
:101E30004FF01021001B0209496910464B1C03D1C9
:101E40004FF0805149690903DFF888A09AF80070C3
:101E5000FB0702D00020BDE8F0870023A14607E081
:101E600009EB0314256815B1646804B1401E5B1CBE
:101E70009342F5D3002422E0002504F0FF0C2B460A
:101E800013E000BF09EB0316D6F80080B8F1000F8D
:101E900004D0D6F80480B8F1000F05D1767BAE42AD
:101EA00002D9354603F0FF0C5B1C9342EAD309EBE1
:101EB0000C13641C59601D7BA1EB05311960844231
:101EC000DAD347F001018AF80010C3E77C2800202C
:101ED0006C2800204028002020B10349496E016091
:101EE0000020704703207047AC3600202DE9F843EE
:101EF00007461D48DDF820801E46007815460C4632
:101F0000C0070CD03846FFF771FA50B15DB154B13B
:101F100045EA0400800708D00620BDE8F8830120C8
:101F2000FBE70220F9E70320F7E73868A04204D86E
:101F3000786804EB8601884201D20520EDE77EB186
:101F4000684604F053F968B100980121C0E90078AF
:101F50000172C0E90354868204F00AFA0020DCE72B
:101F60000420DAE70720D8E74028002070B5174A98
:101F700017490446106E0B7800EB400002EBC000DE
:101F80009D0715D5022C02D0032C1BD102E002F0D4
:101F9000C7FD17E04A78521CD2B24A70032A11D901
:101FA00000224A70082104F051FD04F009F909E00B
:101FB000580707D523F004000870526E12B140F0A4
:101FC00002000870BDE8704004F08AB9AC36002009
:101FD0004028002010B54B880A880CA1032002F08D
:101FE00055F9164C207900280FD000202071E18887
:101FF0001348FEF735FD112805D0002805D0BDE8AF
:102000001040FEF7DFB80120207110BD4150503A5A
:10201000494E464F3A47415454204D5455206F6E17
:10202000206C696E6B202564206368616E6765644F
:1020300020746F2025640D0A00000000482700204E
:102040009C29002010B50549054801F0ADFA00288B
:1020500003D0BDE81040FEF7B5B810BDD51F020093
:102060001C2C002070B508B1012070BD184C002553
:10207000207B08B1257301E000F0A2F82078082841
:1020800024D2DFE800F02304080C1023141EBDE85E
:10209000704000F01FB8BDE8704000F07FB8BDE8A8
:1020A000704000F061B8BDE8704000F037B80849F2
:1020B0006088203901EB00104068BDE8704002F0F4
:1020C0008DBE6560BDE8704002F096BE0F2070BD09
:1020D0009C3600201049F0B48A1C00200346A1F170
:1020E00020050C18A67A3EB1A37205EB0014A68950
:1020F00016B9A47B012C0AD0401C80B20228F0D370
:102100000B704B804B60F0BC41F61D507047108047
:10211000F0BC00F043B800009C36002010B50F4C16
:10212000A4F12001608801EB0010818961B10520D4
:1021300020700B480221002381800168BDE8104017
:1021400001220848FFF732BE4168002301220548FA
:10215000FFF72CFE0421217010BD00009C360020EA
:10216000382800206C28002038B50A490848032484
:102170000B684268898803EB810153880470002052
:10218000DB1C00909BB20448FFF7B0FE38BD000096
:102190009C360020382800206C280020074910B504
:1021A0004888091D04F08CF918B1BDE81040FFF70C
:1021B000DBBFBDE81040FFF7B1BF00009C36002038
:1021C000F0B51D481D490125067802248B88A0F131
:1021D0002002082E18D2DFE806F00417171A212C67
:1021E0002C160189491C01810021418080F80C10C6
:1021F00002EB01131B7843B100234418491C89B238
:10220000A3720229F4D30570F0BD0123F5E74268FB
:102210005288D21C1A448A800470F0BD46880D682A
:1022200002EB061256680E60556013818C80062101
:1022300000E007210170F0BD9C3600203828002006
:10224000F0B504460088384D8DB050281ED0522875
:1022500002D0542828D103E0A08801F019F823E027
:1022600006208DF81400A08800F03CFCADF81600A4
:10227000A188ADF8181000F05DF9A0880022E97877
:10228000FEF784FB05A8FFF733FB0DE0207B012858
:102290000AD1A07A012807D12089A0F5245102395A
:1022A00002D1A08801F02EF8A878FEF74FFBC8B144
:1022B00008A8FEF777FA142208A96846FDF7C0F8C7
:1022C00000246E460BE000BF06EB4407A978B888EF
:1022D000FEF748FB10B1B88800F0DAFF641C0098E4
:1022E000A042F1D86878FEF731FBC8B108A8FEF724
:1022F00059FA142208A96846FDF7A2F800246E4690
:102300000BE000BF06EB44076978B888FEF72AFBAC
:1023100010B1B88800F0F6FF641C0098A042F1D814
:1023200004F0D6FB0DB0F0BD882700203EB5044672
:102330004088ADF802002078A8B101281FD00228FB
:1023400010D1207900280DD0608800F0B7FAA0F5F0
:102350007F41FF3906D00F490122C978FEF716FBED
:1023600004F0B6FB3EBD00208DF800006846FFF784
:10237000BFFA608800F0A2FA00F08AFF3EBD01209B
:102380008DF80000A088ADF804006846FFF7B0FAA9
:102390003EBD00008827002010B5044600780128C3
:1023A0000FD1608800F074FF608800F089F9002880
:1023B00007D0044960880122C978BDE81040FEF7C3
:1023C000E5BA10BD8827002010B5104C0020207001
:1023D000FEF7A6FA6070FEF7A3FAA070FEF7A0FA67
:1023E000E070FEF79DFA2071617818290BD0A17872
:1023F000182908D0E178182905D0182803D0012021
:102400002070002010BD032010BD00008827002090
:102410002DE9F04186B000F0A5F86846FEF7C2F954
:1024200000246D464FF6FF77DFF834800FE000BFE1
:1024300005EB4406B08800F055FBB84205D1B088E2
:10244000012298F80310FEF7A1FA641CA4B20098C8
:10245000A042EDD804F03CFB06B0BDE8F0810000DE
:10246000882700200178072902D1408800F04ABF60
:102470007047000010B504460A4841782046FEF730
:1024800071FA68B10848002101EB410200EB8202B9
:102490005288A24201D1C8B210BD491C0829F3D309
:1024A000FF2010BDA02700206C2F002070B5094D23
:1024B000094E002404EB440005EB8000717840884D
:1024C000FEF750FA20B1641C082CF3D3FF2070BD36
:1024D000E0B270BD6C2F0020A02700202DE9F04154
:1024E000124E07460125BD403068FDF705FF002864
:1024F0000DD10F4C2069284207D1384601F014FA5B
:102500000028E06805D0284304E0A8432061BDE826
:10251000F081A843E060206928432061A168306809
:10252000BDE8F0410022FDF7A3BE0000187C0200C8
:10253000F42700201CB5054AD2E90212CDE90012A9
:102540000022694602F033FE1CBD0000987B0200A9
:1025500003484FF6FF718180012101700020704710
:102560009427002010B54FF6FF7002F05FFD03497D
:102570008880BDE8104004F0D7BA000094270020FE
:102580002DE9FC41804600F0ADFA00240325012727
:10259000A0F57F412646FF3908D06A46082102F09F
:1025A000E1FD18B90198841D8688056832462B46DE
:1025B00021464046A9DF042804D0082804D00B286F
:1025C00008D002E0112000E00020002F00D10B20F5
:1025D000BDE8FC810027A80701D50125E6E73443C3
:1025E000F5D0002426460325E0E72DE9FC4180468E
:1025F00000F078FA0746A0F57F40FF380ED001259D
:102600002A466D1C0026ADB26B460821384602F002
:10261000D3FD040006D0072C24D024E043F20200AE
:10262000BDE8FC81019903230A1D0B604046891D0A
:10263000AADF040004D00C2C08D0052C08D008E038
:102640000821384602F050FE04460CE0012600E066
:1026500000240821384602F033FE00B10324002E86
:10266000CED100E00C242046DAE700001FB5044676
:102670000078012815D12079012812D1608802AA9A
:10268000012102F06FFD60B902208DF80000608822
:10269000ADF80200094901208DF804000968684678
:1026A0008847064808388088A0F57F41FF3903D065
:1026B000BDE81F4004F038BA1FBD00009C27002071
:1026C0001CB500F00FFA6A46012102F04BFD08B17B
:1026D00000201CBD019800781CBD00002DE9F041D0
:1026E000084C07464FF6FF7643F2030532466188F1
:1026F0003846A7DFA84203D16088401C6080F5E718
:10270000BDE8F081942700208188A1F57F42FF3A3F
:1027100003D0008808B101207047002070470000F6
:102720003EB5054608780C46012813D0022810D182
:10273000142001F011FB154A07CA8DE80700144860
:102740008189ADF80210008869469CDF0C2001F0F9
:1027500089F93EBD6188221D2846FEF7DDF908B1E2
:10276000FDF730FD6088002103F0DAF9082802D077
:1027700008B1FDF727FD2846FEF7D8F908B1FDF7A7
:1027800021FDBDE83E40132001F0E6BA547B020073
:10279000FC2B00203EB5027802230C46B3EB520F0F
:1027A00017D1B0F80110ADF80010C1788DF8021003
:1027B0008188ADF8041080798DF8060002AA01A97D
:1027C0002046FDF760FC032202A96846FCF763FE81
:1027D00008B100203EBD01203EBD000010B50C46F2
:1027E000FFF748FEFF280CD0074900EB400001EB43
:1027F0008000416821600189A180807AA071002059
:1028000010BD052010BD00006C2F002070B50188A0
:1028100090B010294FD1011D34226846FCF710FEFC
:102820009DF804004FF6FF76032134466D46B1EB68
:10283000500F2AD002F056FE9DF8040040080ED03A
:1028400001280CD0022820D118E00F99281D113141
:10285000FDF7D4FB18B100BFBDF8344015E00EAA57
:102860000DA9072002F016FE0028EED10DE00F9909
:10287000281D491CFFF78EFF0028EDD10EAA0DA9D7
:10288000072002F007FE0028F1D1BDF80000291D45
:1028900000F03EFEB4420ED0BDF80000214600F02C
:1028A000D2F8BDF80000ADF8360001208DF83400F4
:1028B0000DA8FFF723F810B070BD0000094A0021F1
:1028C00001EB410332F82330834205D101EB410093
:1028D00002EB800040887047491C0829F0D34FF66E
:1028E000FF7070476C2F00202DE9F041CEB00D46EF
:1028F000070019D0C5B10DF1B8085020CDE94B80C3
:10290000B8216846FCF7B5FD002042A94FEA0D0644
:10291000C0EBC00202EB0012324441F82020401C00
:102920000828F5D300242BE00022114610466FDF63
:102930004EB0BDE8F08150212EA8FCF79AFD37F883
:1029400014004CAB4AAA072102F0D4FD05280AD096
:10295000072808D09DF8C900400806D0012804D0F7
:1029600043F20220E4E70520E2E7C4EBC40000EBF9
:1029700004103044172208F10101FCF761FD641CCA
:10298000AC42D8D3EAB2002142A86FDFD0E7000002
:1029900010B50D4C18200D4A607000204FF6FF71E5
:1029A00000EB400302EB8303401C59800828F7D357
:1029B000FDF7B6FF6070182803D0012020700020BA
:1029C00010BD032010BD0000A02700206C2F0020A8
:1029D00070B504460D46401C00F00CFA00280ED0DD
:1029E0001022691C601CFCF756FD48B15FF0000620
:1029F00005F1110104F11100FDF700FB304370BD3A
:102A00000126F5E7018811B9421892780AB1012030
:102A10007047491C0829F7D30020704710B50C46B1
:102A20000346FFF7EFFF00280AD018882188884264
:102A300005D10822A11C981CFCF72DFD08B100202F
:102A400010BD012010BD02F0EFBE10B504460078A5
:102A500088B0002828D12079072825D1608801AACC
:102A6000072102F07FFB00281ED102F03BFD1DE094
:102A70006088BDF80010884218D004990298FFF7CA
:102A8000A7FF98B16088FFF719FFADF81600002086
:102A90008DF814006088ADF81800BDF80000ADF89E
:102AA0001A0005A8FEF72AFF08B010BD03AA694660
:102AB000072002F0EFFC0028DAD1F5E770B50446F4
:102AC000FFF7FCFE0546204602F04FFB4FF6FF7174
:102AD00004468D4203D014B9284602F0A5FE2046D4
:102AE00070BD000010B5FFF7C5FCFF2805D00449F4
:102AF00000EB400031F8200010BD4FF6FF7010BD14
:102B00006C2F00203EB5044602F0ECFC0EE001996B
:102B100020464631FFF782FF28B9019920462A3125
:102B2000FFF77CFF10B1BDF808003EBD6A4602A960
:102B3000072002F0AFFC0028E9D14FF6FF703EBD40
:102B40007CB514460A000A49897802D015688D427E
:102B500003D323B11D688D4201D204207CBDCDE991
:102B6000004313460246034802F0AAFE7CBD000063
:102B7000A0270020CC2F002070B50C4606469AB046
:102B800010211848FCF775FC174800252EB324B314
:102B90008470620031461348FCF752FC382102A8C9
:102BA0001895FCF766FC009518AB02AA2146304642
:102BB000019502F085FE00280DD110AA0DF1080143
:102BC000C0EBC0030B4442F82030401C0828F7D368
:102BD000E1B210466EDF1AB070BD85700021084664
:102BE0006EDFF8E7CC2F0020A02700200B2801D0B3
:102BF000FDF7E8BA04F07ABF2DE9F0410F4628B19D
:102C00000120FFF785F80120BDE8F081397961B135
:102C10000026264D01290DD0254C4FF0020802292F
:102C2000206822D003293CD128E002F0E5F80121F8
:102C3000397134E05FF0000005EB001109780229DA
:102C40000CD0401C80B20228F6D30220FFF77AF89D
:102C50000120FFF75DF841F61D50D5E705EB0014A4
:102C6000606802F0BBF8267019E0014600230122DB
:102C70001048FFF79BF8A4F804800FE002F0AEF8CC
:102C80000A4922682031498805EB01114B6823600D
:102C90004A60A2880A81A4F804800E703E71002860
:102CA000B2D00120FFF734F80E20ADE77C360020CB
:102CB000382800206C280020F8B51C4C207800280B
:102CC00032D0E068002658B10025607800282BD16A
:102CD000684648DF052805D030B1FDF773FA0AE0F1
:102CE0000125F2E7012606E0009800F03FFD21698A
:102CF00009B1009888479DB96078002814D1608890
:102D0000ADF800006946A06861DF052803D020B156
:102D1000FDF758FA04E0012502E0D4E902018847F2
:102D2000002ED2D0002DE6D0F8BD0000542800209F
:102D300070B50E460446007918494FF4A27501EBB0
:102D40004010017F2068A1B14FF4887101F040FB71
:102D50004FF49071206801F03BFB4FF492712068B2
:102D600001F036FB2946206801F032FB0C4920684F
:102D700009E04FF48E7101F01AFB2946206801F03A
:102D800016FB08492068C0F80413206800F01AFDFB
:102D90003146BDE8704000F0F9BC00004435002029
:102DA000100302008000020010B509892AB1D08802
:102DB000491C814218D1002010BD90F85A2202EB24
:102DC000C20404EB021200EB820212899142F2D09B
:102DD000491C198090F85A1201EBC10202EB011153
:102DE00000EB8100008902E01980D088401E5880E5
:102DF000012010BD0021425C0AB101207047491C2E
:102E00001029F8D300207047800701D000207047B8
:102E1000012070470348017AC90702D00078FEF705
:102E20004DB970475C2700202DE9F047234D8146BE
:102E30001F46287A0E469046084302D026B100214C
:102E400004E00520BDE8F0871C491031484604F035
:102E50001FF80446014600224846FEF77BFF1FB1DB
:102E600021464846FEF72AFD112C0FD005DC5CB147
:102E7000082C09D00D2C06D106E0862C12D0A4F522
:102E80004050023800D003242046DBE73246E97880
:102E90004846FDF77BFD4246A9784846FDF776FD9A
:102EA0000024F1E73246E9784846FDF76FFD4246D7
:102EB000A9784846FDF76AFDE6E70000CC27002028
:102EC0002DE9FC4117460C00064604D02078C007C7
:102ED00005D0012004E000217EDFBDE8FC81022056
:102EE0008DF804003046FFF7FDFD0546A0F57F4054
:102EF000FF3808D001A800902B463A4621463046BC
:102F000000F021F806E020782146C007304603D0C3
:102F100000F07DF804460BE07EDF04004FF0000077
:102F2000009007D0002201232946304603F054FDCB
:102F300014B106E00122F6E79DF80410304603F0D4
:102F400075FD2046C9E72DE9F04F85B090468946CA
:102F5000834600259A462E4601AA072118460E9F51
:102F600002F000F9040008D1029D95F844001835DC
:102F700010F0010601D0029D343558EA04004FF0EC
:102F800000080FD175B126B905F11200FFF73AFD1F
:102F900040B12A4605F11201584685DF044687F8FC
:102FA000008021E00CB1052C1ED199F80000C0076B
:102FB0000DD003AB01220721504602F0FDF80400BA
:102FC0000AD10721504602F0F1F9040004D1494624
:102FD00058467EDF040007D00721504602F070F902
:102FE00010B1052800D00324CDF80080387808B14E
:102FF000012300E0002344B100225146584603F06B
:10300000EBFC05B02046BDE8F08F0122F5E7FEB5E8
:103010000F46064602F0A4F80546A0F57F40FF38AB
:103020001ED001AB01220721284602F0C5F804009A
:103030000AD10721284602F0B9F9040004D1394623
:1030400030467EDF040007D00721284602F038F919
:1030500010B1052800D00324012000905CB102E0EB
:10306000032400200090002201232946304603F06B
:10307000B3FC2046FEBD0122F6E700002DE9F04139
:10308000134D0F46164680462978FDF76BFC002845
:103090001BD04046FFF726FD0446A0F57F40FF38D1
:1030A00013D069784046FDF75DFC38B133463A46A7
:1030B00021464046BDE8F04101F02CBF324639467A
:1030C0004046BDE8F041FEF79BBBBDE8F081000043
:1030D000C82700202DE9F04385B08146FDF736FC76
:1030E000002820D06846FDF75DFB00246E4617E0FF
:1030F00006EB44054946A888FDF734FC78B10B4F30
:10310000A888B978FDF72EFC8046A888F978FDF7E5
:1031100029FC0146A88801234246FFF785FE641C6E
:103120000098A042E4D805B0BDE8F083CC27002089
:103130002DE9F043264CA4F110092278D9F8048037
:1031400099F80350404694F801C0D9F8086031E07E
:1031500002EB42036168521C01EBC301A378D2B2B7
:10316000934200D100220B78022B02D0032B21D1F5
:103170001DE003464F68194603E0B94203D00B46F1
:10318000C969B9B1F9E7A9B18B4205D1C06918B9CC
:10319000104E0125B56000260F68C969D96149B193
:1031A0000B683B440B6005E00174C06900E000213E
:1031B0000028F9D19445CBD1C9E9010689F803501B
:1031C000404502D00120BDE8F0830020FBE700006D
:1031D00018280020001001402DE9F0412A4F044634
:1031E000002607F11005D7F804803EE002D0204603
:1031F000E4691DE02878696800EB4002401CC0B219
:1032000001EBC2012870AA78904200D12E700A7892
:103210004868012A2BD1027C4ABB8A684260CA688E
:1032200082600A69C26049698161F97801B14660CA
:103230004368BA68DFF854C0991A21F07F416145AC
:1032400002D28268114406E0D11A826821F07F41DF
:103250008A4202D9511A016000E0066046600121ED
:1032600086600174C66104F01DF8002CBED1287878
:1032700069788842BED17968414502D00120BDE815
:10328000F0810020FBE7000008280020FFFF7F00FE
:10329000FEB504460026A0F57F40FF382FD020461B
:1032A000FFF76EF9050013D00B2D15D0112D11D09D
:1032B000A5F5405002381CD009208DF800002046AA
:1032C000FFF710FCADF80200ADF8044002950DE0E8
:1032D000022002E001260CE003208DF800002046C9
:1032E000FFF700FCADF80200ADF804406846FEF7B9
:1032F000FFFA0348324681782046FDF747FBFEBDC2
:1033000088270020FEB504460026FFF76EF9054623
:10331000112818D003DCA5B10C2D06D115E0862D9F
:1033200027D0A5F5405002381CD009208DF80000A8
:103330002046FFF7D7FBADF80200ADF80440029538
:103340000DE0012002E001260CE007208DF80000CE
:10335000ADF804402046FFF7C5FBADF80200684613
:10336000FEF7C6FA0448324641782046FDF70EFBC8
:10337000FEBD0820EAE7000088270020F8B50546D2
:1033800000780C46002620420FD100208DF8000066
:103390006846FCF7C1FF2878204202D120432870FC
:1033A00001269DF80000FCF7DBFF3046F8BD000069
:1033B0001CB500233C4A03211846FCF721FF08B145
:1033C000FCF700FF00F0BAFA08B1FCF7FBFE0020A2
:1033D000019001A90C2000F0E9FA08B1FCF7F2FE17
:1033E0003248334A69464068009001208DF8010058
:1033F0000B2000F03DFA08B1FCF7E4FE01210B20A0
:1034000000F0E4F92B4A40F6CD410320FDF70AFE17
:1034100008B1FCF7D7FE69460020FDF7DDFC08B1D6
:10342000FCF7D0FE9DF8000002283BD000240020CD
:1034300000F0A6FF08B1FCF7C5FEFDF715FC20461D
:1034400002F000FA1CB11CA1032000F0CDFEFEF733
:10345000F9FD2048FDF7D0FA08B1FCF7B3FE1E488D
:10346000009069461D48FDF769FB08B1FCF7AAFE0C
:103470001B480090194869461430FDF7EFF808B171
:10348000FCF7A0FE17A1032000F0AEFE03F0F0F859
:1034900000F008FE0028FBD13EDF0028F8D0FCF742
:1034A00091FEF5E70124C2E7542900202C7B02009D
:1034B000ED2B0200390F02004150503A494E464F61
:1034C0003A426F6E647320657261736564210D0A00
:1034D000000000003115020021270200FC2B002013
:1034E000ED0402004150503A494E464F3A4865615A
:1034F0007274207261746520636F6C6C6563746FA5
:1035000072206578616D706C652E0D0A00000000F8
:1035100070B505460C004FF0FF0020D04FF6FF7647
:10352000B5421CD00E48012241782846FDF72EFAFC
:103530002846FEF79FFFFF2803D1FEF7B7FFFF28BD
:103540000DD0084B00EB400203EB82014D8023F8C5
:10355000226022684A60A2880A81A2798A7270BDBC
:10356000A02700206C2F002070B54FF6FF750E4687
:10357000A84201D1002000E0401C84B208E02146AE
:10358000304602F014FC08B1204670BD641CA4B2A1
:10359000FF2CF4D9284670BDC20800F007030120B3
:1035A000895C98400840704770B598B19E2300220E
:1035B000038043801546172602EB420400EB4404C7
:1035C000521CA380E680257212F0FF02F4D0C16085
:1035D000002070BD0E2070BD70B50446888800289C
:1035E0002ED10888042812D0102804D03A2806D0FA
:1035F00055280FD107E0204601F016F90AE02046D1
:1036000001F02CFA06E0204601F0FCF902E0204629
:1036100001F052F9207A0025002811D025722846A1
:10362000A1889EDF112809D0002809D12B46A28845
:10363000BDE870400349032000F028BE012020723D
:1036400070BD0000547E020000F180400068002838
:1036500000D00120704708B500F1804000210160D2
:103660000068009008BD000000283ED01F49204A95
:10367000096800BF00BF00BF00BF00BF00BF00BFA0
:1036800000BF91422FD000BF00BF00BF00BF00BFEE
:1036900000BF00BF00BF00BF00BF00BF00BF00BF32
:1036A00000BF00BF00BF00BF00BF00BF00BF00BF22
:1036B00000BF00BF00BF00BF00BF00BF00BF00BF12
:1036C00000BF00BF00BF00BF00BF00BF00BF00BF02
:1036D00000BF00BF00BF00BF00BF00BF00BF00BFF2
:1036E00000BF00BF00BF401EC3D170476828002044
:1036F0000024F40070B50F4C0025207808B1852512
:1037000016E00021A16061602161E1604FF0E020DE
:10371000D0F80001012610F0010F03D1072100208D
:1037200000F034F803F052FD08B903480660267033
:10373000284670BDD83400201805004038B5002058
:103740008DF800006846FCF7E7FD074C207808B9C3
:10375000FFF7D0FFE068401CE0600120A0709DF8FA
:103760000000FCF7FDFD38BDD8340020002801D151
:10377000FDF774BE704700F01F020121914040091F
:10378000800000F1E020C0F8801170474907090E61
:10379000002806DA00F00F0202F1E02282F8141D80
:1037A00003E000F1E02282F8001400F01F02012182
:1037B00091404009800000F1E020C0F88012C0F87C
:1037C00000117047000B40B2704700002DE9F04136
:1037D0008846054602F0D4F8234E002828461AD021
:1037E000FDF7DAFD304490F848008009032802D044
:1037F00001280ED007E04FF0A040D0F81005E840B7
:1038000010F0010F05D003212846BDE8F04100F07B
:1038100092BA0221F8E702F0BFF8002822D0284629
:10382000FDF7BAFD04464FF4807000EB84000F4FA3
:1038300081B207EB8400D0F8102542F00102C0F8F5
:103840001025084600F0B6FAB8F1000F0AD0284655
:10385000FDF7A2FD56F82000002803D00120A0406B
:10386000C7F80403BDE8F081EC340020006000409C
:103870002DE9FC41DFF8A480044608EB0400002792
:1038800090F930001346C0170E46401C01D008279F
:1038900041E0F27819462046FDF75AFD0546401CE6
:1038A00038D0B07850B14FF0A04000EB8400D0F891
:1038B000001721F00201C0F8001707E0002173781B
:1038C000204600910A46019100F0E4F9F078C0B179
:1038D0001348317800EB8500D0F81025114B1A40C1
:1038E000C0F810254FF4F8524FF4403302EA042296
:1038F00003EA01410A43D0F810150A43C0F8102525
:1039000009E008EB0500327810F8481F41EA8211FF
:10391000017000E004273846BDE8FC81EC3400204B
:1039200000600040FFE0FCFF4FF0A041D1F810150F
:10393000C14011F0010000D00120704770B5144D56
:1039400095F8540008B1082070BD0020411E2A18C7
:10395000401CC0B282F830102028F8D30024204642
:10396000FDF7E8FC641CE4B20C2CF8D30721062018
:10397000FFF70CFF4FF4BE7000F01CFA05494FF042
:103980000040C1F80403012085F85400002070BDF8
:10399000EC34002000600040034890F854000028F8
:1039A00000D0012070470000EC3400202DE9FC41DC
:1039B000044629480F462044002590F93010491C40
:1039C00001D0082541E0B978002651B30122002139
:1039D0002046FDF7BDFC411C21D083001F483A78EA
:1039E00018447978D0F81035DFF874C003EA0C0376
:1039F000C0F81035D0F810354FF4F85C0CEA042C00
:103A000043EA0C034FF4403C0CEA02424FF4801CA2
:103A10000CEA01510A431343C0F8103504E00425B1
:103A200013E0FE2180F830107A780120A0404FF09A
:103A3000A041012A0CD0C1F80C05012220460096B5
:103A400000231146019600F025F92846BDE8FC81C7
:103A5000C1F80805F1E70000EC34002000600040E8
:103A6000FFE0ECFF4FF0A042D2F804350121814085
:103A700021EA0300C2F808051940C2F80C15704786
:103A80000121B1EB507F01D1012070470020704728
:103A90002DE9F04105460079164F904607EB40149A
:103AA0000E46E07E10B10820BDE8F081707F2077DF
:103AB0002846FCF76FFC5FEA08006060316921600E
:103AC00003D0317F2846FFF733F9287907EB401000
:103AD000007F0028286801D0082100E00421C0F8F8
:103AE00000150020E0752076A0750121E176A07612
:103AF000DAE70000443500202DE9F047054600795B
:103B00003F4E904606EB40140F46207F18B1084602
:103B1000FFF7B6FF30B1284600F074F820B111204D
:103B2000BDE8F0871020FBE784F81680A760002727
:103B3000A78228794FF0010806EB40143E46207F0B
:103B40000028286825D04FF49079494600F040FCC1
:103B50004FF4AC7A5146286800F03AFC2868A17D01
:103B6000A268C0F84425C0F848152868C0F8088045
:103B70006068F0B94946286800F025FC8046514647
:103B8000286800F020FC58EA0001F3D058BBA77564
:103B90000FE04FF48E7A514600F009FC2868C0F817
:103BA00008802146286803F089FC61684FF4807022
:103BB00089B13046B4E75146286800F0F3FB10B9EC
:103BC000A08A4845F7D1A08A484505D021462868F3
:103BD00003F074FC00E08146A08AA17D8842EAD30C
:103BE000A08A484501D10F26D1E75146286800F048
:103BF000D9FB0028F9D02868C0F80C80C7E700007E
:103C0000443500200079044901EB4010807D0028F4
:103C100000D00120704700004435002070B50446F4
:103C200000791149002601EB401520682A7FC0F871
:103C30000065686888B1207901EB4010007F00289A
:103C4000206801D0094901E008498C39C0F80813FF
:103C50002068FFF7B7FDFFF78EFD204601F0A8FEB4
:103C6000EE766E6070BD0000443500201003020047
:103C700070B541EA4201DDE904564FF0A04441EA43
:103C8000830141EA052104EB800041EA0641C0F8C6
:103C9000001770BD70B541EA4201DDE904564FF0EE
:103CA000A04441EA830141EA052104EB800041EA96
:103CB0000641C0F8001770BD70B541EA4201DDE968
:103CC00004564FF0A04441EA830141EA052104EB88
:103CD000800041EA0641C0F8001770BD1CB5002104
:103CE00000910B4601220191FFF7E6FF1CBD1CB5B8
:103CF00000220B46009211460192FFF7DDFF1CBD2A
:103D00001CB5002100910B46012201911146FFF7DD
:103D1000D3FF1CBD4FF0A04202EB8000D0F800277B
:103D200022F44032C0F80027D0F8002742EA0141CF
:103D3000C0F8001770474FF0A04202EB8000D0F8A7
:103D4000002722F44032C0F80027D0F8002742EACA
:103D50000141C0F8001770474FF0A042D2F8043577
:103D60000121814021EA0300C2F808051940C2F888
:103D70000C15704701224FF0A043824011B1C3F8E7
:103D800008257047C3F80C257047000018B5084B8C
:103D90006C4601441B68009306E000BF54F82030D5
:103DA000D3F81035401C08C28142F7D818BD000076
:103DB000147C0200034908B5084400210160006832
:103DC000009008BD0060004002494058012800D022
:103DD000002070470060004000487047513E0200DC
:103DE00030B5184C054689B0207828B160788542F6
:103DF00002D1002009B030BD202213496846FBF7EC
:103E00001FFB00208DF81400062000900820019070
:103E100005200390072002904FF0EB7006900948B0
:103E2000001DFFF7FBFE0DB1002200E0074A054828
:103E30006946001DFFF72CFE0028DBD10120207011
:103E40006570D6E744280020347C0200F974020033
:103E50002DE9F04FC1B00D004FF0000140914D9899
:103E60004B991C46174601EB000B01D00A2000E0DD
:103E70000020804602F010FE00287CD16E46BCB9BE
:103E8000409840AA3118284603F090FA002872D0D2
:103E90003846FBF7F9FAC22800D9C22005464098F7
:103EA0002A4630443946FBF7CBFA409828444090E4
:103EB0004FF0200A409901EB080231320DEB010569
:103EC0000DEB0206002002E005F801AB401C404566
:103ED000FAD300275C4508D305F801AB05F801AB20
:103EE00005F801AB06F801AB2DE04B98844202D2F5
:103EF0004A98005D02E0211A4C98405C2B468146AE
:103F000002460121880022FA00F000F00F00092883
:103F100001D9373000E03030C1F1010C491E03F8FF
:103F20000C00EFD29D1C05F801ABFBF785FA016888
:103F300011F8090010F03E0F01D0484600E02E2095
:103F400006F8010B641C7F1C102FC3D30D203070AA
:103F50000A20707085F800A04099684641444331BA
:103F6000409102F09FFD30B102F096FD18B900209B
:103F700040905C459ED341B02046BDE8F08F2DE9CE
:103F8000F043C7B000251C46904689464E9F459594
:103F900002F082FD00287AD1459805AE311845AA75
:103FA000484603F003FA002835D0072F27D2DFE870
:103FB00007F004121B35424F5D004046FBF764FAE0
:103FC000054645982918FF2919D830442A46414604
:103FD000FBF736FA13E045982368C0F5807130444A
:103FE0004246FBF795FD09E060680090459823681C
:103FF000C0F5807130444246FBF78AFD05462946EC
:1040000045A8FDF71DF9459978B3B1F5807F3ED8F5
:1040100005A802F047FD47B0BDE8F083D4E90101EF
:10402000CDE9000145982368C0F5807130444246CF
:10403000FBF76EFDE2E7201D07C88DE807004598F5
:104040002368C0F5807130444246FBF761FDD5E737
:10405000201D0FC88DE80F0045982368C0F58071BA
:1040600030444246FBF754FDC8E710E004F1080075
:1040700001AD0FC885E80F0060680090459823687F
:10408000C0F5807130444246FBF742FDB6E70020A0
:10409000C1E70000004870477F3F02000120FFF7A2
:1040A0009FBE00002DE9F04F87B0FDF707F918B16A
:1040B000002007B0BDE8F08F454ED6E9014704EA7D
:1040C000070006EB8000A146641CC5680CE000BF39
:1040D000C5F3891000EB9550044404EA070006EB91
:1040E0008000A146C568641CA807F1D005F0030054
:1040F0004FF0000B022805D0AA0A01A8C5F38313CC
:10410000002153E004EA070006EB800004F1010AF5
:104110000AEA0704C268381B80004FEA9558001D60
:10412000C5F38913804521D929490C3138B106EBF3
:10413000840400F0FF0CA8EB00000C3404E00C46F3
:10414000002108F0FF0C0846C0B2CDE90210CDE90D
:10415000004CD6F81444C5F3C2005946A047404568
:1041600011D108F103080AEB98042AE0002106EBBC
:1041700084000C300090CDE901810391C5F3C200A9
:10418000D6F81444EAE760F38F1509EA070006EB56
:104190008000C56016E000BF04EA070C06EB8C0C3B
:1041A000491CDCF80CC040F804CB641C9942F3D3E2
:1041B000C5F3C2000093D6F8105401AB5946A84786
:1041C00000B17460FDF77AF880F0010071E700003B
:1041D00014380020034AFF239360002313605360C8
:1041E00000F0C6B8143800202DE9F8430F4F884678
:1041F0000446002569462846BE68FDF72BF80028CE
:1042000012D00B480021406861F38200009964F3EA
:10421000C50001EA060265F3891007EB820268F324
:104220009F20491CD0600091BDE8F883143800201D
:10423000547C02002DE9F843124D884604460127BC
:10424000914669463846AE68FDF704F8002817D055
:104250000D480021806861F38200009964F3C50075
:1042600001EA060267F3891005EB820268F39F20DA
:10427000491CD0600091314005EB8101C1F80C90E0
:10428000BDE8F88314380020547C02002DE9F84F73
:10429000164C8846064602279A4691466946384695
:1042A000A568FCF7D7FF00281ED01148C168002080
:1042B00060F38201009866F3C50100EA050267F326
:1042C000891104EB820268F39F21401CD16000EA4F
:1042D000050204EB8202401CC2F80C9000902840BA
:1042E00004EB8000C0F80CA0BDE8F88F1438002063
:1042F000547C02002DE9F84F1B4C884606460327E4
:104300009A469146DDF828B069463846A568FCF71C
:10431000A1FF002825D015480021006961F3820023
:10432000009966F3C50001EA050267F3891004EB02
:10433000820268F39F20491CD06001EA050204EB69
:104340008202491CC2F80C9001EA050204EB8202C9
:10435000491CC2F80CA00091294004EB8101C1F86E
:104360000CB0BDE8F88F000014380020547C020027
:10437000024A02F5826203C270470000143800202E
:1043800070B506460020FFF72BFD040008D1FFF7AB
:1043900023FD0546FFF77EFE32462946FFF71AFF4A
:1043A000204670BD4058002800D00120704708B555
:1043B000002242504058009008BDD0F80403084045
:1043C00000D0012070474058002800D001207047DD
:1043D00008B5002242504058009008BD2DE9FF4129
:1043E0000546041D0088794E01274FF000081D285E
:1043F0003FD010DC102818D0112875D01B2874D19C
:10440000207902282BD003286FD104B070A1BDE819
:10441000F041FFF7E9BE1F2868D03B2867D0562837
:1044200063D1A888132176DFC9E074A10320FFF7C8
:10443000DBFEA988F18086F804807648FCF710FB43
:10444000112810D008B1FBF7BDFE0720FCF7DEFDF8
:1044500008B1FBF7B7FEFCF7BDF9002845D1BDE870
:10446000FF4102F005B96C490320FFF7BDFE37712B
:10447000EBE7707880B169482379211D02785208F2
:10448000B2EB530F31D10622401C491CFBF703F855
:1044900000287AD162A15AE060481030FAF7F4FFA0
:1044A000010005F1180004F1040126D00290C87B38
:1044B0005A4DC008ADF80C0010356A4602A9092013
:1044C000FBF7AFFDA0B16A4602A90820FBF7A9FDE2
:1044D00000285AD1BDF8042028460099FAF7DBFFDE
:1044E000002852D15AA132E051E04EE060E063E092
:1044F000BDF8042028460099F0E70290C87B4AF6F0
:10450000CD35C008ADF80C006A4602A90220FBF7C1
:1045100088FD30B16A4602A90320FBF782FD00281E
:1045200033D100204FF6FF73BDF804102AE000BF1E
:10453000009A07EB400C12F80C2003EA022C009AB8
:1045400012F8102042EA0C02AA421AD14BA1032011
:10455000FFF74AFE8BDF1D48304A0A3008320178E7
:1045600021F0020101700146201D8CDF020086F857
:1045700002800AD004B04CA1BDE8F0410120FFF751
:1045800059BE401CB0EB510FD2D3BDE8FF812A7A4F
:1045900052A10320FFF74EFE0020FCF737FD08B1C3
:1045A000FBF710FE4FF418711A48FAF762FF52E752
:1045B0002088211D75DF02E0A888132176DF0028FE
:1045C000E3D004B0BDE8F041FBF7FCBD4827002074
:1045D0004150503A494E464F3A436F6E6E65637490
:1045E000696F6E20526571756573742074696D65AD
:1045F00064206F75742E0D0A000000004150503A7F
:10460000494E464F3A436F6E6E65637465642E0D76
:104610000A0000009C290020007D0200347B02007B
:104620004150503A494E464F3A4164647265737343
:10463000206D617463682073656E6420636F6E6EB5
:104640006563745F726571756573742E0D0A000081
:104650004150503A494E464F3A4E616D65206D616A
:104660007463682073656E6420636F6E6E65637437
:104670005F726571756573742E0D0A004150503A72
:10468000494E464F3A55554944206D617463682040
:1046900073656E6420636F6E6E6563745F726571BF
:1046A000756573742E0D0A004150503A4552524FB1
:1046B000523A436F6E6E656374696F6E2052657116
:1046C00075657374204661696C65642C2072656140
:1046D000736F6E2025642E0D0A0000004150503A81
:1046E000494E464F3A446973636F6E6E65637465F5
:1046F000642C20726561736F6E20307825782E0DE2
:104700000A0000002DE9F84F05460C460888B5F868
:104710005E12884259D195F85A02DFF804A100EBE5
:10472000C00101EB001005EB800660884FF0030923
:104730004FF00008F0BBE3883079A11DDAB250FADF
:1047400083F3052B01D8024400E0052232710023D7
:104750001CE000BF00EBC00203EB830701EB47073F
:1047600006EB4202D7F802C0C2F80AC0D7F806C06A
:10477000C2F80EC07F895782A2F81480A2F8168072
:10478000A2F81880401CA2F81A805B1C3279824281
:10479000E0D895F85A1200EBC00001EBC10202EB21
:1047A000011105EB810136F81000098988420ED20B
:1047B000307900E00BE0052809D085F859022188FE
:1047C0002846FCF7F1FD01000AD1BDE8F88F85F815
:1047D0005982228869462846FCF708FF01000BD061
:1047E00085F85B8222882846FCF7D0FF8AF8009083
:1047F0002188AAF80210E8E79DF800000028E4D01C
:104800002388328807490320FFF740FD22880121D1
:104810002846FCF761FF2188284600F019FAD4E702
:10482000E42C0020907D020030B4CA7B8C88012AE1
:1048300005D104EB440300EB430302889A80C97B53
:10484000022905D104EB440200EB42024188918029
:1048500004EB440100EB4105A98817290ED9204635
:104860009EDF112808D0002808D1AA88234630BC32
:1048700003A10320FFF70ABD0120287230BC704756
:10488000424C455F474154543A494E464F3A72654F
:10489000717565737420415454204D54552025641E
:1048A00020666F7220636F6E6E5F68616E646C6508
:1048B000202564200D0A00008A8802A10320FFF74A
:1048C000B9BC0000424C455F474154543A494E46FA
:1048D0004F3A44617461204C656E67746820457876
:1048E00074656E6465642028444C452920666F72A7
:1048F00020636F6E6E5F68616E646C652025642056
:104900000D0A0000F8B505460C460888B5F85E1299
:1049100088425DD195F85A02A21D00EBC00101EB5F
:10492000001005EB800695F85902618800EBC00085
:1049300006EB40000A3039B329E000BF01EB410328
:1049400002EB43039F88B7F5245F0CD06FF4245C1F
:1049500017EB0C070AD0012F02D0072F0BD108E06C
:104960005B88438107E05B88838104E05B88C381C7
:1049700001E05B88038243892BB183891BB1C38922
:104980000BB1038A1BB9491C13888B42D6D8002768
:104990008DF8007095F859023179401C884203D196
:1049A00001208DF8000018E085F859022288694638
:1049B0002846FCF71BFE01000BD085F85B722288AD
:1049C0002846FCF7E3FE0D48032101702188418051
:1049D000F8BD9DF800000028FAD0238832880849E5
:1049E0000320FFF753FC228801212846FCF774FEC0
:1049F0002188284600F02CF9F8BD0000E42C0020A6
:104A0000907D0200F8B507468888CC880546172CAB
:104A100000D2172405EB450107EB4106B188ADDF55
:104A200008B1FBF7CFFBB288A24200D81446F4804D
:104A30002B4609490320FFF729FCF86840B1ADF87F
:104A40000050F088ADF80200FA6869463846904791
:104A500000203072F8BD0000E87E0200F8B58D88B5
:104A6000064605EB450006EB40044989A0888842CC
:104A700000D80146E180172901D21720E080E288A2
:104A80002B4609490320FFF701FCF06840B1ADF85F
:104A90000050E088ADF80200F26869463046904761
:104AA00000202072F8BD0000987E020070B50288D8
:104AB0008B8892B09A422BD14A8983889A4227D117
:104AC00002228DF800200288ADF8022000228DF825
:104AD00006200A7CD30701F101021BD0128AADF82F
:104AE000042003230A7CD2060FD500226D46CC8910
:104AF0009C4208D9CC1805EB4206248A521C9B1C08
:104B000034811E2AF3D38DF80620826869469047C7
:104B100012B070BD4A7CADF804200223E2E7000029
:104B2000134A10B500215170017A012912D00229CF
:104B30001DD18189491C8181C189491C89B2C181EA
:104B4000028A914213D1002101F080FFBDE810409C
:104B500001F036BB838AC28A4FF480619C1A8C4272
:104B600000DAA1B2114489B2C1829942EBD010BDE2
:104B70004028002070B5064690F85A020C4600EB1B
:104B8000C00101EB001006EB80052088B6F85E122C
:104B900088422CD160882A8870B115A10320FFF7C4
:104BA00049FB228800213046FCF796FD21883046DB
:104BB000BDE8704000F04CB819A10320FFF73AFBA4
:104BC000A1682960E068C5F8060021883046FCF736
:104BD000EBFB01000BD0002086F85B0222883046F8
:104BE000FCF7D4FD1948032101702188418070BD74
:104BF000424C455F44425F444953433A494E464F15
:104C00003A5365727669636520555549442030787A
:104C10002578204E6F7420666F756E640D0A000053
:104C2000424C455F44425F444953433A494E464FE4
:104C30003A466F756E6420736572766963652055B8
:104C400055494420307825780D0A0000E42C0020D6
:104C50002DE9F047044690F85C020D46401C1E49C1
:104C6000C0B284F85C02C968DFF8709000264FF08B
:104C7000030888422CD284F8596294F85A022B46D1
:104C8000401CC0B200EBC00101EB001104EB810736
:104C900084F85A02A9F1180101EB8000104900685C
:104CA00038603E713A880320FFF7F0FA3A46012156
:104CB000284694DF010009D084F85B622A4620462A
:104CC000FCF764FD89F80080A9F80250BDE8F08780
:104CD00084F85B62F6E7000078270020E42C0020CF
:104CE000F87D0200F8B51E4D17460E4601466A6F64
:104CF0000020032A33D805F17804C6F1080C636C50
:104D000063452CD895F87000104400F00300C0EB08
:104D1000C00005EB80001C22FAF792FB686F401C74
:104D20006867DEB194F8440094F84010002308440A
:104D300000F0070004EBC00000900AE007EBC3029C
:104D40000098D2E90012C0E900126846FCF75EFB49
:104D50005B1CB342F2D3606C304460640120F8BD48
:104D6000BC3500200389CA1C1A4402814289511AA9
:104D7000C91E4181704700002DE9F04700F58055BC
:104D8000002700F10804022090460E460880DFF854
:104D9000489012E02046FDF7B7FCD0B1A068D9F8E2
:104DA0000420904201D9C9F804006088318804EBDE
