:020000040001F9
:10F000004058002015F401001DF401001FF4010018
:10F0100021F4010023F4010025F4010000000000A8
:10F0200000000000000000000000000027F40100C4
:10F0300029F40100000000002BF401002DF4010070
:10F0400045F701002FF4010085FA01002FF40100BB
:10F050002FF401002FF4010041F501002FF401000D
:10F060002FF401002FF401002FF401002FF4010010
:10F070002FF401002FF401002FF401002FF4010000
:10F080002FF401009DF701002FF401002FF401007F
:10F09000C1F701002FF40100C5F701002FF40100B2
:10F0A0002FF401002FF401002FF401002FF40100D0
:10F0B0002FF401002FF40100000000000000000008
:10F0C0002FF401002FF401002FF401002FF40100B0
:10F0D0002FF401002FF401002FF4010000000000C4
:10F0E0000000000000000000000000000000000020
:10F0F0000000000000000000000000000000000010
:10F1000000000000000000000000000000000000FF
:10F1100000000000000000000000000000000000EF
:10F40000DFF80CD000F05EF800480047D13202006F
:10F41000405800200648804706480047FEE7FEE7C0
:10F42000FEE7FEE7FEE7FEE7FEE7FEE7FEE7FEE7B4
:10F43000E9F7010001F4010010B5431A934209D223
:10F440008318881803E010F8011D03F8011D521EEF
:10F45000F9D210BD40EA01039B0703D009E008C9B7
:10F46000121F08C0042AFAD203E011F8013B00F889
:10F47000013B521EF9D210BDD2B201E000F8012BBF
:10F48000491EFBD270470022F6E710B513460A4624
:10F4900004461946FFF7F0FF204610BD421C10F845
:10F4A000011B0029FBD1801A704730B504460020AB
:10F4B000034600E05B1C934203D2E05CCD5C401B42
:10F4C000F8D030BD064C074D06E0E06840F001037F
:10F4D00094E8070098471034AC42F6D3FFF794FF46
:10F4E000E06B0200006C020070B58C1810F8015B34
:10F4F00015F0070301D110F8013B2A1106D110F8CD
:10F50000012B03E010F8016B01F8016B5B1EF9D1D0
:10F510002B0705D40023521E0DD401F8013BFAE756
:10F5200010F8013BCB1A921C03E013F8015B01F8C1
:10F53000015B521EF9D5A142D8D3002070BD000056
:10F540002DE9F04700268CB0DFF86091B0464FF40B
:10F550008075012437460696284604F059FA38B1DA
:10F56000D9F80403204203D0284604F047FA264382
:10F570002D1D64007F1CADB2082FEDD34FF4BE7477
:10F58000204604F045FA48B1204604F037FA46F028
:10F59000004606AA0121002004F01CFA444D16F092
:10F5A000FF0F15D00127002437420DD009EB84014D
:10F5B000D1F81005D1F81015C0F3042055F8242017
:10F5C000C1F3014102B190477F00641C082CEBD3CA
:10F5D000002E67DA4FF0FF30CDE908800026344670
:10F5E000281910F8507F90F9000027F0C008401C3F
:10F5F00044D009A9404603F0B1FF58B34FEA971928
:10F60000404601F0E1FE55F820701FB1B9F1030F3B
:10F6100003D00FE0B9F1030F30D108A84FEAD802A8
:10F6200008F00703815C4FF0010C0CFA03FC41EA7F
:10F630000C0181544FF0A04101EB8800D0F8000785
:10F6400006A9C0F3014A404603F088FF18B1BAF199
:10F65000020F03D012E0BAF1030F0FD1B9F1030F7B
:10F6600008D1BAF1020F1BD00221404604F095F9EF
:10F67000761CF6B217B149464046B847641C042CC4
:10F68000AED3002E0ED06A460121002004F0A2F96C
:10F6900006990098884205D00690089809909DE741
:10F6A0000321E2E70CB0BDE8F087000000600040F5
:10F6B0001836002000F01F0201219140400980000F
:10F6C00000F1E020C0F88012704700F01F02012115
:10F6D00091404009800000F1E020C0F8801170479F
:10F6E00000F01F02012191404009800000F1E0205C
:10F6F000C0F80011704700F01F020121914040093D
:10F70000800000F1E020C0F80011704700F01F02F7
:10F71000012191404009800000F1E020C0F8001272
:10F7200070474907090E002806DA00F00F0000F1C3
:10F73000E02080F8141D704700F1E02080F80014EC
:10F74000704700002DE9F0414FF48077384603F010
:10F750004BFF0124104EA50748B1384603F04BFF7C
:10F760000120C5F808037470002001F0BDFE4FF4BD
:10F770008277384603F038FF00280BD0384603F074
:10F780003AFF0220C5F80803B470BDE8F04101203B
:10F7900001F0AABEBDE8F081043600200748002130
:10F7A000C0F84011C0F84411C0F84811C0F84C111D
:10F7B000C0F80011C0F8041106F09CBD0010014013
:10F7C00006F010BD074810B5406830B180470028EA
:10F7D00007D0BDE8104000F033BBBDE8104003F097
:10F7E0004FBA10BDA82D0020F0B598480023021D87
:10F7F00001780125101D4FF08056062907D1147895
:10F80000240704D10478C4F30314032C02D006297E
:10F8100004D00FE08F4F8E4C7C670EE014782407E5
:10F8200008D10478C4F30314032C06D0042C04D0AC
:10F83000052C02D0062907D00EE0D6F84442864FA8
:10F84000C4F342343C6002E01478240704D1047805
:10F85000C4F30314032C02D0062906D011E07F4C18
:10F86000276827F0807727600EE01478240708D1F6
:10F870000478C4F30314032C06D0042C04D0052C04
:10F8800002D006290AD011E04FF08044C4F80C31B0
:10F89000C4F81031704C241F236002E01478240750
:10F8A00004D10478C4F30314032C02D0062905D034
:10F8B0000CE0694F032464373C600AE014782407A5
:10F8C00004D10478C4F30314032C02D006290DD00C
:10F8D00014E0634F05243C60614C78342560604C33
:10F8E000083423603F243F1D3C6002E01478240765
:10F8F00004D10478C4F30314052C02D0062957D090
:10F9000068E058490968584A11605649091D096854
:10F91000121D1160534908310968121D11605149C7
:10F920000C310968121D11604E4910310968121D11
:10F9300011604C4914310968121D11604949183190
:10F940000968494A2032116046491C310968121D74
:10F950001160444920310968121D11604149243168
:10F960000968121D11603F4928310968121D116094
:10F970003C492C310968121D11603A49303109683F
:10F98000394A40321160374934310968121D11601B
:10F99000344938310968121D116032493C31096817
:10F9A000121D11602F4940310968121D116002E0DB
:10F9B000117809070ED10078C0F30310032803D093
:10F9C000042801D0052805D1D6F85802274900F0AF
:10F9D0004F00086021487438016841F470010160EB
:10F9E000BFF34F8FBFF36F8F4FF01021D1F800029C
:10F9F000002803DBD1F80402002822DA1C4A156033
:10FA00001C480468002CFCD01524C1F8004205688D
:10FA1000002DFCD0C1F8044201680029FCD013601D
:10FA200001680029FCD0BFF34F8F0C48F038016803
:10FA3000114A01F4E06111430160BFF34F8F00BF31
:10FA4000FDE70F490D480860F0BD0000E00F00F031
:10FA50000DF0ADBA00C007403C050040FCED00E0F1
:10FA6000105600400404001020C50040E40E004081
:10FA700004E5014000E401400400FA050090D003D1
:10FA8000BC2D00200448017F04480029024901D010
:10FA900006F05DBD06F0CCBC7036002000200040B2
:10FAA00002E008C8121F08C1002AFAD17047704747
:10FAB000002001E001C1121F002AFBD170470000A5
:10FAC0000121202803DA81400548014003E0402855
:10FAD00002DA2038814009B10120704700207047C8
:10FAE000FC06FFBC10B560B159B102780B78520822
:10FAF000B2EB530F05D10622401C491CFFF7D5FC81
:10FB000008B1002010BD012010BD2DE9FC470025E3
:10FB100017880646158090F82D001446894630B1A6
:10FB20003A462146484600F063FF050009D1B07807
:10FB30004FF00C0A18B32088C846001DB84202D9FD
:10FB40005046BDE8FC87684679DF0028F9D1208857
:10FB5000032108F8001020881921401C80B2208061
:10FB600008F800102088401C80B2208000EB0801BB
:10FB7000BDF8000006F063FD218808442080F0787D
:10FB80000222C8B1218896F9033001F1030C4846DE
:10FB9000BC45D5D8425421884FF0010C491C89B28C
:10FBA000218000F801C02188491C89B2218009F810
:10FBB00001302088401C20807068B8B1218890F9FD
:10FBC000003001F1030C4846BC45B9D842542188A5
:10FBD0000A22491C89B2218042542188491C89B2D9
:10FBE000218009F801302088401C2080308950B1E4
:10FBF000CDE900474B460622022106F1080006F037
:10FC000077FD05009DD1308A50B1CDE900474B46C4
:10FC10000722032106F1100006F06AFD050090D1CD
:10FC2000308B50B1CDE900474B461522142106F127
:10FC3000180006F05DFD050083D1306A30B13B4607
:10FC40002246494601F0BAFC0500DBD1706A30B1AA
:10FC50003B462246494603F0BDFB0500D2D196F84B
:10FC60002C0038B13B4622464946304605F0A6FEF8
:10FC70000500C7D1307838B13B4622464946304668
:10FC800003F0DAFB0500BDD128465AE7134A0021EC
:10FC9000535C0BB1012203E0491C0629F8D3002272
:10FCA0000F49012806D0022809D003280CD00428C7
:10FCB00012D10DE0487810B10AB101207047887860
:10FCC00010B10AB102207047C87808B1032070470C
:10FCD000087908B10420704700207047992C002053
:10FCE000B430002010B501220221002001F0FAF901
:10FCF00008B1072810D107220221012001F0F2F9F2
:10FD000008B1072808D100210A22084601F0EAF9C3
:10FD100008B1072800D1002010BD10B5032000F065
:10FD2000E5FB002803D0BDE8104000F089B810BD05
:10FD300070B58CB015460E4600236C46C3F10F011A
:10FD4000415CE1545B1C102BF8D30D2104F1100031
:10FD5000FFF799FB0020C0F10F02315C2244401CE8
:10FD600011740328F7D3684643DF0020C0F10F0168
:10FD7000214491F820102954401C0328F6D30CB0DC
:10FD800070BD022001F070B870B50024064D06E089
:10FD90006868012110F8340003F0DAFC641C28784C
:10FDA0008442F5D3002070BD582D0020F8B51546CB
:10FDB0000C460646052A01D20720F8BD03F0AEFD29
:10FDC00018B903F07DFD0028F7D1104900204E60DE
:10FDD0000C70C1E902500E4D08610DE006EBC40045
:10FDE0006968009181788DF801100078094A6946A8
:10FDF00003F000FD0028E0D1641EE4B2EED2BDE8BD
:10FE0000F840054A0021024800F026B8582D00208D
:10FE1000C46B0200C924020041170200BFF34F8FD8
:10FE200005480168054A01F4E06111430160BFF330
:10FE30004F8F00BFFDE700000CED00E00400FA0565
:10FE40000EB500210091CDE901106A4644F201008F
:10FE5000FFF7E4FF0EBD0000074B5B6823B12AB13A
:10FE600020B10068037C1BB1082070470720704751
:10FE700041744261002070477C2D00202DE9F0473D
:10FE8000074698461446894690074FF0000526D14C
:10FE90002CB305F0A1FA134E06F11000C6F80C8041
:10FEA0000570457080F8029044607560357075701B
:10FEB0001420FFF7FFFB07211420FFF732FC14206A
:10FEC000FFF70EFC0848076007211120FFF729FC07
:10FED0000548001F0068B0600020BDE8F0870720DB
:10FEE000FBE700006C2D0020081501402DE9FC47C0
:10FEF000DFF87890D9F8043073B368B3052902D2DB
:10FF00000720BDE8FC87436933B3437C012B25D030
:10FF1000002704460025884616468DF8005068469E
:10FF200000F038F801A806F0CBFBC8B10121017040
:10FF30000F4944600968C0E90218C0E904769DF8D9
:10FF4000040089F801009DF8000000F047F8142033
:10FF5000FFF7DCFB2846D4E70820D2E70F46D8E7B6
:10FF600004259DF8000000F039F8F3E77C2D00200F
:10FF7000041501400649496839B130B1416921B1E0
:10FF800000210174022106F091B908207047000099
:10FF90007C2D002030B5EFF3108172B60D4A9468C5
:10FFA000012324B10370002900D162B630BD9360F3
:10FFB0004FF0E023D3F88051074C25401560C3F87B
:10FFC0008041D3F8844154605A17C3F88421002239
:10FFD0000270E8E7B0360020FC06FFBC0B498A68D7
:10FFE000002A11D000280FD1EFF3108072B60B68F1
:10FFF0004FF0E022C2F800314B68C2F80431002211
:020000040002F8
:100000008A60002800D162B670470000B036002038
:1000100010B5144C00224FF480312068FFF766FFC2
:1000200008B1FFF70DFF00224FF400416068FFF7B1
:100030005DFF08B1FFF704FF002242F26661A0688D
:10004000FFF754FF08B1FFF7FBFE00224FF4203109
:10005000E068FFF74BFF002803D0BDE81040FFF732
:10006000EFBE10BDF46A02002DE9F043044687B0EC
:10007000008800F059FC8146208802F073FD214F72
:100080008046667A208800223978A56800F09AFCBC
:10009000B9F1000F33D06079400711D507214046F0
:1000A00004F0E2F8A0B108218DF80C102188059029
:1000B000ADF80E10ADF8108003A801F033FC07E096
:1000C0002088B97800F06AFC10B1404602F036FD95
:1000D00003208DF800002088ADF802006079C0F39D
:1000E00080008DF80400A079C0F380008DF8050031
:1000F0008DF806508DF80760684601F013FC07B0D4
:10010000BDE8F083F42C00202DE9F0430546007D86
:1001100093B00E460024A0B107949DF81C0020F077
:100120000F00401C20F0F00010308DF81C00707B98
:100130008DF81D009DF81E0020F00600801C8DF833
:100140001E001C216846FFF79EF99DF8000040F054
:1001500002008DF80000297D11B140F0100001E08F
:1001600020F010008DF80000019403940494287D81
:1001700000B107A8CDE9050401278DF8427042F6C9
:100180001920ADF840000D94B07B8DF83400F07B61
:100190008DF835009DF83600142120F00600801CF3
:1001A00020F019008DF83600307B8DF8440008A847
:1001B000FFF769F90DF140080DF13409ADF8287029
:1001C00011A8CDE90889ADF82A40ADF82C700C9043
:1001D000A888AB1D08AA6946A2DF002838D1B068FC
:1001E00098B38DF8427042F60810ADF840000D94B7
:1001F000307C8DF834009DF8350020F0FF008DF83C
:1002000035009DF8360020F00600801C20F0190013
:100210008DF836000EA8B16800F090FD0646142156
:1002200008A8FFF730F9ADF828600EA8CDE90889D5
:10023000ADF82A40ADF82C600C90E88805F10E026C
:1002400008A9A3DF002803D101E0FFE7EC8100202B
:1002500013B0BDE8F083000010B50D490D4805F05E
:1002600008FBC1B20A48783800F0C2F900280DD066
:1002700008280BD0A0F54051043907D043F20141C2
:10028000884203D0BDE81040FFF7DABD10BD000082
:1002900018300020402C0020F0B50C4693B01F21F0
:1002A0000726ADF80010ADF80410002750B1C17852
:1002B00049070DD56A4602A9FFF727FC002808D197
:1002C00002AD02E00025ADF800706CB1E07810B12D
:1002D000304613B0F0BD01AA0AA92046FFF715FC6D
:1002E0000028F6D10AAA02E00022ADF80470BDF899
:1002F0000400C3B2BDF80000C1B2284672DFE8E7CF
:100300002DE9F0471F46DDF820801346894604009A
:1003100042D0EBB3404D012000262870EE70202221
:1003200019463E48FFF788F8C5E904784FF6FF7094
:100330002881AE613948AE83AE773C212030FFF78B
:10034000A2F83648217820300170A1788170E178D8
:10035000C170617841703149D4E90423C1E90C23AB
:10036000D4E90223C1E90A23D4E90623C1E90E2313
:10037000616AE1B100F13C0100F1480241628A602A
:10038000636A1B880B80616A436A8988998000E0F0
:1003900002E00021436A07E00E20BDE8F087656AAD
:1003A000AD686D5C5554491C9D888D42F7D8A16A93
:1003B000D9B11A4A9432A2F10C018A608162A36A0F
:1003C0009B888B80A16A836A098819800021836ACF
:1003D00004E0A56AAD686D5C5554491C9D888D424A
:1003E000F7D894F82C1080F82C10216A49B10A49EA
:1003F0000A310162226A52884A80216A026A0988A7
:100400001180616801B141604946BDE8F047034889
:100410002030FFF741BF0000802C0020B4300020C6
:1004200010B50188144C102918D011291CD01B2993
:1004300019D1007A002816D1E0780521401CB0FBC4
:10044000F1F201FB120000BF00F050F800280AD0C2
:100450006169002907D0BDE810400847C17B012928
:1004600001D18088208110BD00216171808821899F
:100470008842F8D10120E7E7802C002010B502283F
:1004800001D0032810D1094C607800280CD000203E
:100490006070E07800F02AF8002805D06169002932
:1004A00002D0BDE81040084710BD0000802C00209D
:1004B00010B574DF0B4C01200B4960710020E07116
:1004C0000620C87000210848FFF7E6FE002807D183
:1004D000E07800F00BF810B1616901B188470020A5
:1004E00010BD0000802C0020D43000202DE9F04108
:1004F0003D4C804686B0207848B184F8038004A83B
:1005000001F0DCFC0498012628B1667067E0082041
:1005100006B0BDE8F0810025A561344FA583A5771D
:10052000787810B1E078012806D0B87858B1E07832
:10053000012801D0022806D1216919B126710820AD
:10054000884700E025714046FFF7A0FBE070216975
:1005500039B1032801D0042803D1387808B1607973
:1005600090B1A57100950295019503958DF8005005
:100570008DF808501C48E1781830052925D2DFE8AD
:1005800001F03008111D2100E571A6710720884790
:10059000E8E7A67001908DF80060ADF80C50ADF85A
:1005A0000A5014E00221A17001908DF80060B88912
:1005B000ADF80C003889ADF80A0008E0684605F08F
:1005C000E3FA02E0684605F003FBE07818B16846FC
:1005D00073DF00289CD1216909B1A07888470020E9
:1005E00096E7A570F7E70000802C0020B4300020CB
:1005F00073B586B0040034D0217C9DF81C20002007
:1006000091422CD0002501260095ADF8006007A886
:10061000ADF802500190E188608A6A46A4DF0028A4
:100620001DD19DF81C002074608AA0F57F41FF3920
:1006300019D0207DB8B10295039504950595E08801
:10064000ADF80800BDF80200ADF80C0001988DF877
:100650000A60CDF810D00590608A02A9A6DF08B024
:1006600070BD0E20FBE70820F9E738B50D46040001
:100670001BD0D5B1286820604FF6FF7060822879C2
:100680002075FF20207401208DF8020041F60F0034
:10069000ADF80000221D69460120A0DF002803D12B
:1006A00029462046FFF730FD38BD0E2038BD38B54D
:1006B000002823D0002921D00A88102A19D0112A15
:1006C00019D0502A1AD10446007D002816D031F8DE
:1006D000060F6289904211D1488902280ED1206804
:1006E00000280BD001F10C0000F024FB38B10020F1
:1006F00006E0898801E04FF6FF71418238BD012094
:100700008DF80000226869462046904738BD0000F9
:1007100070B5054601461C220F48FEF78DFE0F4CB2
:1007200000262670286830B1016861604068A060CA
:10073000201D7ADF02E00948001D7BDF00280AD176
:100740004FF6FF7060806670BDE87040044A00217B
:100750000448FFF781BB70BD88310020A02C002029
:10076000496602003C6B020070B51E4C06880023EF
:100770001B49E289102E15D01B4D112E1CD0122EB4
:1007800029D0502E17D130F8061F914213D141893C
:10079000022910D10C3000F0CDFA88B1BDE87040CC
:1007A00000F052BF84884C800469CC6040690861C5
:1007B0004B70002AF2D070BD4FF6FF7048804B702E
:1007C0002868FFF7D7FB0028F5D0A1690029F2D0EF
:1007D000BDE8704008478268CA60C0680861DDE70C
:1007E000A02C0020883100203C6B020002490A7DC9
:1007F000091D04F0BBBE0000A431002002460248DF
:10080000C17D001D04F09FBEA431002002460248B5
:10081000017E001D04F097BEA43100202DE9F047B1
:10082000044603883F4801228CB000F1150A102BC2
:1008300009D0112B55D01A2B71D1217AB2EB111F8F
:1008400054D2012353E0027D417D05468A43011DB8
:1008500006A804F08BFE142206A901A8FEF7ECFD01
:10086000DFF8C0900026374609F114090DF104089D
:100870000AE000BF08EB46001D2283884946281D78
:10088000009704F025FE761C0198B042F2D8287D2E
:10089000A688C043C0B204F03DFEA0F57F41FF39F9
:1008A00017D005EB40000123868032465146281DB3
:1008B00004F081FE012332464946281D04F07BFEE8
:1008C000E07B02280BD000231649A2881631281D90
:1008D00020E00CB00420BDE8F047FFF7B1BA0123D7
:1008E000F2E70023A2885146001D13E000230D49C2
:1008F0000546A2881731001D04F05DFE207A022112
:10090000B1EB101F01D2012300E000230549A288AA
:100910001831281D0CB0BDE8F04704F04CBE0CB0F7
:10092000BDE8F087A431002070B50A4E05460024CA
:10093000317D2A46301D04F006FE40B1B17D2A46C5
:10094000301D04F000FE08B1022400E0012420461E
:1009500070BD0000A431002010B50024204605F031
:10096000A3FE28B1641CE4B2182CF7D3182010BDE4
:1009700003480122A240016811430160204610BDD6
:10098000A431002010B5044605F08EFE002802D0E8
:1009900001482044407E10BDA431002070B50546BA
:1009A0000C46084605F080FE002808D004482A4678
:1009B0000119001D497EBDE8704004F0C4BD70BD42
:1009C000A431002070B5064615460C46084605F0D1
:1009D0006BFE002809D005482B4601193246BDE8B8
:1009E0007040001D193104F0E6BD70BDA431002037
:1009F0007CB5054608880C460930904201D90C2088
:100A00007CBD68466DDF0028FAD121880820685433
:100A100020881B21401C80B2208029542088401C43
:100A200080B220802844DDF801100160BDF8051077
:100A300081802088801D80B220809DF800104908A8
:100A400000D0012129542088401C208000207CBD3A
:100A50007FB5044601208DF8060041F60A00ADF886
:100A60000400454A01A90120A0DF00287ED1228888
:100A700004F13C0552B140482B46801C009042F6E0
:100A80002920616800F0A8FC002873D1228952B1A6
:100A900039482B460A30009042F62420E16800F0E5
:100AA0009BFC002866D1228A52B133482B46123073
:100AB000009042F62520616900F08EFC002859D193
:100AC000228B52B12C482B461A30009042F6272038
:100AD000E16900F081FC00284CD1228C52B12648FB
:100AE0002B462230009042F62620616A00F074FC0A
:100AF00000283FD1228D52B11F482B462A3000904A
:100B000042F62820E16A00F067FC002832D1216B10
:100B100071B102A805F045FB17482B463230009012
:100B2000082202A942F6232000F056FC002821D119
:100B3000606B58B110492B463A3100910279016837
:100B400042F62A2000F048FC002813D1A16B81B1A5
:100B500002A804F0EFF908482B4642300090072223
:100B600002A942F6502000F037FC00E002E0002825
:100B700000D1002004B070BD0E2D002010B5044639
:100B8000FFF74CFE204604F01FF821460D4800F008
:100B900078F80C4821461838FFF789FD2046FFF702
:100BA000E3FD204600F0E8F9204602F067FF20460A
:100BB000FFF736FC21460348BDE81040503002F0F4
:100BC000EDBC0000B82F002030B50446008CADB05D
:100BD000A0F57F42FF3A23D06A46204601F022FE6C
:100BE0000546ADF89C000020289029902A902B9073
:100BF0002189ADF8A0100121ADF8A4008DF8A21054
:100C000027A82A90CDF8ACD0208C28A9A6DF0028F0
:100C100004D1BDF89C10A94200D00C202DB030BDED
:100C20000820FBE738B50446086820600879607141
:100C30004FF6FF702084002084F82200A4F84C00B6
:100C4000142084F84E0001208DF8020041F60D00BA
:100C50000D46ADF80000A21D69460120A0DF002866
:100C60000ED12946204601F07BFD002808D1A86856
:100C700028B12946204600F09DF8002800D1002028
:100C800038BD38B502460888102815D0112815D06F
:100C9000502816D1881DC9889389994211D141895C
:100CA000144602290DD1216800290AD00C3000F029
:100CB00041F838B1002006E0888801E04FF6FF7067
:100CC000108438BD01208DF8000022686946204656
:100CD000904738BD028C0B889A4203D18978C91E8F
:100CE00080F84E10704770B50446B0F84C000D46C1
:100CF00014280AD104F126012622881EFEF79CFB47
:100D0000B4F84C00401EA4F84C00B4F84C0004EBBE
:100D10004001401CA4F84C008D8470BD80F8221066
:100D2000704770B504460D460846FEF7B7FB2080B5
:100D3000656070BD007800F0010070470A780270AD
:100D4000497841700220704700B5164889B00023E9
:100D500000690790D822144907A805F0D7F908B10F
:100D6000FFF76EF86A460121002005F0B9F908B1D5
:100D7000FFF766F89E20ADF81000684605F0A6F96A
:100D800008B1FFF75DF8094805F096F908B1FFF7DB
:100D900057F8074805F0F2F9002801D0FFF750F89E
:100DA00009B000BDF46A0200C82E00207D0B0200CD
:100DB00091610200F0B58FB00D4606461C216846D1
:100DC000FEF761FB00249DF80000039440F0020050
:100DD0008DF80000012701948DF8367042F6382016
:100DE000049405940694ADF834000C94E87B8DF8D7
:100DF0003000287C8DF831009DF83200142120F05D
:100E00000600801C20F019008DF8320007A8FEF7BC
:100E10003AFB0DA807900CA8ADF824700890ADF827
:100E20002640ADF82870A8680B90F08806F11003F2
:100E300007AA6946A2DF0FB0F0BD00000149085CB7
:100E4000704700000C6B02000649095C4FF0A0409F
:100E5000D0F81005C84010F0010000D0012080F04B
:100E6000010070470C6B020007490B5C4FF0A0417A
:100E7000D1F804250120984020EA0203C1F8083582
:100E80001040C1F80C057047086B02000249085C6D
:100E9000012102F093BD0000086B02000249085CCA
:100EA000002102F08BBD0000086B02000649095CBE
:100EB0004FF0A040D0F80405C84010F0010000D069
:100EC000012080F001007047086B02007CB500240F
:100ED000084E25460122305D0095002311460195FC
:100EE00002F026FD641C042CF4D3BDE87C4000F025
:100EF00003B80000086B020010B500242046FFF77D
:100F0000C5FF641C042CF9D310BD10B50024204685
:100F1000FFF7C4FF641C042CF9D310BD10B50246C2
:100F2000064B4FF0FF3000215C5C944201D1084633
:100F300010BD491C0429F7D310BD00000C6B020042
:100F400070B50C4E0C004FF0000530600BD0012046
:100F500000F0A4F808B1022004E0002000F09EF8A0
:100F600000B10B202070706810B9FEF7BBFE05467B
:100F7000284670BD782C002010B51A4C0188606896
:100F800010290ED011292BD1401E606028D1FEF708
:100F9000A9FE002824D02168002921D0BDE81040F6
:100FA0000847D0B900210122084600F09BF808B19B
:100FB00007280FD107220221012000F093F808B181
:100FC000072807D104220221002000F08BF820B16D
:100FD000072802D0216801B188476068401C606022
:100FE00010BD0000782C002010B5002000F0AEF9F4
:100FF00008B1062806D1012000F0A8F908B106289A
:1010000000D1002010BD00002DE9F0470D468146BB
:10101000FFF784FF0446042838D2DFF878801C48A4
:101020001D4EA8F1100735B3012D0ED0022D2DD184
:1010300004EB440030444578002D27D0F96800299E
:1010400024D02846BDE8F047084704EB4401755C0E
:101050000E44717859B179680E4A01EB810149005B
:101060000E3A8068FEF742FF08B987F80290B1781F
:1010700008F80410E0E78068FEF77CFF04EB440109
:10108000314418F804008D78A842D5D0BDE8F08727
:10109000106B0200742C002088300020FFF7D4BEB3
:1010A00001460F4810B54088042907D007290ED003
:1010B0000A2914D1BDE8104004F0ACBD132176DF3D
:1010C0000BE000280BD0BDE81040FEF7B9BEA0F53C
:1010D0007F41FF3903D1FFF7EBF90828F1D110BDAB
:1010E000382C002070B50023042810D20D4D00EBE1
:1010F0004004012A02D101290CD00022094E00EB44
:101100004000304461B1012906D0022906D00723EE
:10111000184670BD0E30C2B22A55F9E74270F7E7A3
:101120008270F5E788300020044A01460020127AD8
:10113000D20702D0084600F04FB87047642C002058
:101140002DE9F04106461F4800240F464160C0E9E2
:101150000262B0071FD50025012211462846FFF77D
:10116000C1FF6D1C0446042D02D2002CF4D012E005
:101170008CB97A0804211448FEF718FE04000AD13D
:10118000FEF702FE040006D10F48104A0021001F9E
:10119000FEF762FE0446F00701D0FFF797FE74B930
:1011A00009480B4A00210C38FEF756FE040006D110
:1011B0000548084A01210838FEF74EFE044620463D
:1011C000BDE8F081642C00201C6B02005D1302005E
:1011D000352D020083FD01002DE9F047594C0546ED
:1011E0000026607818B100206070FFF785FE0120AE
:1011F000554F4FF47A694FF4C87A4FF06408182DB0
:101200002CD2DFE805F0890C0C2C3A4751565A6174
:101210005A619B6969696969898C8F929B9B0020DF
:10122000FFF744FE00284FF0000008D0FFF72EFE25
:10123000022D02D14FF4E16006E0484604E0FFF7DA
:101240002DFE022D2ED05046B0FBF8F125706068BF
:10125000414300223868FEF749FE064659E0002067
:10126000FFF724FE28B10020FFF710FE4FF448706E
:10127000EAE70020FFF712FE14E00020FFF716FE59
:1012800000284FF0000002D0FFF700FED5E7FFF77F
:1012900005FED8E70020FFF709FE0028E9D000206E
:1012A000FFF7F4FDC820CFE70020FFF7DDFD257034
:1012B00007E000203FE025702BE060700120FFF781
:1012C000D3FD00226168C5E760700120FFF7CCFD07
:1012D000606800EB8001BCE77868FEF74BFE0646CD
:1012E000D5F1110000D01EB10220FFF7CFFD10E0B4
:1012F00001280BD9C82110FB01F1B1FBF8F160689E
:10130000002241437868FEF7F1FD06460220FFF710
:10131000C5FD3046BDE8F087FFF7EEFDCBE7FFF7F0
:10132000EBFDC6E7FFF7E8FD04E0FFF7E5FD002071
:10133000FFF7B4FD0120FFF7B1FDBCE7FFF7E5FDC6
:10134000B9E70000642C0020106B020010B5FFF715
:1013500075FD032102F010FB002010BD0078022172
:10136000FFF752BE05494FF0FF32082841F8202010
:1013700002D3084480F84820704700001836002047
:10138000F0B54FF0FF3512B10023082601E0082325
:101390000C260C4C05E000BF54F823707F1C04D0D1
:1013A0005B1CB342F8D32846F0BD26185DB286F820
:1013B000305044F82310002AF5D1E11881F8480094
:1013C000F1E70000183600200249084490F9300087
:1013D00070470000183600202DE9F0438FB01E46FC
:1013E000DDF8589015460F00804602D10020FEF728
:1013F00027FD15B90020FEF723FD1C216846FEF7E6
:1014000042F800249DF80000039440F002008DF89B
:101410000000012001948DF8360004940594069490
:10142000ADF834800C9430788DF8300070788DF8F9
:1014300031009DF83200142120F00600801C20F0BD
:1014400019008DF8320007A8FEF71DF80DA80790C7
:101450000CA808900748ADF82450ADF82640ADF828
:1014600028500B974B4607AA69460088A2DF0FB0A9
:10147000BDE8F0830E2D002038B10549814204D823
:101480000449814201D901207047002070470000C3
:10149000C02D0020D02D0020044A0168914201D0C7
:1014A000083101E001493839016070479837002060
:1014B00070B504464FF6FF750A462846AC4208D17F
:1014C0004FF480742146104603F03AFBA04209D045
:1014D00070BDFF2CFCD82146104603F024FB08B158
:1014E000204670BD284670BD70B5084C050009D077
:1014F00010342168002907D0086820604968284610
:101500008847F6E70834F4E770BD00000436002091
:101510002DE9F05F26484168F1B3DFF898B00E6816
:101520008146DBF8004087688078E11B21F07F4529
:10153000ED1CB0B9DFF880804FF48030C8F8440368
:10154000C8F804031120FEF7B5F81120FEF7C8F81B
:101550004FF0010AC8F800A02F2002F055F889F8D2
:1015600002A0B54200D23546124BE8193C3320F0B8
:101570007F401860DBF800105A46091B21F07F41BC
:10158000001B20F07F40C91C81420FD910681860F1
:101590002F2002F039F800E004E0BDE8F05F1120F0
:1015A000FEF7B4B8BDE8F05F03F016BFBDE8F09FEA
:1015B0006C2D002004150140001001402DE9F04180
:1015C00017880646B81D14460D46984202D90C20CD
:1015D000BDE8F0813188072206290AD34FF4486C10
:1015E0004FF6FF73614501D9994202D170880628F0
:1015F00001D21046ECE7604501D99842F9D19942F1
:1016000003D0984201D08142F3D80520E8552088C4
:101610001221401C80B2208029542088401C80B2B6
:1016200020804119308805F00AF82188084480B2EA
:1016300020804119708805F002F821880844208034
:101640000020C5E7FEF7FCBBF8B5134801F054FBDA
:10165000114D0026114C0C3D30B16169B9B101202A
:101660008DF80000684611E0287820B1616971B1F9
:101670008DF80060F6E7687858B1A1680848002244
:101680000068FEF733FC10B1A16901B188472E70E4
:10169000F8BD6168F2E70000AC2C00208831002022
:1016A0003C6B02002DE9FF410C4618B1012004B04B
:1016B000BDE8F08120790027DFF87C80012638B171
:1016C00041F61D5501281ED0022829D00F20EEE733
:1016D00002970397E0680190694601A803F06EFD48
:1016E00068B102988188E18000882081029803F027
:1016F000D9FDBDF8002008EB02118E7300E00A202E
:1017000002212171D3E70D4B6A460021A01D03F091
:1017100011FD38B1094908398F60CF600A28C6D158
:101720002846C4E7019803F0BDFD04498A8808EB08
:1017300002118E73F2E70000A8370020942D0020DC
:101740002DE9F04100260125144C22E06068226951
:1017500000EBC607387805FA00F1114217D08A432A
:10176000226102F0A3F802463878E36805FA00F136
:10177000194002FA00F3994209D17978012901D080
:10178000012100E0002151407A6802B19047761CA7
:10179000F6B220788642D9D3BDE8F081582D0020DA
:1017A0000E4910B50A784C780023A24212D0521C80
:1017B000D2B20A70022A00D10B70084A0B78183294
:1017C00052F8232002608868104420F07F4088602F
:1017D000012010BD0360002010BD00006C2D002012
:1017E0003EB5094D38CD8DE83800ADF804100749F5
:1017F0008DF80620ADF8020000220978FFF7E2F824
:10180000684600F08FF83EBDB06B0200F42C00205B
:1018100010B503780022072B06D2DFE803F0050499
:10182000060C1C252B000A7010BD01220A700289CB
:101830008A81828814E002220A7002898A81828861
:10184000CA81C2688A60007C062802D00020087421
:1018500010BD0120FBE703220A70C2888A81028939
:10186000CA81C068886010BD04230B70C08888815D
:10187000CA8110BD0520087010BD000070B5064D6E
:101880000646002455F8241009B130468847641CE8
:10189000082CF7D370BD0000C83600200EB5002913
:1018A00011D011290FD0002200920292ADF802004F
:1018B00001910D2908D0862908D009208DF8000053
:1018C000684600F03DF80EBD0B20F7E70A20F5E76B
:1018D0000149096808470000BC2C002070B5054D7F
:1018E00006460024304655F824108847641C022C14
:1018F000F8D370BD586B02002DE9F0410746002473
:10190000064E074D05E000BF56F8241038468847BC
:10191000641CE8788442F7DBBDE8F081B83500202C
:10192000E42C002070B5054D06460024304655F8DD
:1019300024108847641C022CF8D370BD786B020019
:101940000149096808470000BC6B020070470000AD
:101950007FB50446406858B10020039020780026E7
:10196000384D06285DD2DFE800F05C0505264169A8
:101970000120F2E7A08900F0B3F918B9E08903F07B
:10198000A3FC80B3A089A0F54040ADF80200A07B85
:101990008DF8040020780128606806D048B1042042
:1019A0008DF80000606803901AE00028F8D003204A
:1019B000F6E70120F4E7A08900F092F918B9E08970
:1019C00003F082FC78B1A089A0F54040ADF8020098
:1019D000A07B8DF80400606830B105208DF8000010
:1019E000A06802901AE01CE00220F7E7A08900F04E
:1019F00077F9B0B1E089A0B9A089FF21A0F54040F6
:101A000080B2ADF802008DF80410616881B1072042
:101A10008DF800006E70AE7002F0E4FD684602F0D2
:101A2000B9FC6878002802D06E7002F0DBFD7FBD43
:101A300006218DF8001002F063FEEBE708208DF818
:101A40000000EBE7D02C002000B5114987B00978E1
:101A5000890702D4022007B000BDA0F57F41FF39FD
:101A600011D005218DF8001001218DF80410ADF87A
:101A7000060000221146684602F0F4F828B103F08F
:101A80003BFB0020E7E70420E5E70820E3E7000050
:101A90008C2D002000B50E4887B00078800702D456
:101AA000022007B000BD06208DF80000002211467C
:101AB000684602F0D7F840B10648017809B1012123
:101AC000017303F019FB0020EBE70820E9E70000B1
:101AD0008C2D0020C837002000B58DB01421684639
:101AE000FDF7D1FC1E480078810703D56846FFF753
:101AF000C5FE33E0C00731D1012000F015F900F038
:101B000085F902F04BF970B106280FD001218DF84C
:101B100014100C281BD2DFE800F01A101A101A1843
:101B20001A181A1216120B200DB000BD022000F078
:101B3000FBF8012000F0DEF8D8E7002000E00320E9
:101B40008DF8180003E00220FAE78DF81810002243
:101B5000114605A802F086F803F0CEFA0020E3E76C
:101B60008C2D002038B5040011D0694603F026FB07
:101B700088B10A48BDF8001000EB0110818941B11D
:101B8000A27A32B1491E81810020A07238BD0520A1
:101B900038BD062038BD0A2038BD0000A837002017
:101BA0001FB501A9684603F0C5FA04B010BD07B51A
:101BB00013460A466946002003F0BCFA0EBD07B57D
:101BC00013460A460021684603F0B4FA0EBD20B160
:101BD00019B10068086000207047052070470000B8
:101BE00038B50D46040015D0A5B1694603F0E6FAF4
:101BF00090B10A49BDF80020606801EB021291899A
:101C0000491C9181286060680C3068600120A072D6
:101C1000002038BD052038BD0A2038BDA837002077
:101C200018B10323002204F02BBE052070470223C5
:101C3000002204F025BE12B1022304F021BE0520CB
:101C400070470000064A5178082906D0054B43F832
:101C50002100491C5170002070470C207047000083
:101C60008C2D0020C836002038B504460A480D46A1
:101C70000078800701D4022038BD54B16946284657
:101C800004F00EFF0028F7D1BDF800102180658018
:101C900038BD052038BD00008C2D002010B504464D
:101CA0000D480078800701D4022010BD84B121883E
:101CB00002290FD8094800EB011042896088121AE6
:101CC000032A07D404F0E2FE00202080608010BDCB
:101CD000052010BD042010BD8C2D0020A837002049
:101CE00043F6FE71A0F54040884201D801207047BC
:101CF0000020704702490A7882430A70704700004A
:101D00008C2D002010B504460078182802D1FEF76B
:101D100023FE207010BD10B504460078182802D1AB
:101D2000FEF71AFE207010BD02490A7802430A70BD
:101D3000704700008C2D002070B513460022064627
:101D40001546862905D0112901D019B170BD01258C
:101D500000E001220D4C73B16179FEF733FE2A4693
:101D600021793046FEF72EFE002261783046FEF7DC
:101D700029FE002203E06178FEF724FE2A4621783E
:101D80003046BDE87040FEF71DBE0000F82C002074
:101D9000F8B506461A481F46154600780C46C00797
:101DA00008D03046FFF768FB30B13CB1200507D0C2
:101DB0000620F8BD0120F8BD0220F8BD0320F8BDC3
:101DC0003068A04204D8716804EB0530884201D91C
:101DD0000520F8BD7DB1684603F0DCF868B10098D5
:101DE0000221C0E900670172210B8181058203F0A5
:101DF00093F90020F8BD0420F8BD0720F8BD0000CD
:101E0000A42D0020084603F0E1B800002DE9F047BA
:101E10002748284C4FF01021001B02094969104641
:101E20004B1C03D14FF0805149690903DFF888A0AA
:101E30009AF80070FB0702D00020BDE8F08700236D
:101E4000A14607E009EB0314256815B1646804B1E5
:101E5000401E5B1C9342F5D3002422E0002504F0D1
:101E6000FF0C2B4613E000BF09EB0316D6F80080E9
:101E7000B8F1000F04D0D6F80480B8F1000F05D1F6
:101E8000767BAE4202D9354603F0FF0C5B1C9342D1
:101E9000EAD309EB0C13641C59601D7BA1EB0531DF
:101EA00019608442DAD347F001018AF80010C3E7D1
:101EB000D02D0020C02D0020A42D002020B10349EA
:101EC000496E01600020704703207047D83700201A
:101ED0002DE9F84307461D48DDF820801E460078AE
:101EE00015460C46C0070CD03846FFF7C5FA50B16E
:101EF0005DB154B145EA0400800708D00620BDE872
:101F0000F8830120FBE70220F9E70320F7E73868B0
:101F1000A04204D8786804EB8601884201D20520EB
:101F2000EDE77EB1684603F035F868B1009801210D
:101F3000C0E900780172C0E90354868203F0ECF82E
:101F40000020DCE70420DAE70720D8E7A42D0020F2
:101F500070B5174A17490446106E0B7800EB400025
:101F600002EBC0009D0715D5022C02D0032C1BD11B
:101F700002E001F04DFE17E04A78521CD2B24A70DE
:101F8000032A11D900224A70082103F0E9FB02F06C
:101F9000EBFF09E0580707D523F004000870526EE4
:101FA00012B140F002000870BDE8704003F06CB858
:101FB000D8370020A42D00200EB517A19DF80800E9
:101FC00020F00F00401C20F0F00010308DF80800C9
:101FD0000A2202A87CDF08B1FDF732FF40F241304F
:101FE00078DF08B1FDF72CFF0020009001904FF43E
:101FF000A071ADF80400ADF800104FF4C8704FF4B4
:102000000271ADF80600ADF8021068467ADF0028CC
:1020100001D0FDF715FF0EBD4E6F726469635F4816
:10202000524D00000148FEF755BE0000B82F0020B9
:1020300010B50549054801F099FA002803D0BDE81C
:102040001040FDF7FDBE10BD252002000830002025
:1020500070B508B1012070BD184C0025207B08B177
:10206000257301E000F0A2F82078082824D2DFE8E8
:1020700000F02304080C1023141EBDE8704000F08B
:102080001FB8BDE8704000F07FB8BDE8704000F0B8
:1020900061B8BDE8704000F037B808496088203961
:1020A00001EB00104068BDE8704001F057BE65606C
:1020B000BDE8704001F060BE0F2070BDC837002041
:1020C0001049F0B48A1C00200346A1F120050C1829
:1020D000A67A3EB1A37205EB0014A68916B9A47BBB
:1020E000012C0AD0401C80B20228F0D30B704B8028
:1020F0004B60F0BC41F61D5070471080F0BC00F002
:1021000043B80000C837002010B50F4CA4F12001DF
:10211000608801EB0010818961B1052020700B48B7
:102120000221002381800168BDE810400122084897
:10213000FFF72EBE4168002301220548FFF728FE65
:102140000421217010BD0000C83700209C2D002004
:10215000C02D002038B50A49084803240B6842689E
:10216000898803EB8101538804700020DB1C0090F8
:102170009BB20448FFF7ACFE38BD0000C837002012
:102180009C2D0020C02D0020074910B54888091D4E
:1021900003F062F818B1BDE81040FFF7DBBFBDE8FF
:1021A0001040FFF7B1BF0000C8370020F0B51D4850
:1021B0001D490125067802248B88A0F12002082EF3
:1021C00018D2DFE806F00417171A212C2C16018903
:1021D000491C01810021418080F80C1002EB0113A1
:1021E0001B7843B100234418491C89B2A372022909
:1021F000F4D30570F0BD0123F5E742685288D21C84
:102200001A448A800470F0BD46880D6802EB0612FD
:1022100056680E60556013818C80062100E007210E
:102220000170F0BDC83700209C2D0020F0B5044699
:102230000088384D8DB050281ED0522802D0542826
:1022400028D103E0A08800F0B3FF23E006208DF83A
:102250001400A08800F086FCADF81600A188ADF847
:10226000181000F05DF9A0880022E978FEF7AAFBBB
:1022700005A8FFF72DFB0DE0207B01280AD1A07AED
:10228000012807D12089A0F52451023902D1A08864
:1022900000F0C8FFA878FEF775FBC8B108A8FEF7E4
:1022A000A5FA142208A96846FDF7C6F800246E4670
:1022B0000BE000BF06EB4407A978B888FEF76EFB79
:1022C00010B1B88800F074FF641C0098A042F1D8E7
:1022D0006878FEF757FBC8B108A8FEF787FA142202
:1022E00008A96846FDF7A8F800246E460BE000BF79
:1022F00006EB44076978B888FEF750FB10B1B88840
:1023000000F090FF641C0098A042F1D803F0BEFAE0
:102310000DB0F0BDB42C00203EB504464088ADF8A9
:1023200002002078A8B101281FD0022810D12079FE
:1023300000280DD0608800F055FBA0F57F41FF39E3
:1023400006D00F490122C978FEF73CFB03F09EFA44
:102350003EBD00208DF800006846FFF7B9FA60889E
:1023600000F040FB00F024FF3EBD01208DF800008E
:10237000A088ADF804006846FFF7AAFA3EBD000049
:10238000B42C002010B50446007801280FD16088D5
:1023900000F00EFF608800F089F9002807D004499A
:1023A00060880122C978BDE81040FEF70BBB10BD64
:1023B000B42C002010B5104C00202070FEF7CCFA91
:1023C0006070FEF7C9FAA070FEF7C6FAE070FEF77B
:1023D000C3FA2071617818290BD0A178182908D088
:1023E000E178182905D0182803D00120207000209A
:1023F00010BD032010BD0000B42C00202DE9F041D9
:1024000086B000F0A5F86846FEF7F0F900246D46A6
:102410004FF6FF77DFF834800FE000BF05EB44068E
:10242000B08800F09FFBB84205D1B088012298F82F
:102430000310FEF7C7FA641CA4B20098A042EDD8BE
:1024400003F024FA06B0BDE8F0810000B42C0020AF
:102450000178072902D1408800F0E4BE70470000EF
:1024600010B504460A4841782046FEF797FA68B14D
:102470000848002101EB410200EB82025288A2428F
:1024800001D1C8B210BD491C0829F3D3FF2010BDEB
:10249000CC2C0020D831002070B5094D094E002405
:1024A00004EB440005EB800071784088FEF776FA73
:1024B00020B1641C082CF3D3FF2070BDE0B270BDC6
:1024C000D8310020CC2C00202DE9F041124E0746D7
:1024D0000125BD403068FDF74DFD00280DD10F4CA2
:1024E0002069284207D1384601F0E0F90028E06869
:1024F00005D0284304E0A8432061BDE8F081A8434B
:10250000E060206928432061A1683068BDE8F0419F
:102510000022FDF7EBBC0000C46B0200582D002028
:102520001CB5054AD2E90212CDE900120022694623
:1025300001F0FDFD1CBD0000446B020003484FF696
:10254000FF7181800121017000207047C02C0020A4
:1025500010B54FF6FF7001F029FD03498880BDE8F2
:10256000104003F0BFB90000C02C00202DE9FC4151
:10257000804600F0F7FA002403250127A0F57F41EB
:102580002646FF3908D06A46082101F0ABFD18B98C
:102590000198841D8688056832462B4621464046B0
:1025A000A9DF042804D0082804D00B2808D002E0B2
:1025B000112000E00020002F00D10B20BDE8FC819D
:1025C0000027A80701D50125E6E73443F5D000240C
:1025D00026460325E0E72DE9FC41804600F0C2FADB
:1025E0000746A0F57F40FF380ED001252A466D1C16
:1025F0000026ADB26B460821384601F09DFD04006F
:1026000006D0072C24D024E043F20200BDE8FC8170
:10261000019903230A1D0B604046891DAADF0400AF
:1026200004D00C2C08D0052C08D008E0082138462E
:1026300001F01AFE04460CE0012600E00024082107
:10264000384601F0FDFD00B10324002ECED100E09C
:102650000C242046DAE700001FB504460078012864
:1026600015D12079012812D1608802AA012101F038
:1026700039FD60B902208DF800006088ADF80200D5
:10268000094901208DF80400096868468847064812
:1026900008388088A0F57F41FF3903D0BDE81F408E
:1026A00003F020B91FBD0000C82C00201CB500F0AD
:1026B00059FA6A46012101F015FD08B100201CBD40
:1026C000019800781CBD00002DE9F041084C074638
:1026D0004FF6FF7643F20305324661883846A7DF9E
:1026E000A84203D16088401C6080F5E7BDE8F08116
:1026F000C02C00208188A1F57F42FF3A03D00088DA
:1027000008B10120704700207047000010B5124941
:10271000124803F0AEF8114C81B2103C6068401CC6
:1027200060600D487038FEF74FFA58B1082809D09C
:10273000A0F54051043905D043F20141884201D04F
:10274000FDF77EFB60680321B0FBF1F201FB120094
:1027500000B10120207010BD28300020482C00203E
:1027600070B5B6B0002405462E949DF8B8000E460C
:1027700020F00F00401C20F0F00010308DF8B80061
:10278000087B8DF8B9009DF8BA001C2120F00600E6
:10279000801C8DF8BA006846FCF775FE9DF80000B5
:1027A000039440F010008DF800002EA8CDE90440FD
:1027B00001208DF8D600019442F637200694ADF83A
:1027C000D4003494707B8DF8D000B07B8DF8D100AC
:1027D0009DF8D200142120F00600801C20F0180083
:1027E00040F001008DF8D2002FA8FCF74CFE35A870
:1027F0002F9034A8309007AA0021284600F012F844
:10280000ADF8C4009B20ADF8C80007A8ADF8C640DD
:102810003390E88805F108032FAA6946A2DF36B095
:1028200070BD00002DE9F041044640799046002536
:1028300000B1042594F8220008B145F00205CAB29F
:10284000FF2908D9090A88F8012045F0010588F810
:102850000210032602E088F801200226B4F84C009A
:1028600008B145F0100500271BE000BF94F84E109A
:10287000B21C91420BD2B4F84C0004EB4701C01BD0
:10288000420004F124002431FCF7D6FD0DE004EBF6
:10289000470008EB0601808C0870000A4870D6B229
:1028A0007F1CB4F84C00B842E0DC34F84C0FC01B7D
:1028B000208088F800503046BDE8F0813EB50278AF
:1028C00002230C46B3EB520F17D1B0F80110ADF84C
:1028D0000010C1788DF802108188ADF8041080795D
:1028E0008DF8060002AA01A92046FDF721FA03226D
:1028F00002A96846FCF7D9FD08B100203EBD0120C1
:102900003EBD000010B50C46FFF7AAFDFF280CD015
:10291000074900EB400001EB80004168216001891C
:10292000A180807AA071002010BD052010BD00009C
:10293000D831002070B5018890B010294FD1011D09
:1029400034226846FCF778FD9DF804004FF6FF76C8
:10295000032134466D46B1EB500F2AD001F082FDC1
:102960009DF8040040080ED001280CD0022820D188
:1029700018E00F99281D1131FDF7B4F818B100BF08
:10298000BDF8344015E00EAA0DA9072001F042FD64
:102990000028EED10DE00F99281D491CFFF78EFF8E
:1029A0000028EDD10EAA0DA9072001F033FD002863
:1029B000F1D1BDF80000291D00F08CFDB4420ED00D
:1029C000BDF80000214600F07EF8BDF80000ADF82B
:1029D000360001208DF834000DA8FEF77FFF10B0FF
:1029E00070BD0000094A002101EB410332F8233099
:1029F000834205D101EB410002EB80004088704723
:102A0000491C0829F0D34FF6FF707047D8310020D9
:102A100010B50D4C18200D4A607000204FF6FF7164
:102A200000EB400302EB8303401C59800828F7D3D6
:102A3000FDF792FF6070182803D00120207000205D
:102A400010BD032010BD0000CC2C0020D831002088
:102A500070B504460D46401C00F05CF900280ED00D
:102A60001022691C601CFCF720FD48B15FF00006D5
:102A700005F1110104F11100FDF734F8304370BD88
:102A80000126F5E7018811B9421892780AB10120B0
:102A90007047491C0829F7D30020704710B50C4631
:102AA0000346FFF7EFFF00280AD0188821888842E4
:102AB00005D10822A11C981CFCF7F7FC08B10020E6
:102AC00010BD012010BD01F06FBE10B504460078A6
:102AD00088B0002828D12079072825D1608801AA4C
:102AE000072101F0FFFA00281ED101F0BBFC1DE018
:102AF0006088BDF80010884218D004990298FFF74A
:102B0000A7FF98B16088FFF76DFFADF816000020B1
:102B10008DF814006088ADF81800BDF80000ADF81D
:102B20001A0005A8FEF7DAFE08B010BD03AA694630
:102B3000072001F06FFC0028DAD1F5E770B50446F4
:102B4000FFF750FF0546204601F0CFFA4FF6FF7120
:102B500004468D4203D014B9284601F025FE2046D4
:102B600070BD000010B5FFF77BFCFF2805D00449BD
:102B700000EB400031F8200010BD4FF6FF7010BD93
:102B8000D83100203EB5044601F06CFC0EE00199FE
:102B900020464631FFF782FF28B9019920462A31A5
:102BA000FFF77CFF10B1BDF808003EBD6A4602A9E0
:102BB000072001F02FFC0028E9D14FF6FF703EBD41
:102BC0002DE9F0410F4628B10120FFF793F80120CD
:102BD000BDE8F081397961B10026264D01290DD07B
:102BE000254C4FF002080229206822D003293CD14D
:102BF00028E001F0C1F80121397134E05FF00000F4
:102C000005EB0011097802290CD0401C80B2022883
:102C1000F6D30220FFF788F80120FFF76BF841F6A2
:102C20001D50D5E705EB0014606801F097F8267099
:102C300019E00146002301221048FFF7A9F8A4F883
:102C400004800FE001F08AF80A492268203149889F
:102C500005EB01114B6823604A60A2880A81A4F841
:102C600004800E703E710028B2D00120FFF742F8B8
:102C70000E20ADE7A83700209C2D0020C02D00209D
:102C8000F8B51C4C2078002832D0E068002658B1F6
:102C90000025607800282BD1684648DF052805D03C
:102CA00030B1FDF7CDF80AE00125F2E7012606E094
:102CB000009800F02BFD216909B1009888479DB963
:102CC0006078002814D16088ADF800006946A068DB
:102CD00061DF052803D020B1FDF7B2F804E001253B
:102CE00002E0D4E902018847002ED2D0002DE6D0C0
:102CF000F8BD0000A82D0020054940880A889042B0
:102D000004D34988884201D80120704700207047C9
:102D1000A42C00200021425C0AB101207047491C0C
:102D20001029F8D300207047800701D00020704799
:102D3000012070470348017AC90702D00078FEF7E6
:102D40004BBA7047642C00202DE9F047234D814693
:102D50001F46287A0E469046084302D026B100212D
:102D600004E00520BDE8F0871C491031484603F017
:102D7000A7F80446014600224846FEF7DDFF1FB1D2
:102D800021464846FEF78AFD112C0FD005DC5CB1C8
:102D9000082C09D00D2C06D106E0862C12D0A4F503
:102DA0004050023800D003242046DBE73246E97861
:102DB0004846FDF707FE4246A9784846FDF702FE61
:102DC0000024F1E73246E9784846FDF7FBFD42462C
:102DD000A9784846FDF7F6FDE6E70000F82C00204C
:102DE0002DE9FC4117460C00064604D02078C007A8
:102DF00005D0012004E000217EDFBDE8FC81022037
:102E00008DF804003046FFF7ADFE0546A0F57F4083
:102E1000FF3808D001A800902B463A46214630469C
:102E200000F021F806E020782146C007304603D0A4
:102E300000F07DF804460BE07EDF04004FF0000058
:102E4000009007D0002201232946304602F04EFCB4
:102E500014B106E00122F6E79DF80410304602F0B6
:102E60006FFC2046C9E72DE9F04F85B090468946B2
:102E7000834600259A462E4601AA072118460E9F32
:102E800001F030F9040008D1029D95F8440018358E
:102E900010F0010601D0029D343558EA04004FF0CD
:102EA00000080FD175B126B905F11200FFF7EAFD50
:102EB00040B12A4605F11201584685DF044687F8DD
:102EC000008021E00CB1052C1ED199F80000C0074C
:102ED0000DD003AB01220721504601F02DF904006B
:102EE0000AD10721504601F021FA040004D14946D5
:102EF00058467EDF040007D00721504601F0A0F9B4
:102F000010B1052800D00324CDF80080387808B12E
:102F1000012300E0002344B100225146584602F04C
:102F2000E5FB05B02046BDE8F08F0122F5E7FEB5D0
:102F30000F46064601F0D4F80546A0F57F40FF385D
:102F40001ED001AB01220721284601F0F5F804004C
:102F50000AD10721284601F0E9F9040004D13946D5
:102F600030467EDF040007D00721284601F068F9CB
:102F700010B1052800D00324012000905CB102E0CC
:102F8000032400200090002201232946304602F04D
:102F9000ADFB2046FEBD0122F6E700002DE9F04121
:102FA000134D0F46164680462978FDF7F7FC00289A
:102FB0001BD04046FFF7D6FD0446A0F57F40FF3802
:102FC00013D069784046FDF7E9FC38B133463A46FC
:102FD00021464046BDE8F04100F05CBF324639462C
:102FE0004046BDE8F041FEF7FBBBBDE8F0810000C4
:102FF000F42C00202DE9F04385B08146FDF7C2FC9A
:10300000002820D06846FDF7F1FB00246E4617E04B
:1030100006EB44054946A888FDF7C0FC78B10B4F84
:10302000A888B978FDF7BAFC8046A888F978FDF73A
:10303000B5FC0146A88801234246FFF785FE641CC3
:103040000098A042E4D805B0BDE8F083F82C002039
:103050002DE9F043264CA4F110092278D9F8048018
:1030600099F80350404694F801C0D9F8086031E05F
:1030700002EB42036168521C01EBC301A378D2B298
:10308000934200D100220B78022B02D0032B21D1D6
:103090001DE003464F68194603E0B94203D00B46D2
:1030A000C969B9B1F9E7A9B18B4205D1C06918B9AD
:1030B000104E0125B56000260F68C969D96149B174
:1030C0000B683B440B6005E00174C06900E000211F
:1030D0000028F9D19445CBD1C9E9010689F80350FC
:1030E000404502D00120BDE8F0830020FBE700004E
:1030F0007C2D0020001001402DE9F0412A4F0446AC
:10310000002607F11005D7F804803EE002D02046E3
:10311000E4691DE02878696800EB4002401CC0B2F9
:1031200001EBC2012870AA78904200D12E700A7873
:103130004868012A2BD1027C4ABB8A684260CA686F
:1031400082600A69C26049698161F97801B14660AB
:103150004368BA68DFF854C0991A21F07F4161458D
:1031600002D28268114406E0D11A826821F07F41C0
:103170008A4202D9511A016000E0066046600121CE
:1031800086600174C66103F073F8002CBED1287804
:1031900069788842BED17968414502D00120BDE8F6
:1031A000F0810020FBE700006C2D0020FFFF7F0076
:1031B000FEB504460026A0F57F40FF382FD02046FC
:1031C000FFF7D4F9050013D00B2D15D0112D11D018
:1031D000A5F5405002381CD009208DF8000020468B
:1031E000FFF7C0FCADF80200ADF8044002950DE019
:1031F000022002E001260CE003208DF800002046AA
:10320000FFF7B0FCADF80200ADF804406846FEF7E9
:103210005FFB0348324681782046FDF7D3FBFEBDB5
:10322000B42C0020FEB504460026FFF7D4F905466D
:10323000112818D003DCA5B10C2D06D115E0862D80
:1032400027D0A5F5405002381CD009208DF8000089
:103250002046FFF787FCADF80200ADF80440029568
:103260000DE0012002E001260CE007208DF80000AF
:10327000ADF804402046FFF775FCADF80200684643
:10328000FEF726FB0448324641782046FDF79AFBBC
:10329000FEBD0820EAE70000B42C0020F8B5054682
:1032A00000780C46002620420FD100208DF8000047
:1032B0006846FCF76FFE2878204202D12043287030
:1032C00001269DF80000FCF789FE3046F8BD00009D
:1032D00098B003F051F8394A40F6CD410320FDF78C
:1032E0002FFF08B1FCF7ACFD69460020FDF728FE72
:1032F00008B1FCF7A5FD9DF8000002285CD0002471
:10330000FDF722FD204601F05DFAFEF755FE3C2157
:1033100001A8FCF7B8F802208DF8040001248DF80C
:10332000064006208DF80700254803250690ADF8D5
:103330001450202110A8FCF7A6F88DF843404FF454
:1033400096701490B420002415901E4B10AA2146AC
:10335000009401A8FCF7D4FF08B1FCF771FDFEF75B
:1033600067FE02F06FFB02F02DFA1C216846FCF7A5
:103370008AF84FF42030CDE900404FF470200290DD
:1033800011488DF80C508089ADF80E000F4805905B
:103390000F4806908DF810406846FDF7B9F908B15E
:1033A000FCF74EFDFCF734FEFCF7B7FC3EDF0028CF
:1033B000FCD0FCF745FDF9E70124A1E7A1100200CC
:1033C000582C0020593A0200B82F00202D3B020053
:1033D0004516020070B5144682880E4605462088C0
:1033E000111D0144921C994201D8FE2A01D90C20DA
:1033F00070BD521C32542088FF21401C80B22080B6
:1034000031542088401C80B220808119288803F024
:1034100016F92188084480B22080AA8842B1A968A0
:1034200041B13044FCF708F82088A988084420807E
:10343000002070BD072070BDF8B50E460178144617
:103440000546012901D1687830B12088821C9A4252
:103450002DD8012902D006E00720F8BD6978014483
:10346000891C994223D8181A801E87B2ADF80070C3
:103470002188B01C084469467DDF0028EDD12878FA
:10348000022805D1BDF80010B94201D809210AE08F
:103490000821012805D16878B84202D8ADF80000AB
:1034A00001E0ADF80070BDF80000FE2801D90C2045
:1034B000F8BD2288401CB0542088401C80B2208077
:1034C00031542088401C2080BDF800100844208022
:1034D0000020F8BD70B505460C004FF0FF0020D06D
:1034E0004FF6FF76B5421CD00E480122417828469F
:1034F000FDF768FA2846FEF7B3FFFF2803D1FEF771
:10350000CBFFFF280DD0084B00EB400203EB8201FC
:103510004D8023F8226022684A60A2880A81A2793D
:103520008A7270BDCC2C0020D831002070B54FF6C7
:10353000FF750E46A84201D1002000E0401C84B275
:1035400008E02146304601F016FB08B1204670BD68
:10355000641CA4B2FF2CF4D9284670BDC20800F048
:1035600007030120895C98400840704770B598B106
:103570009E230022038043801546172602EB420457
:1035800000EB4404521CA380E680257212F0FF0277
:10359000F4D0C160002070BD0E2070BD10B504468F
:1035A000888800281FD10888042811D0102804D04A
:1035B0003A2806D055280BD107E0204600F0C4FA7F
:1035C00006E0204600F006FB02E0204600F0DEFAAE
:1035D000217A0020002906D02072A1889EDF1128C0
:1035E00001D10120207210BD00F180400068002848
:1035F00000D00120704708B500F180400021016033
:103600000068009008BD000000283ED01F49204AF5
:10361000096800BF00BF00BF00BF00BF00BF00BF00
:1036200000BF91422FD000BF00BF00BF00BF00BF4E
:1036300000BF00BF00BF00BF00BF00BF00BF00BF92
:1036400000BF00BF00BF00BF00BF00BF00BF00BF82
:1036500000BF00BF00BF00BF00BF00BF00BF00BF72
:1036600000BF00BF00BF00BF00BF00BF00BF00BF62
:1036700000BF00BF00BF00BF00BF00BF00BF00BF52
:1036800000BF00BF00BF401EC3D17047BC2D00204B
:103690000024F40070B50F4C0025207808B1852572
:1036A00016E00021A16061602161E1604FF0E0203F
:1036B000D0F80001012610F0010F03D107210020EE
:1036C00000F029F802F054FD08B90348066026709E
:1036D000284670BD043600201805004038B500208B
:1036E0008DF800006846FCF755FC074C207808B9B7
:1036F000FFF7D0FFE068401CE0600120A0709DF85B
:103700000000FCF76BFC38BD04360020002801D116
:10371000FDF7EABE70474907090E002806DA00F0F7
:103720000F0202F1E02282F8141D03E000F1E02212
:1037300082F8001400F01F0201219140400980002E
:1037400000F1E020C0F88012C0F8001170470000BE
:103750002DE9F0418846054601F076F8234E002811
:1037600028461AD0FDF730FE304490F84800800912
:10377000032802D001280ED007E04FF0A040D0F877
:103780001005E84010F0010F05D003212846BDE8E0
:10379000F04100F002B90221F8E701F061F80028D9
:1037A00022D02846FDF710FE04464FF4807000EB4F
:1037B00084000F4F81B207EB8400D0F8102542F04F
:1037C0000102C0F81025084600F018F9B8F1000F02
:1037D0000AD02846FDF7F8FD56F82000002803D04F
:1037E0000120A040C7F80403BDE8F081183600208E
:1037F000006000402DE9FC41DFF8A480044608EB9E
:103800000400002790F930001346C0170E46401CF4
:1038100001D0082741E0F27819462046FDF7B0FDB7
:103820000546401C38D0B07850B14FF0A04000EBB6
:103830008400D0F8001721F00201C0F8001707E05B
:1038400000217378204600910A46019100F082F829
:10385000F078C0B11348317800EB8500D0F810251E
:10386000114B1A40C0F810254FF4F8524FF4403372
:1038700002EA042203EA01410A43D0F810150A4380
:10388000C0F8102509E008EB0500327810F8481F51
:1038900041EA8211017000E004273846BDE8FC814E
:1038A0001836002000600040FFE0FCFF4FF0A04110
:1038B000D1F81015C14011F0010000D0012070476F
:1038C00070B5144D95F8540008B1082070BD002063
:1038D000411E2A18401CC0B282F830102028F8D3AC
:1038E00000242046FDF73EFD641CE4B20C2CF8D306
:1038F00007210620FFF70FFF4FF4BE7000F07EF89F
:1039000005494FF00040C1F80403012085F8540038
:10391000002070BD1836002000600040034890F879
:103920005400002800D00120704700001836002005
:1039300070B541EA4201DDE904564FF0A04441EA86
:10394000830141EA052104EB800041EA0641C0F809
:10395000001770BD70B541EA4201DDE904564FF031
:10396000A04441EA830141EA052104EB800041EAD9
:103970000641C0F8001770BD4FF0A04202EB800076
:10398000D0F8002722F44032C0F80027D0F80027F2
:1039900042EA0141C0F8001770474FF0A04202EB25
:1039A0008000D0F8002722F44032C0F80027D0F879
:1039B000002742EA0141C0F80017704701224FF08A
:1039C000A043824011B1C3F808257047C3F80C2505
:1039D0007047000018B5084B6C4601441B68009303
:1039E00006E000BF54F82030D3F81035401C08C260
:1039F0008142F7D818BD0000C06B0200034908B52A
:103A00000844002101600068009008BD006000408B
:103A100002494058012800D0002070470060004053
:103A20004058002800D00120704708B500224250BD
:103A30004058009008BDD0F80403084000D0012091
:103A400070474058002800D00120704708B5002278
:103A500042504058009008BD10B550B103280CD119
:103A60000220FDF761FB002807D0BDE81040FCF7FD
:103A7000E7B9BDE8104002F0CDB810BD30B504463E
:103A8000008889B03B2822D009DC274D022822D0AB
:103A9000102812D0112818D14FF6FF7014E05128C9
:103AA0001DD0562811D1A088132176DF00280CD014
:103AB00009B0BDE83040FCF7C3B90720FDF734FB7F
:103AC00008B1FCF7BDF9A088688009B030BDA088B6
:103AD000132176DFEAE70021688867DFE6E7102236
:103AE000A11D04A8FBF7A8FC9DF810100029ECD03C
:103AF0009DF81800042803D0062801D00528E4D139
:103B000002290FD05FF001008DF800004FF4C17062
:103B1000ADF80400A0886946A8DF0028D5D0FCF7DE
:103B20008FF9D2E70220EFE7382C00200078002838
:103B300007D104483B21408876DF002801D0FCF7FC
:103B40007FB97047382C002010B5CB7B8A88012BB9
:103B500005D102EB420400EB44040388A380C97B37
:103B6000022905D102EB420300EB4303418899800F
:103B700002EB420100EB4104A188172905D9104648
:103B80009EDF112801D10120207210BDF8B5074633
:103B90008888CC880646172C00D2172406EB4601ED
:103BA00007EB4105A988ADDF08B1FCF749F9A88802
:103BB000A04200D80446EC80F86840B1ADF800603F
:103BC000E888ADF80200FA68694638469047002058
:103BD0002872F8BD38B58A88498902EB420300EBA8
:103BE0004304A3888B4200D81946E180172901D2EB
:103BF0001721E180C16839B1ADF80020E188ADF846
:103C00000210C268694690470020207238BD00004B
:103C1000134A10B500215170017A012912D00229EE
:103C20001DD18189491C8181C189491C89B2C18109
:103C3000028A914213D1002101F092FDBDE81040AB
:103C400001F092B9838AC28A4FF480619C1A8C4237
:103C500000DAA1B2114489B2C1829942EBD010BD01
:103C6000A42D0020F8B51E4D17460E4601466A6F7A
:103C70000020032A33D805F17804C6F1080C636CE0
:103C800063452CD895F87000104400F00300C0EB99
:103C9000C00005EB80001C22FBF7CEFB686F401CC8
:103CA0006867DEB194F8440094F84010002308449B
:103CB00000F0070004EBC00000900AE007EBC3022D
:103CC0000098D2E90012C0E900126846FDF7E4FB53
:103CD0005B1CB342F2D3606C304460640120F8BDD9
:103CE000E83600200389CA1C1A4402814289511A0D
:103CF000C91E4181704700002DE9F04700F580554D
:103D0000002700F10804022090460E460880DFF8E4
:103D1000489012E02046FEF7EDFCD0B1A068D9F83B
:103D20000420904201D9C9F804006088318804EB6E
:103D300080040844C01C30800C34AC4202D220689D
:103D4000401CE7D1B8F1000F01D088F80070BDE841
:103D5000F0870127E9E700008C2D002008B500213D
:103D6000009101460223024A0248FEF7B1F808BD5D
:103D7000D86B0200C02D002008B500200090044838
:103D80000223044A01680448FEF7A2F808BD0000B7
:103D90009C2D0020D06B0200C02D00202DE9F05F8B
:103DA0000025374FDFF8DC80DFF8DC90DFF8DCB08F
:103DB0002C46AA462E46386800EB0630026842457B
:103DC00005D1334A4168891830D001290DD000212E
:103DD0004FF4806250F821305B1C33D009EB0411A2
:103DE00003200870641CA4B219E0BAF1000F09D0D6
:103DF000022209EB0411641C0A70DBF800304B60EE
:103E00000A81A4B200220BF10401CBF80000FFF7F5
:103E100073FFBBF80400022830D008200543761C4D
:103E2000B6B2032EC7D3E8B2BDE8F09F09EB041188
:103E3000002201F8042B01C18A1DFFF75DFF45F048
:103E40000205CFE7491C9142C4D3DBF80020594654
:103E50005AB109EB041102220A7048600A480A812B
:103E600020304480641CA4B205E008600220ABF856
:103E700004004FF0010A45F00105D0E70420CDE72A
:103E8000C02D0020DEC0ADDEA83700209C2D002014
:103E900002FEE10E70B5184D0E46044623CD86B0E5
:103EA0008DE82300154DADF80420ADF802408DF8E3
:103EB0000630A9782046FCF771FD18B13046FEF7B0
:103EC0003DFE0FE00721304600F0BAF950B1052859
:103ED00008D109218DF80C100490ADF80E4003A80C
:103EE000FDF720FD002229782046FCF76BFD68468F
:103EF000FDF718FD06B070BDA46B0200F42C002085
:103F0000F0B585B00746FCF73DFD002814D06846A3
:103F1000FCF76CFC00246D460BE000BF05EB44068B
:103F20003946B088FCF73AFD10B1B08802F066F867
:103F3000641C0098A042F1D805B0F0BD70B5054DE5
:103F400006460024304655F824108847641C052C8A
:103F5000F8D370BD646B02003EB5104D002400BF65
:103F600004EB840005EB800002F064FC641C082C68
:103F7000F6D30124502008210094CDE9011009490D
:103F8000C200074B01F5207000F0A4FC08B103202B
:103F90003EBD0348447000203EBD0000D8340020E0
:103FA000DC2C00204832002000F030BA00F030BA9B
:103FB0002DE9FF41002604460096019602960396DD
:103FC0004088ADF8020020798DF804003746217949
:103FD000608802F006FC21783F4D0A2947D2DFE8CD
:103FE00001F005053319193537393F4468B1417C73
:103FF000C9070AD002F02EFC8DF800702078012845
:1040000000D000208DF808001AE001208DF8000093
:10401000A06823E078B18168A26891420BD1417C0D
:10402000CA0708D06A6821F00101521C41F004015E
:104030006A6041741BE002208DF80000E068039084
:104040006846FFF77BFF12E003200BE0042002E04C
:10405000052007E006208DF80000E0680290EFE7F9
:10406000012607208DF80000EAE7E0680290686802
:10407000002826D0194C002505EB850704EB8700A6
:10408000417C4A0703D4C1F3400131421FD08178FB
:1040900034F8270000F0E8F8C8B105EB8501862860
:1040A00034F82110ADF8021004EB870189788DF8FF
:1040B000041008D009218DF8001002906846FFF71F
:1040C0003DFFBDE8FF8108208DF80000F6E76D1C7C
:1040D000082DD1D3F5E70000DC2C0020D8340020D7
:1040E00000F04CBA002300F0C5B938B505460024ED
:1040F000204609E08178284600F0A2F810B1052892
:1041000000D003240098401C00906946284602F025
:104110007BFB0028EED134B9284600F033FA10B109
:10412000072802D00324204638BD0724FBE71346A6
:10413000002200F0D3B900002DE9F0475FEA030840
:1041400015460E46824604D0072E05D0082E17D1FC
:1041500002E00E20BDE8F08795B1082D10D850463A
:1041600000F01BFA60B14FF000093146504602F0F2
:1041700038FB041E25D0E068A84213D24F460AE05F
:104180004FF00700E6E7207C3844C1B22B4800F02E
:10419000D5FB7F1CFFB2E068B842F4D8204602F09D
:1041A00049FB0EE017D9EFB207E0207C3844C1B2DA
:1041B000224800F0C3FB7F1CFFB2E068B842F4D88D
:1041C0004CB95746FF214FF6FF7002F00AFB041E60
:1041D00005D00780A670207CFF2802D00CE01120BB
:1041E000B8E72946154800F047FB014620462174F0
:1041F000FF2913D04FF00109E560217C0F4800F042
:1042000089FB02000DD0ABB23146404600F052FAB5
:10421000B9F1000F10D0082E05D00DE002F00AFB16
:10422000DDE7032096E7B8F800006FF0050101EB29
:104230008000D8F80410888000208BE7C834002064
:1042400070B5002402F0CDFA05000BD0686820B1EB
:1042500000F0BCF9040000D00324284602F0FAFA6A
:10426000204670BD052070BD7CB50D460646072969
:1042700003D0082D01D007207CBD002000900190C4
:104280008DF802502946304602F0ABFA040004D003
:10429000607CC00703D000207CBD05207CBD217C54
:1042A000204800F037FB020022D029466846E36828
:1042B00000F094F9684602F082FA04F108036946B6
:1042C0003046626800F00AF90146627C16485307DE
:1042D00004D5930702D543685B1E436051B1112991
:1042E0000DD0862915D0072900D0032108467CBDB2
:1042F00003207CBD22F0060040F0010010E0416880
:10430000491C416022F0020040F00400607400216A
:10431000ECE743685B1C436022F0040040F00200BD
:104320006074E3E7C8340020DC2C00207CB50D4627
:10433000072903D0082D01D007207CBD002602F0FC
:1043400050FA040002D0606810B11CE005207CBD6A
:10435000217C0F4800F0DEFA02004FF000000090D0
:1043600001908DF8025010D029466846E36800F0AD
:1043700035F9684602F023FA211D684600F00FF96E
:104380000646092801D030467CBD03207CBD0000D4
:10439000C83400200149096808470000606B02002A
:1043A00030B587B01748FDF74DFC10B1032007B0BA
:1043B00030BDFDF791FB08B18620F8E700F0CCF99D
:1043C000002002904CF2070403900EE0694604A816
:1043D000FDF706FC00988088A0F5404085B204A84F
:1043E000FDF7C0FB284600F073F902AA04A9204695
:1043F000FDF7DDFB0028E9D003490120087000200B
:10440000D5E7000051190200D02C002000F086B939
:1044100000F08AB970B5054686B014460E4600F520
:10442000404080B20E4A6946FDF7C1FB20B903A99E
:104430006846FDF7D5FB10B1002006B070BDA57031
:104440000398408820800498606003988088A0F5D5
:10445000404030806846FDF785FB0120EDE7000015
:10446000D42C002002480021416081607047000088
:10447000D02C0020F0B587B01D46144607460E46E6
:10448000FF280AD8084600F005F930B103AA3146E2
:10449000384600F0E7F840B902E0072007B0F0BD69
:1044A00001A903A8FDF79CFB08B10520F6E7A6705B
:1044B00001984088208055B182002868904204D835
:1044C00002996068FAF7B8FF03E00420E6E7029873
:1044D000606003A8FDF746FB0020DFE77FB588B0EA
:1044E0001E460D460446FF282ED8A87800F0D2F8C4
:1044F00050B3686806902888ADF81C0004F5404069
:10450000ADF80000A87803AA00F54040ADF802001D
:1045100006A801900120ADF80800A978204600F017
:10452000A1F8052812D00AA8FDF7B8FB694603A830
:10453000FDF776FBB8B107281ED008281AD00E2840
:1045400018D003200CB070BD0720FBE70A9828B1F3
:104550000AAA694603A8FDF76EFBEBE7694603A8C4
:10456000FDF765FBE6E71EB1314603A8FDF72FFB1B
:104570000020E7E71120E5E78620E3E74FF6FF702C
:1045800000F0A6B810B5FF2801D9072010BD00F033
:10459000A5F800F027F8002010BD00F0F1B870B5C4
:1045A00004460D46807800F075F858B121882846F9
:1045B000FDF75AFB002804D0072805D0092800D0B1
:1045C000032070BD072070BD862070BD01B5684610
:1045D000FDF764FB002800D0032008BD9BB200F06B
:1045E00069B80000F0B589B000264FF6FF77049651
:1045F0003846059603E0204600F082F8204600F099
:104600008DF80446B84208D004F5404080B204AAB0
:1046100006A9FDF7D4FA0A28EDD0114DA878002894
:104620001AD1BC4218D0012704F54040AF7080B2C7
:10463000FDF70AFA082811D000280DD0AE70092124
:104640008DF80010CDE90260FF21ADF802408DF831
:1046500004106846FFF79EFE09B0F0BD6F70FBE7DF
:10466000D02C00207CB5054616460C46084600F0C6
:1046700011F80020009005F54045019004F54044F4
:10468000A8B2A1B26B463246FDF78AFA002800D0E4
:1046900005207CBD07280BD0012809D0082807D0A9
:1046A000052805D0062803D0042801D00020704733
:1046B0000120704710B503EB83034FF6FF7404EA43
:1046C00003138170DB1C99084260018010BD00005B
:1046D0000149FCF7EDBE00007835002010B5044616
:1046E000A0F57F40FF3807D004492046FCF7E0FEE4
:1046F000A04201D1012010BD002010BD983500203E
:1047000010B50446044900F017FE03492046BDE8F1
:104710001040203100F010BE783500200149FEF72E
:1047200005BF00009835002070B50A49FEF7FEFE6F
:1047300004464FF6FF7507E000F02CF838B1054944
:104740002046FEF7F3FE0446AC42F5D170BD20468C
:1047500070BD00007835002010B508484021FAF7F8
:1047600092FE4FF480742146044800F0D5F92146AA
:104770000248BDE81040203000F0CEB97835002066
:10478000FF2803D80146024800F0F5B90020704721
:1047900078350020FF2803D80146024800F0EBB925
:1047A000002070479835002010B50C46FDF758FEE4
:1047B000FF2804D0024900EB400021F8204010BD42
:1047C000D83100201CB5044600F06AF908B1FBF7A7
:1047D00037FB24B100F0C2FA08B1FBF731FB00202F
:1047E000009001909DF8000020F0F00040F00300E0
:1047F0008DF8000007208DF8010010208DF80200D0
:104800009DF8030040F003008DF803009DF80400BC
:1048100040F003008DF80400684600F0D1FA08B1BA
:10482000FBF70EFB064800F0B5FA08B1FBF708FBF2
:104830000448FDF707FA002801D0FBF701FB1CBD77
:104840006F4902004D1902000449084490F93000F4
:10485000082801DB0120704700207047183600202F
:104860000449084490F93000082801D2012070471B
:1048700000207047183600202DE9F0410F46060051
:1048800026D0306820B3706810B3FF2400251CE0E8
:104890002946706800F047F948B1FF2C00D12C463A
:1048A000281B401CB8420ED12046BDE8F081FF2CE9
:1048B00006D108E02146304600F040F8641CE4B21E
:1048C000AC42F7D3FF246D1CEDB2B068A842DFD82C
:1048D000FF20EAE72DE9F0410400DDE90705069E27
:1048E00016D0A9B1A3B100FB05F7974210D8C21D9D
:1048F000B6EBD20F0CD358B155B1E5602160C4E9D5
:10490000013081B2184600F007F90020BDE8F081BF
:104910000720FBE770B504000D460DD0206858B1A4
:10492000606848B1FF2D07D000F025F920B1E1689B
:10493000206805FB010070BD002070BD70B504004B
:104940000D4611D0206800280ED0606800280BD0DA
:10495000FF2D09D000F00FF9002805D02946606826
:10496000BDE8704000F013B970BD01F073B908B52F
:1049700001780F290FD2DFE801F00E0E0E0E080F9E
:10498000250E230E251B250E1F00002100914088B7
:104990006946FFF7EAFF08BDFDF77CF80E28FAD05C
:1049A0000828F8D00028F6D0BDE80840FBF748BA40
:1049B000BDE80840FBF7B1B9BDE8084000F0A2B877
:1049C0000069EFE78068EDE770B586B00446142112
:1049D0006846FAF758FD6088ADF80400FEF702F863
:1049E000ADF80200257800200822072105230A2DB2
:1049F00029D2DFE805F005050C0E1017192B1D2034
:104A00008DF809008DF800108DF808201BE00D20AE
:104A10000BE00E2009E08DF809008DF800108DF8EC
:104A2000083010E00F2000E010208DF800000AE0B0
:104A30008DF8003007E006208DF80000A068029095
:104A4000A088ADF802006846FCF756FF06B070BDBE
:104A500010B50446007886B0D8B1012817D10F49A7
:104A6000608801224979FBF7ADFF14216846FAF707
:104A70000AFD6088ADF802006088FEF773F8ADF8B3
:104A8000040000208DF800006846FCF735FF06B0F2
:104A900010BDE08800F058F9F9E70000E42C002090
:104AA00070B5FFF77DFC48BBFFF756FA30BB01F04D
:104AB000DDF818BB01F0E6F900BBFDF77BFCE8B9B7
:104AC000FDF73CFDD0B9FDF7A3FFB8B90C4C4FF68C
:104AD000FF700025E0801820A56020716071FBF751
:104AE0003BFF2071182809D0FBF736FF60711828AA
:104AF00004D0657001202070002070BD032070BDBF
:104B0000E42C002003480078002801D0FDF776BC93
:104B100070470000E42C0020002803D0C91DC908FC
:104B2000FAF7B1BC7047002809D001F00703012251
:104B30009A40D2B200EBD1001146FEF7AFBB7047EE
:104B40002DE9F0410D46060013D0002401270EE0A8
:104B500004F0070007FA00F0C1B206EBD400FEF73C
:104B60009DFB10B12046BDE8F081641CA4B2AC42AC
:104B7000EED32846F7E740B100EBD10001F0070281
:104B8000007801219140084000D001207047F8B51D
:104B90000400C1F3C70501F007014FF0010000FA5E
:104BA00001F0C6B20FD0605D30420CD000208DF80D
:104BB00000006846FBF7EEF9605DB04360559DF874
:104BC0000000FBF70BFAF8BD10B504460748007863
:104BD00000280AD02046FDF7ADFE204601F02EF851
:104BE0002046BDE81040FDF721BB10BDE42C00209D
:104BF000F0B58BB0044614216846FAF744FC60888F
:104C0000ADF80400FDF7EEFEADF8020023780120B8
:104C10000822072100264B4D4FF6FF770A2B6CD256
:104C2000DFE803F00510263C444E6C8D85878DF837
:104C3000001021798DF808108DF8096003968DF821
:104C40000A0079E08DF8001021798DF808108DF8B0
:104C50000960A16803918DF80A00A86800286BD04C
:104C6000A168814268D1AE60BDF80400E88013E01D
:104C70008DF8002020798DF808008DF80960A06873
:104C80000390E0680490A868B0B3A168814253D152
:104C9000AE60E868401EE86003964DE08DF80010B5
:104CA00021798DF808108DF80900F5E78DF80020BE
:104CB00021798DF808108DF80900A06804903BE078
:104CC00009208DF80000A878B0B13846FFF76EF9DA
:104CD000B84231D13846FFF767F9B8422CD1AE70EF
:104CE000142105A8FAF7CFFB0B208DF81400ADF8BE
:104CF0001870ADF8167016E01EE020E00A208DF85E
:104D00000000A0680290A878B0B1AE70142105A888
:104D1000FAF7B9FB0C208DF81400ADF81870ADF857
:104D20001670A068079005A8FCF7E6FD04E00520D2
:104D300000E006208DF800006846FCF7DDFD0BB0B2
:104D4000F0BD0000E42C00200349097809B1FDF70B
:104D5000F5BE082070470000E42C002070B50C4818
:104D6000017829B1012181704FF6FF75284607E0CF
:104D7000082070BDFFF7E8FF08B1032070BD204692
:104D8000FFF714F90446A842F4D1002070BD0000DA
:104D9000E42C0020084A117821B1D178032903D3EB
:104DA0000420704708207047044B43F82100491C39
